{
	"contracts/MonsterToken.sol": {
		"MonsterToken": {
			"abi": [
				{
					"inputs": [],
					"stateMutability": "nonpayable",
					"type": "constructor"
				},
				{
					"anonymous": false,
					"inputs": [
						{
							"indexed": true,
							"internalType": "address",
							"name": "owner",
							"type": "address"
						},
						{
							"indexed": true,
							"internalType": "address",
							"name": "spender",
							"type": "address"
						},
						{
							"indexed": false,
							"internalType": "uint256",
							"name": "value",
							"type": "uint256"
						}
					],
					"name": "Approval",
					"type": "event"
				},
				{
					"anonymous": false,
					"inputs": [
						{
							"indexed": true,
							"internalType": "address",
							"name": "previousOwner",
							"type": "address"
						},
						{
							"indexed": true,
							"internalType": "address",
							"name": "newOwner",
							"type": "address"
						}
					],
					"name": "OwnershipTransferred",
					"type": "event"
				},
				{
					"anonymous": false,
					"inputs": [
						{
							"indexed": true,
							"internalType": "address",
							"name": "from",
							"type": "address"
						},
						{
							"indexed": true,
							"internalType": "address",
							"name": "to",
							"type": "address"
						},
						{
							"indexed": false,
							"internalType": "uint256",
							"name": "value",
							"type": "uint256"
						}
					],
					"name": "Transfer",
					"type": "event"
				},
				{
					"inputs": [
						{
							"internalType": "address",
							"name": "owner",
							"type": "address"
						},
						{
							"internalType": "address",
							"name": "spender",
							"type": "address"
						}
					],
					"name": "allowance",
					"outputs": [
						{
							"internalType": "uint256",
							"name": "",
							"type": "uint256"
						}
					],
					"stateMutability": "view",
					"type": "function"
				},
				{
					"inputs": [
						{
							"internalType": "address",
							"name": "spender",
							"type": "address"
						},
						{
							"internalType": "uint256",
							"name": "amount",
							"type": "uint256"
						}
					],
					"name": "approve",
					"outputs": [
						{
							"internalType": "bool",
							"name": "",
							"type": "bool"
						}
					],
					"stateMutability": "nonpayable",
					"type": "function"
				},
				{
					"inputs": [
						{
							"internalType": "address",
							"name": "account",
							"type": "address"
						}
					],
					"name": "balanceOf",
					"outputs": [
						{
							"internalType": "uint256",
							"name": "",
							"type": "uint256"
						}
					],
					"stateMutability": "view",
					"type": "function"
				},
				{
					"inputs": [],
					"name": "decimals",
					"outputs": [
						{
							"internalType": "uint8",
							"name": "",
							"type": "uint8"
						}
					],
					"stateMutability": "view",
					"type": "function"
				},
				{
					"inputs": [
						{
							"internalType": "address",
							"name": "spender",
							"type": "address"
						},
						{
							"internalType": "uint256",
							"name": "subtractedValue",
							"type": "uint256"
						}
					],
					"name": "decreaseAllowance",
					"outputs": [
						{
							"internalType": "bool",
							"name": "",
							"type": "bool"
						}
					],
					"stateMutability": "nonpayable",
					"type": "function"
				},
				{
					"inputs": [
						{
							"internalType": "address",
							"name": "account",
							"type": "address"
						}
					],
					"name": "excludeAccount",
					"outputs": [],
					"stateMutability": "nonpayable",
					"type": "function"
				},
				{
					"inputs": [
						{
							"internalType": "address",
							"name": "account",
							"type": "address"
						}
					],
					"name": "includeAccount",
					"outputs": [],
					"stateMutability": "nonpayable",
					"type": "function"
				},
				{
					"inputs": [
						{
							"internalType": "address",
							"name": "spender",
							"type": "address"
						},
						{
							"internalType": "uint256",
							"name": "addedValue",
							"type": "uint256"
						}
					],
					"name": "increaseAllowance",
					"outputs": [
						{
							"internalType": "bool",
							"name": "",
							"type": "bool"
						}
					],
					"stateMutability": "nonpayable",
					"type": "function"
				},
				{
					"inputs": [
						{
							"internalType": "address",
							"name": "account",
							"type": "address"
						}
					],
					"name": "isExcluded",
					"outputs": [
						{
							"internalType": "bool",
							"name": "",
							"type": "bool"
						}
					],
					"stateMutability": "view",
					"type": "function"
				},
				{
					"inputs": [],
					"name": "name",
					"outputs": [
						{
							"internalType": "string",
							"name": "",
							"type": "string"
						}
					],
					"stateMutability": "view",
					"type": "function"
				},
				{
					"inputs": [],
					"name": "owner",
					"outputs": [
						{
							"internalType": "address",
							"name": "",
							"type": "address"
						}
					],
					"stateMutability": "view",
					"type": "function"
				},
				{
					"inputs": [
						{
							"internalType": "uint256",
							"name": "tAmount",
							"type": "uint256"
						}
					],
					"name": "reflect",
					"outputs": [],
					"stateMutability": "nonpayable",
					"type": "function"
				},
				{
					"inputs": [
						{
							"internalType": "uint256",
							"name": "tAmount",
							"type": "uint256"
						},
						{
							"internalType": "bool",
							"name": "deductTransferFee",
							"type": "bool"
						}
					],
					"name": "reflectionFromToken",
					"outputs": [
						{
							"internalType": "uint256",
							"name": "",
							"type": "uint256"
						}
					],
					"stateMutability": "view",
					"type": "function"
				},
				{
					"inputs": [],
					"name": "renounceOwnership",
					"outputs": [],
					"stateMutability": "nonpayable",
					"type": "function"
				},
				{
					"inputs": [],
					"name": "symbol",
					"outputs": [
						{
							"internalType": "string",
							"name": "",
							"type": "string"
						}
					],
					"stateMutability": "view",
					"type": "function"
				},
				{
					"inputs": [
						{
							"internalType": "uint256",
							"name": "rAmount",
							"type": "uint256"
						}
					],
					"name": "tokenFromReflection",
					"outputs": [
						{
							"internalType": "uint256",
							"name": "",
							"type": "uint256"
						}
					],
					"stateMutability": "view",
					"type": "function"
				},
				{
					"inputs": [],
					"name": "totalFees",
					"outputs": [
						{
							"internalType": "uint256",
							"name": "",
							"type": "uint256"
						}
					],
					"stateMutability": "view",
					"type": "function"
				},
				{
					"inputs": [],
					"name": "totalSupply",
					"outputs": [
						{
							"internalType": "uint256",
							"name": "",
							"type": "uint256"
						}
					],
					"stateMutability": "view",
					"type": "function"
				},
				{
					"inputs": [
						{
							"internalType": "address",
							"name": "recipient",
							"type": "address"
						},
						{
							"internalType": "uint256",
							"name": "amount",
							"type": "uint256"
						}
					],
					"name": "transfer",
					"outputs": [
						{
							"internalType": "bool",
							"name": "",
							"type": "bool"
						}
					],
					"stateMutability": "nonpayable",
					"type": "function"
				},
				{
					"inputs": [
						{
							"internalType": "address",
							"name": "sender",
							"type": "address"
						},
						{
							"internalType": "address",
							"name": "recipient",
							"type": "address"
						},
						{
							"internalType": "uint256",
							"name": "amount",
							"type": "uint256"
						}
					],
					"name": "transferFrom",
					"outputs": [
						{
							"internalType": "bool",
							"name": "",
							"type": "bool"
						}
					],
					"stateMutability": "nonpayable",
					"type": "function"
				},
				{
					"inputs": [
						{
							"internalType": "address",
							"name": "newOwner",
							"type": "address"
						}
					],
					"name": "transferOwnership",
					"outputs": [],
					"stateMutability": "nonpayable",
					"type": "function"
				}
			],
			"devdoc": {
				"kind": "dev",
				"methods": {
					"allowance(address,address)": {
						"details": "Returns the remaining number of tokens that `spender` will be allowed to spend on behalf of `owner` through {transferFrom}. This is zero by default. This value changes when {approve} or {transferFrom} are called."
					},
					"approve(address,uint256)": {
						"details": "Sets `amount` as the allowance of `spender` over the caller's tokens. Returns a boolean value indicating whether the operation succeeded. IMPORTANT: Beware that changing an allowance with this method brings the risk that someone may use both the old and the new allowance by unfortunate transaction ordering. One possible solution to mitigate this race condition is to first reduce the spender's allowance to 0 and set the desired value afterwards: https://github.com/ethereum/EIPs/issues/20#issuecomment-263524729 Emits an {Approval} event."
					},
					"balanceOf(address)": {
						"details": "Returns the amount of tokens owned by `account`."
					},
					"owner()": {
						"details": "Returns the address of the current owner."
					},
					"renounceOwnership()": {
						"details": "Leaves the contract without owner. It will not be possible to call `onlyOwner` functions anymore. Can only be called by the current owner. NOTE: Renouncing ownership will leave the contract without an owner, thereby removing any functionality that is only available to the owner."
					},
					"totalSupply()": {
						"details": "Returns the amount of tokens in existence."
					},
					"transfer(address,uint256)": {
						"details": "Moves `amount` tokens from the caller's account to `recipient`. Returns a boolean value indicating whether the operation succeeded. Emits a {Transfer} event."
					},
					"transferFrom(address,address,uint256)": {
						"details": "Moves `amount` tokens from `sender` to `recipient` using the allowance mechanism. `amount` is then deducted from the caller's allowance. Returns a boolean value indicating whether the operation succeeded. Emits a {Transfer} event."
					},
					"transferOwnership(address)": {
						"details": "Transfers ownership of the contract to a new account (`newOwner`). Can only be called by the current owner."
					}
				},
				"version": 1
			},
			"evm": {
				"assembly": "    /* \"contracts/MonsterToken.sol\":15606:25867  contract MonsterToken is Context, IERC20, Ownable {\r... */\n  mstore(0x40, 0x80)\n    /* \"contracts/MonsterToken.sol\":16085:16106  10000 * 10**6 * 10**9 */\n  0x8ac7230489e80000\n    /* \"contracts/MonsterToken.sol\":16041:16042  0 */\n  0x00\n    /* \"contracts/MonsterToken.sol\":16032:16043  ~uint256(0) */\n  not\n    /* \"contracts/MonsterToken.sol\":16147:16160  MAX % _tTotal */\n  dup2\n  tag_1\n  jumpi\n  invalid\ntag_1:\n  mod\n    /* \"contracts/MonsterToken.sol\":16041:16042  0 */\n  0x00\n    /* \"contracts/MonsterToken.sol\":16032:16043  ~uint256(0) */\n  not\n    /* \"contracts/MonsterToken.sol\":16140:16161  MAX - (MAX % _tTotal) */\n  sub\n    /* \"contracts/MonsterToken.sol\":16113:16162  uint256 private _rTotal = (MAX - (MAX % _tTotal)) */\n  0x06\n  sstore\n    /* \"contracts/MonsterToken.sol\":16204:16236  string private _name = 'MONSTER' */\n  mload(0x40)\n  dup1\n  0x40\n  add\n  0x40\n  mstore\n  dup1\n  0x07\n  dup2\n  mstore\n  0x20\n  add\n  0x4d4f4e5354455200000000000000000000000000000000000000000000000000\n  dup2\n  mstore\n  pop\n  0x08\n  swap1\n  dup1\n  mload\n  swap1\n  0x20\n  add\n  swap1\n  tag_2\n  swap3\n  swap2\n  swap1\n  tag_3\n  jump\t// in\ntag_2:\n  pop\n    /* \"contracts/MonsterToken.sol\":16243:16273  string private _symbol = 'MST' */\n  mload(0x40)\n  dup1\n  0x40\n  add\n  0x40\n  mstore\n  dup1\n  0x03\n  dup2\n  mstore\n  0x20\n  add\n  0x4d53540000000000000000000000000000000000000000000000000000000000\n  dup2\n  mstore\n  pop\n  0x09\n  swap1\n  dup1\n  mload\n  swap1\n  0x20\n  add\n  swap1\n  tag_4\n  swap3\n  swap2\n  swap1\n  tag_3\n  jump\t// in\ntag_4:\n  pop\n    /* \"contracts/MonsterToken.sol\":16306:16307  9 */\n  0x09\n    /* \"contracts/MonsterToken.sol\":16280:16307  uint8 private _decimals = 9 */\n  0x0a\n  exp(0x0100, 0x00)\n  dup2\n  sload\n  dup2\n  0xff\n  mul\n  not\n  and\n  swap1\n  dup4\n  0xff\n  and\n  mul\n  or\n  swap1\n  sstore\n  pop\n    /* \"contracts/MonsterToken.sol\":16316:16447  constructor () public {\r... */\n  callvalue\n  dup1\n  iszero\n  tag_5\n  jumpi\n  0x00\n  dup1\n  revert\ntag_5:\n  pop\n    /* \"contracts/MonsterToken.sol\":14197:14214  address msgSender */\n  0x00\n    /* \"contracts/MonsterToken.sol\":14217:14229  _msgSender() */\n  tag_9\n    /* \"contracts/MonsterToken.sol\":14217:14227  _msgSender */\n  shl(0x20, tag_10)\n    /* \"contracts/MonsterToken.sol\":14217:14229  _msgSender() */\n  0x20\n  shr\n  jump\t// in\ntag_9:\n    /* \"contracts/MonsterToken.sol\":14197:14229  address msgSender = _msgSender() */\n  swap1\n  pop\n    /* \"contracts/MonsterToken.sol\":14249:14258  msgSender */\n  dup1\n    /* \"contracts/MonsterToken.sol\":14240:14246  _owner */\n  0x00\n  dup1\n    /* \"contracts/MonsterToken.sol\":14240:14258  _owner = msgSender */\n  0x0100\n  exp\n  dup2\n  sload\n  dup2\n  0xffffffffffffffffffffffffffffffffffffffff\n  mul\n  not\n  and\n  swap1\n  dup4\n  0xffffffffffffffffffffffffffffffffffffffff\n  and\n  mul\n  or\n  swap1\n  sstore\n  pop\n    /* \"contracts/MonsterToken.sol\":14307:14316  msgSender */\n  dup1\n    /* \"contracts/MonsterToken.sol\":14274:14317  OwnershipTransferred(address(0), msgSender) */\n  0xffffffffffffffffffffffffffffffffffffffff\n  and\n    /* \"contracts/MonsterToken.sol\":14303:14304  0 */\n  0x00\n    /* \"contracts/MonsterToken.sol\":14274:14317  OwnershipTransferred(address(0), msgSender) */\n  0xffffffffffffffffffffffffffffffffffffffff\n  and\n  0x8be0079c531659141344cd1fd0a4f28419497f9722a3daafe3b4186f6b6457e0\n  mload(0x40)\n  mload(0x40)\n  dup1\n  swap2\n  sub\n  swap1\n  log3\n    /* \"contracts/MonsterToken.sol\":14162:14325  constructor () internal {\r... */\n  pop\n    /* \"contracts/MonsterToken.sol\":16373:16380  _rTotal */\n  sload(0x06)\n    /* \"contracts/MonsterToken.sol\":16349:16356  _rOwned */\n  0x01\n    /* \"contracts/MonsterToken.sol\":16349:16370  _rOwned[_msgSender()] */\n  0x00\n    /* \"contracts/MonsterToken.sol\":16357:16369  _msgSender() */\n  tag_12\n    /* \"contracts/MonsterToken.sol\":16357:16367  _msgSender */\n  shl(0x20, tag_10)\n    /* \"contracts/MonsterToken.sol\":16357:16369  _msgSender() */\n  0x20\n  shr\n  jump\t// in\ntag_12:\n    /* \"contracts/MonsterToken.sol\":16349:16370  _rOwned[_msgSender()] */\n  0xffffffffffffffffffffffffffffffffffffffff\n  and\n  0xffffffffffffffffffffffffffffffffffffffff\n  and\n  dup2\n  mstore\n  0x20\n  add\n  swap1\n  dup2\n  mstore\n  0x20\n  add\n  0x00\n  keccak256\n    /* \"contracts/MonsterToken.sol\":16349:16380  _rOwned[_msgSender()] = _rTotal */\n  dup2\n  swap1\n  sstore\n  pop\n    /* \"contracts/MonsterToken.sol\":16417:16429  _msgSender() */\n  tag_13\n    /* \"contracts/MonsterToken.sol\":16417:16427  _msgSender */\n  shl(0x20, tag_10)\n    /* \"contracts/MonsterToken.sol\":16417:16429  _msgSender() */\n  0x20\n  shr\n  jump\t// in\ntag_13:\n    /* \"contracts/MonsterToken.sol\":16396:16439  Transfer(address(0), _msgSender(), _tTotal) */\n  0xffffffffffffffffffffffffffffffffffffffff\n  and\n    /* \"contracts/MonsterToken.sol\":16413:16414  0 */\n  0x00\n    /* \"contracts/MonsterToken.sol\":16396:16439  Transfer(address(0), _msgSender(), _tTotal) */\n  0xffffffffffffffffffffffffffffffffffffffff\n  and\n  0xddf252ad1be2c89b69c2b068fc378daa952ba7f163c4a11628f55a4df523b3ef\n    /* \"contracts/MonsterToken.sol\":16085:16106  10000 * 10**6 * 10**9 */\n  0x8ac7230489e80000\n    /* \"contracts/MonsterToken.sol\":16396:16439  Transfer(address(0), _msgSender(), _tTotal) */\n  mload(0x40)\n  dup1\n  dup3\n  dup2\n  mstore\n  0x20\n  add\n  swap2\n  pop\n  pop\n  mload(0x40)\n  dup1\n  swap2\n  sub\n  swap1\n  log3\n    /* \"contracts/MonsterToken.sol\":15606:25867  contract MonsterToken is Context, IERC20, Ownable {\r... */\n  jump(tag_14)\n    /* \"contracts/MonsterToken.sol\":101:207  function _msgSender() internal view virtual returns (address payable) {\r... */\ntag_10:\n    /* \"contracts/MonsterToken.sol\":154:169  address payable */\n  0x00\n    /* \"contracts/MonsterToken.sol\":189:199  msg.sender */\n  caller\n    /* \"contracts/MonsterToken.sol\":182:199  return msg.sender */\n  swap1\n  pop\n    /* \"contracts/MonsterToken.sol\":101:207  function _msgSender() internal view virtual returns (address payable) {\r... */\n  swap1\n  jump\t// out\n    /* \"contracts/MonsterToken.sol\":15606:25867  contract MonsterToken is Context, IERC20, Ownable {\r... */\ntag_3:\n  dup3\n  dup1\n  sload\n  0x01\n  dup2\n  0x01\n  and\n  iszero\n  0x0100\n  mul\n  sub\n  and\n  0x02\n  swap1\n  div\n  swap1\n  0x00\n  mstore\n  keccak256(0x00, 0x20)\n  swap1\n  0x1f\n  add\n  0x20\n  swap1\n  div\n  dup2\n  add\n  swap3\n  dup3\n  0x1f\n  lt\n  tag_17\n  jumpi\n  dup1\n  mload\n  not(0xff)\n  and\n  dup4\n  dup1\n  add\n  or\n  dup6\n  sstore\n  jump(tag_16)\ntag_17:\n  dup3\n  dup1\n  add\n  0x01\n  add\n  dup6\n  sstore\n  dup3\n  iszero\n  tag_16\n  jumpi\n  swap2\n  dup3\n  add\ntag_18:\n  dup3\n  dup2\n  gt\n  iszero\n  tag_19\n  jumpi\n  dup3\n  mload\n  dup3\n  sstore\n  swap2\n  0x20\n  add\n  swap2\n  swap1\n  0x01\n  add\n  swap1\n  jump(tag_18)\ntag_19:\ntag_16:\n  pop\n  swap1\n  pop\n  tag_20\n  swap2\n  swap1\n  tag_21\n  jump\t// in\ntag_20:\n  pop\n  swap1\n  jump\t// out\ntag_21:\ntag_22:\n  dup1\n  dup3\n  gt\n  iszero\n  tag_23\n  jumpi\n  0x00\n  dup2\n  0x00\n  swap1\n  sstore\n  pop\n  0x01\n  add\n  jump(tag_22)\ntag_23:\n  pop\n  swap1\n  jump\t// out\ntag_14:\n  dataSize(sub_0)\n  dup1\n  dataOffset(sub_0)\n  0x00\n  codecopy\n  0x00\n  return\nstop\n\nsub_0: assembly {\n        /* \"contracts/MonsterToken.sol\":15606:25867  contract MonsterToken is Context, IERC20, Ownable {\r... */\n      mstore(0x40, 0x80)\n      callvalue\n      dup1\n      iszero\n      tag_1\n      jumpi\n      0x00\n      dup1\n      revert\n    tag_1:\n      pop\n      jumpi(tag_2, lt(calldatasize, 0x04))\n      shr(0xe0, calldataload(0x00))\n      dup1\n      0x70a08231\n      gt\n      tag_24\n      jumpi\n      dup1\n      0xa9059cbb\n      gt\n      tag_25\n      jumpi\n      dup1\n      0xa9059cbb\n      eq\n      tag_18\n      jumpi\n      dup1\n      0xcba0e996\n      eq\n      tag_19\n      jumpi\n      dup1\n      0xdd62ed3e\n      eq\n      tag_20\n      jumpi\n      dup1\n      0xf2cc0c18\n      eq\n      tag_21\n      jumpi\n      dup1\n      0xf2fde38b\n      eq\n      tag_22\n      jumpi\n      dup1\n      0xf84354f1\n      eq\n      tag_23\n      jumpi\n      jump(tag_2)\n    tag_25:\n      dup1\n      0x70a08231\n      eq\n      tag_13\n      jumpi\n      dup1\n      0x715018a6\n      eq\n      tag_14\n      jumpi\n      dup1\n      0x8da5cb5b\n      eq\n      tag_15\n      jumpi\n      dup1\n      0x95d89b41\n      eq\n      tag_16\n      jumpi\n      dup1\n      0xa457c2d7\n      eq\n      tag_17\n      jumpi\n      jump(tag_2)\n    tag_24:\n      dup1\n      0x23b872dd\n      gt\n      tag_26\n      jumpi\n      dup1\n      0x23b872dd\n      eq\n      tag_8\n      jumpi\n      dup1\n      0x2d838119\n      eq\n      tag_9\n      jumpi\n      dup1\n      0x313ce567\n      eq\n      tag_10\n      jumpi\n      dup1\n      0x39509351\n      eq\n      tag_11\n      jumpi\n      dup1\n      0x4549b039\n      eq\n      tag_12\n      jumpi\n      jump(tag_2)\n    tag_26:\n      dup1\n      0x053ab182\n      eq\n      tag_3\n      jumpi\n      dup1\n      0x06fdde03\n      eq\n      tag_4\n      jumpi\n      dup1\n      0x095ea7b3\n      eq\n      tag_5\n      jumpi\n      dup1\n      0x13114a9d\n      eq\n      tag_6\n      jumpi\n      dup1\n      0x18160ddd\n      eq\n      tag_7\n      jumpi\n    tag_2:\n      0x00\n      dup1\n      revert\n        /* \"contracts/MonsterToken.sol\":18674:19050  function reflect(uint256 tAmount) public {\r... */\n    tag_3:\n      tag_27\n      0x04\n      dup1\n      calldatasize\n      sub\n      0x20\n      dup2\n      lt\n      iszero\n      tag_28\n      jumpi\n      0x00\n      dup1\n      revert\n    tag_28:\n      dup2\n      add\n      swap1\n      dup1\n      dup1\n      calldataload\n      swap1\n      0x20\n      add\n      swap1\n      swap3\n      swap2\n      swap1\n      pop\n      pop\n      pop\n      tag_29\n      jump\t// in\n    tag_27:\n      stop\n        /* \"contracts/MonsterToken.sol\":16455:16538  function name() public view returns (string memory) {\r... */\n    tag_4:\n      tag_30\n      tag_31\n      jump\t// in\n    tag_30:\n      mload(0x40)\n      dup1\n      dup1\n      0x20\n      add\n      dup3\n      dup2\n      sub\n      dup3\n      mstore\n      dup4\n      dup2\n      dup2\n      mload\n      dup2\n      mstore\n      0x20\n      add\n      swap2\n      pop\n      dup1\n      mload\n      swap1\n      0x20\n      add\n      swap1\n      dup1\n      dup4\n      dup4\n      0x00\n    tag_32:\n      dup4\n      dup2\n      lt\n      iszero\n      tag_34\n      jumpi\n      dup1\n      dup3\n      add\n      mload\n      dup2\n      dup5\n      add\n      mstore\n      0x20\n      dup2\n      add\n      swap1\n      pop\n      jump(tag_32)\n    tag_34:\n      pop\n      pop\n      pop\n      pop\n      swap1\n      pop\n      swap1\n      dup2\n      add\n      swap1\n      0x1f\n      and\n      dup1\n      iszero\n      tag_35\n      jumpi\n      dup1\n      dup3\n      sub\n      dup1\n      mload\n      0x01\n      dup4\n      0x20\n      sub\n      0x0100\n      exp\n      sub\n      not\n      and\n      dup2\n      mstore\n      0x20\n      add\n      swap2\n      pop\n    tag_35:\n      pop\n      swap3\n      pop\n      pop\n      pop\n      mload(0x40)\n      dup1\n      swap2\n      sub\n      swap1\n      return\n        /* \"contracts/MonsterToken.sol\":17458:17619  function approve(address spender, uint256 amount) public override returns (bool) {\r... */\n    tag_5:\n      tag_36\n      0x04\n      dup1\n      calldatasize\n      sub\n      0x40\n      dup2\n      lt\n      iszero\n      tag_37\n      jumpi\n      0x00\n      dup1\n      revert\n    tag_37:\n      dup2\n      add\n      swap1\n      dup1\n      dup1\n      calldataload\n      0xffffffffffffffffffffffffffffffffffffffff\n      and\n      swap1\n      0x20\n      add\n      swap1\n      swap3\n      swap2\n      swap1\n      dup1\n      calldataload\n      swap1\n      0x20\n      add\n      swap1\n      swap3\n      swap2\n      swap1\n      pop\n      pop\n      pop\n      tag_38\n      jump\t// in\n    tag_36:\n      mload(0x40)\n      dup1\n      dup3\n      iszero\n      iszero\n      dup2\n      mstore\n      0x20\n      add\n      swap2\n      pop\n      pop\n      mload(0x40)\n      dup1\n      swap2\n      sub\n      swap1\n      return\n        /* \"contracts/MonsterToken.sol\":18569:18666  function totalFees() public view onlyOwner returns (uint256) {\r... */\n    tag_6:\n      tag_39\n      tag_40\n      jump\t// in\n    tag_39:\n      mload(0x40)\n      dup1\n      dup3\n      dup2\n      mstore\n      0x20\n      add\n      swap2\n      pop\n      pop\n      mload(0x40)\n      dup1\n      swap2\n      sub\n      swap1\n      return\n        /* \"contracts/MonsterToken.sol\":16732:16827  function totalSupply() public view override returns (uint256) {\r... */\n    tag_7:\n      tag_41\n      tag_42\n      jump\t// in\n    tag_41:\n      mload(0x40)\n      dup1\n      dup3\n      dup2\n      mstore\n      0x20\n      add\n      swap2\n      pop\n      pop\n      mload(0x40)\n      dup1\n      swap2\n      sub\n      swap1\n      return\n        /* \"contracts/MonsterToken.sol\":17627:17940  function transferFrom(address sender, address recipient, uint256 amount) public override returns (bool) {\r... */\n    tag_8:\n      tag_43\n      0x04\n      dup1\n      calldatasize\n      sub\n      0x60\n      dup2\n      lt\n      iszero\n      tag_44\n      jumpi\n      0x00\n      dup1\n      revert\n    tag_44:\n      dup2\n      add\n      swap1\n      dup1\n      dup1\n      calldataload\n      0xffffffffffffffffffffffffffffffffffffffff\n      and\n      swap1\n      0x20\n      add\n      swap1\n      swap3\n      swap2\n      swap1\n      dup1\n      calldataload\n      0xffffffffffffffffffffffffffffffffffffffff\n      and\n      swap1\n      0x20\n      add\n      swap1\n      swap3\n      swap2\n      swap1\n      dup1\n      calldataload\n      swap1\n      0x20\n      add\n      swap1\n      swap3\n      swap2\n      swap1\n      pop\n      pop\n      pop\n      tag_45\n      jump\t// in\n    tag_43:\n      mload(0x40)\n      dup1\n      dup3\n      iszero\n      iszero\n      dup2\n      mstore\n      0x20\n      add\n      swap2\n      pop\n      pop\n      mload(0x40)\n      dup1\n      swap2\n      sub\n      swap1\n      return\n        /* \"contracts/MonsterToken.sol\":19500:19753  function tokenFromReflection(uint256 rAmount) public view returns(uint256) {\r... */\n    tag_9:\n      tag_46\n      0x04\n      dup1\n      calldatasize\n      sub\n      0x20\n      dup2\n      lt\n      iszero\n      tag_47\n      jumpi\n      0x00\n      dup1\n      revert\n    tag_47:\n      dup2\n      add\n      swap1\n      dup1\n      dup1\n      calldataload\n      swap1\n      0x20\n      add\n      swap1\n      swap3\n      swap2\n      swap1\n      pop\n      pop\n      pop\n      tag_48\n      jump\t// in\n    tag_46:\n      mload(0x40)\n      dup1\n      dup3\n      dup2\n      mstore\n      0x20\n      add\n      swap2\n      pop\n      pop\n      mload(0x40)\n      dup1\n      swap2\n      sub\n      swap1\n      return\n        /* \"contracts/MonsterToken.sol\":16641:16724  function decimals() public view returns (uint8) {\r... */\n    tag_10:\n      tag_49\n      tag_50\n      jump\t// in\n    tag_49:\n      mload(0x40)\n      dup1\n      dup3\n      0xff\n      and\n      dup2\n      mstore\n      0x20\n      add\n      swap2\n      pop\n      pop\n      mload(0x40)\n      dup1\n      swap2\n      sub\n      swap1\n      return\n        /* \"contracts/MonsterToken.sol\":17948:18166  function increaseAllowance(address spender, uint256 addedValue) public virtual returns (bool) {\r... */\n    tag_11:\n      tag_51\n      0x04\n      dup1\n      calldatasize\n      sub\n      0x40\n      dup2\n      lt\n      iszero\n      tag_52\n      jumpi\n      0x00\n      dup1\n      revert\n    tag_52:\n      dup2\n      add\n      swap1\n      dup1\n      dup1\n      calldataload\n      0xffffffffffffffffffffffffffffffffffffffff\n      and\n      swap1\n      0x20\n      add\n      swap1\n      swap3\n      swap2\n      swap1\n      dup1\n      calldataload\n      swap1\n      0x20\n      add\n      swap1\n      swap3\n      swap2\n      swap1\n      pop\n      pop\n      pop\n      tag_53\n      jump\t// in\n    tag_51:\n      mload(0x40)\n      dup1\n      dup3\n      iszero\n      iszero\n      dup2\n      mstore\n      0x20\n      add\n      swap2\n      pop\n      pop\n      mload(0x40)\n      dup1\n      swap2\n      sub\n      swap1\n      return\n        /* \"contracts/MonsterToken.sol\":19058:19492  function reflectionFromToken(uint256 tAmount, bool deductTransferFee) public view returns(uint256) {\r... */\n    tag_12:\n      tag_54\n      0x04\n      dup1\n      calldatasize\n      sub\n      0x40\n      dup2\n      lt\n      iszero\n      tag_55\n      jumpi\n      0x00\n      dup1\n      revert\n    tag_55:\n      dup2\n      add\n      swap1\n      dup1\n      dup1\n      calldataload\n      swap1\n      0x20\n      add\n      swap1\n      swap3\n      swap2\n      swap1\n      dup1\n      calldataload\n      iszero\n      iszero\n      swap1\n      0x20\n      add\n      swap1\n      swap3\n      swap2\n      swap1\n      pop\n      pop\n      pop\n      tag_56\n      jump\t// in\n    tag_54:\n      mload(0x40)\n      dup1\n      dup3\n      dup2\n      mstore\n      0x20\n      add\n      swap2\n      pop\n      pop\n      mload(0x40)\n      dup1\n      swap2\n      sub\n      swap1\n      return\n        /* \"contracts/MonsterToken.sol\":16835:17033  function balanceOf(address account) public view override returns (uint256) {\r... */\n    tag_13:\n      tag_57\n      0x04\n      dup1\n      calldatasize\n      sub\n      0x20\n      dup2\n      lt\n      iszero\n      tag_58\n      jumpi\n      0x00\n      dup1\n      revert\n    tag_58:\n      dup2\n      add\n      swap1\n      dup1\n      dup1\n      calldataload\n      0xffffffffffffffffffffffffffffffffffffffff\n      and\n      swap1\n      0x20\n      add\n      swap1\n      swap3\n      swap2\n      swap1\n      pop\n      pop\n      pop\n      tag_59\n      jump\t// in\n    tag_57:\n      mload(0x40)\n      dup1\n      dup3\n      dup2\n      mstore\n      0x20\n      add\n      swap2\n      pop\n      pop\n      mload(0x40)\n      dup1\n      swap2\n      sub\n      swap1\n      return\n        /* \"contracts/MonsterToken.sol\":15048:15196  function renounceOwnership() public virtual onlyOwner {\r... */\n    tag_14:\n      tag_60\n      tag_61\n      jump\t// in\n    tag_60:\n      stop\n        /* \"contracts/MonsterToken.sol\":14406:14485  function owner() public view returns (address) {\r... */\n    tag_15:\n      tag_62\n      tag_63\n      jump\t// in\n    tag_62:\n      mload(0x40)\n      dup1\n      dup3\n      0xffffffffffffffffffffffffffffffffffffffff\n      and\n      dup2\n      mstore\n      0x20\n      add\n      swap2\n      pop\n      pop\n      mload(0x40)\n      dup1\n      swap2\n      sub\n      swap1\n      return\n        /* \"contracts/MonsterToken.sol\":16546:16633  function symbol() public view returns (string memory) {\r... */\n    tag_16:\n      tag_64\n      tag_65\n      jump\t// in\n    tag_64:\n      mload(0x40)\n      dup1\n      dup1\n      0x20\n      add\n      dup3\n      dup2\n      sub\n      dup3\n      mstore\n      dup4\n      dup2\n      dup2\n      mload\n      dup2\n      mstore\n      0x20\n      add\n      swap2\n      pop\n      dup1\n      mload\n      swap1\n      0x20\n      add\n      swap1\n      dup1\n      dup4\n      dup4\n      0x00\n    tag_66:\n      dup4\n      dup2\n      lt\n      iszero\n      tag_68\n      jumpi\n      dup1\n      dup3\n      add\n      mload\n      dup2\n      dup5\n      add\n      mstore\n      0x20\n      dup2\n      add\n      swap1\n      pop\n      jump(tag_66)\n    tag_68:\n      pop\n      pop\n      pop\n      pop\n      swap1\n      pop\n      swap1\n      dup2\n      add\n      swap1\n      0x1f\n      and\n      dup1\n      iszero\n      tag_69\n      jumpi\n      dup1\n      dup3\n      sub\n      dup1\n      mload\n      0x01\n      dup4\n      0x20\n      sub\n      0x0100\n      exp\n      sub\n      not\n      and\n      dup2\n      mstore\n      0x20\n      add\n      swap2\n      pop\n    tag_69:\n      pop\n      swap3\n      pop\n      pop\n      pop\n      mload(0x40)\n      dup1\n      swap2\n      sub\n      swap1\n      return\n        /* \"contracts/MonsterToken.sol\":18174:18443  function decreaseAllowance(address spender, uint256 subtractedValue) public virtual returns (bool) {\r... */\n    tag_17:\n      tag_70\n      0x04\n      dup1\n      calldatasize\n      sub\n      0x40\n      dup2\n      lt\n      iszero\n      tag_71\n      jumpi\n      0x00\n      dup1\n      revert\n    tag_71:\n      dup2\n      add\n      swap1\n      dup1\n      dup1\n      calldataload\n      0xffffffffffffffffffffffffffffffffffffffff\n      and\n      swap1\n      0x20\n      add\n      swap1\n      swap3\n      swap2\n      swap1\n      dup1\n      calldataload\n      swap1\n      0x20\n      add\n      swap1\n      swap3\n      swap2\n      swap1\n      pop\n      pop\n      pop\n      tag_72\n      jump\t// in\n    tag_70:\n      mload(0x40)\n      dup1\n      dup3\n      iszero\n      iszero\n      dup2\n      mstore\n      0x20\n      add\n      swap2\n      pop\n      pop\n      mload(0x40)\n      dup1\n      swap2\n      sub\n      swap1\n      return\n        /* \"contracts/MonsterToken.sol\":17041:17299  function transfer(address recipient, uint256 amount) public override returns (bool) {\r... */\n    tag_18:\n      tag_73\n      0x04\n      dup1\n      calldatasize\n      sub\n      0x40\n      dup2\n      lt\n      iszero\n      tag_74\n      jumpi\n      0x00\n      dup1\n      revert\n    tag_74:\n      dup2\n      add\n      swap1\n      dup1\n      dup1\n      calldataload\n      0xffffffffffffffffffffffffffffffffffffffff\n      and\n      swap1\n      0x20\n      add\n      swap1\n      swap3\n      swap2\n      swap1\n      dup1\n      calldataload\n      swap1\n      0x20\n      add\n      swap1\n      swap3\n      swap2\n      swap1\n      pop\n      pop\n      pop\n      tag_75\n      jump\t// in\n    tag_73:\n      mload(0x40)\n      dup1\n      dup3\n      iszero\n      iszero\n      dup2\n      mstore\n      0x20\n      add\n      swap2\n      pop\n      pop\n      mload(0x40)\n      dup1\n      swap2\n      sub\n      swap1\n      return\n        /* \"contracts/MonsterToken.sol\":18451:18561  function isExcluded(address account) public view returns (bool) {\r... */\n    tag_19:\n      tag_76\n      0x04\n      dup1\n      calldatasize\n      sub\n      0x20\n      dup2\n      lt\n      iszero\n      tag_77\n      jumpi\n      0x00\n      dup1\n      revert\n    tag_77:\n      dup2\n      add\n      swap1\n      dup1\n      dup1\n      calldataload\n      0xffffffffffffffffffffffffffffffffffffffff\n      and\n      swap1\n      0x20\n      add\n      swap1\n      swap3\n      swap2\n      swap1\n      pop\n      pop\n      pop\n      tag_78\n      jump\t// in\n    tag_76:\n      mload(0x40)\n      dup1\n      dup3\n      iszero\n      iszero\n      dup2\n      mstore\n      0x20\n      add\n      swap2\n      pop\n      pop\n      mload(0x40)\n      dup1\n      swap2\n      sub\n      swap1\n      return\n        /* \"contracts/MonsterToken.sol\":17307:17450  function allowance(address owner, address spender) public view override returns (uint256) {\r... */\n    tag_20:\n      tag_79\n      0x04\n      dup1\n      calldatasize\n      sub\n      0x40\n      dup2\n      lt\n      iszero\n      tag_80\n      jumpi\n      0x00\n      dup1\n      revert\n    tag_80:\n      dup2\n      add\n      swap1\n      dup1\n      dup1\n      calldataload\n      0xffffffffffffffffffffffffffffffffffffffff\n      and\n      swap1\n      0x20\n      add\n      swap1\n      swap3\n      swap2\n      swap1\n      dup1\n      calldataload\n      0xffffffffffffffffffffffffffffffffffffffff\n      and\n      swap1\n      0x20\n      add\n      swap1\n      swap3\n      swap2\n      swap1\n      pop\n      pop\n      pop\n      tag_81\n      jump\t// in\n    tag_79:\n      mload(0x40)\n      dup1\n      dup3\n      dup2\n      mstore\n      0x20\n      add\n      swap2\n      pop\n      pop\n      mload(0x40)\n      dup1\n      swap2\n      sub\n      swap1\n      return\n        /* \"contracts/MonsterToken.sol\":19761:20093  function excludeAccount(address account) external onlyOwner() {\r... */\n    tag_21:\n      tag_82\n      0x04\n      dup1\n      calldatasize\n      sub\n      0x20\n      dup2\n      lt\n      iszero\n      tag_83\n      jumpi\n      0x00\n      dup1\n      revert\n    tag_83:\n      dup2\n      add\n      swap1\n      dup1\n      dup1\n      calldataload\n      0xffffffffffffffffffffffffffffffffffffffff\n      and\n      swap1\n      0x20\n      add\n      swap1\n      swap3\n      swap2\n      swap1\n      pop\n      pop\n      pop\n      tag_84\n      jump\t// in\n    tag_82:\n      stop\n        /* \"contracts/MonsterToken.sol\":15351:15595  function transferOwnership(address newOwner) public virtual onlyOwner {\r... */\n    tag_22:\n      tag_85\n      0x04\n      dup1\n      calldatasize\n      sub\n      0x20\n      dup2\n      lt\n      iszero\n      tag_86\n      jumpi\n      0x00\n      dup1\n      revert\n    tag_86:\n      dup2\n      add\n      swap1\n      dup1\n      dup1\n      calldataload\n      0xffffffffffffffffffffffffffffffffffffffff\n      and\n      swap1\n      0x20\n      add\n      swap1\n      swap3\n      swap2\n      swap1\n      pop\n      pop\n      pop\n      tag_87\n      jump\t// in\n    tag_85:\n      stop\n        /* \"contracts/MonsterToken.sol\":20101:20579  function includeAccount(address account) external onlyOwner() {\r... */\n    tag_23:\n      tag_88\n      0x04\n      dup1\n      calldatasize\n      sub\n      0x20\n      dup2\n      lt\n      iszero\n      tag_89\n      jumpi\n      0x00\n      dup1\n      revert\n    tag_89:\n      dup2\n      add\n      swap1\n      dup1\n      dup1\n      calldataload\n      0xffffffffffffffffffffffffffffffffffffffff\n      and\n      swap1\n      0x20\n      add\n      swap1\n      swap3\n      swap2\n      swap1\n      pop\n      pop\n      pop\n      tag_90\n      jump\t// in\n    tag_88:\n      stop\n        /* \"contracts/MonsterToken.sol\":18674:19050  function reflect(uint256 tAmount) public {\r... */\n    tag_29:\n        /* \"contracts/MonsterToken.sol\":18726:18740  address sender */\n      0x00\n        /* \"contracts/MonsterToken.sol\":18743:18755  _msgSender() */\n      tag_92\n        /* \"contracts/MonsterToken.sol\":18743:18753  _msgSender */\n      tag_93\n        /* \"contracts/MonsterToken.sol\":18743:18755  _msgSender() */\n      jump\t// in\n    tag_92:\n        /* \"contracts/MonsterToken.sol\":18726:18755  address sender = _msgSender() */\n      swap1\n      pop\n        /* \"contracts/MonsterToken.sol\":18775:18786  _isExcluded */\n      0x04\n        /* \"contracts/MonsterToken.sol\":18775:18794  _isExcluded[sender] */\n      0x00\n        /* \"contracts/MonsterToken.sol\":18787:18793  sender */\n      dup3\n        /* \"contracts/MonsterToken.sol\":18775:18794  _isExcluded[sender] */\n      0xffffffffffffffffffffffffffffffffffffffff\n      and\n      0xffffffffffffffffffffffffffffffffffffffff\n      and\n      dup2\n      mstore\n      0x20\n      add\n      swap1\n      dup2\n      mstore\n      0x20\n      add\n      0x00\n      keccak256\n      0x00\n      swap1\n      sload\n      swap1\n      0x0100\n      exp\n      swap1\n      div\n      0xff\n      and\n        /* \"contracts/MonsterToken.sol\":18774:18794  !_isExcluded[sender] */\n      iszero\n        /* \"contracts/MonsterToken.sol\":18766:18843  require(!_isExcluded[sender], \"Excluded addresses cannot call this function\") */\n      tag_94\n      jumpi\n      mload(0x40)\n      0x08c379a000000000000000000000000000000000000000000000000000000000\n      dup2\n      mstore\n      0x04\n      add\n      dup1\n      dup1\n      0x20\n      add\n      dup3\n      dup2\n      sub\n      dup3\n      mstore\n      0x2c\n      dup2\n      mstore\n      0x20\n      add\n      dup1\n      data_ecefcaf5fbcf9ca6dcdb02298ba1da96f4ead317b0a4779917ecb2e5e7dc3ac4\n      0x2c\n      swap2\n      codecopy\n      0x40\n      add\n      swap2\n      pop\n      pop\n      mload(0x40)\n      dup1\n      swap2\n      sub\n      swap1\n      revert\n    tag_94:\n        /* \"contracts/MonsterToken.sol\":18855:18870  uint256 rAmount */\n      0x00\n        /* \"contracts/MonsterToken.sol\":18878:18897  _getValues(tAmount) */\n      tag_95\n        /* \"contracts/MonsterToken.sol\":18889:18896  tAmount */\n      dup4\n        /* \"contracts/MonsterToken.sol\":18878:18888  _getValues */\n      tag_96\n        /* \"contracts/MonsterToken.sol\":18878:18897  _getValues(tAmount) */\n      jump\t// in\n    tag_95:\n        /* \"contracts/MonsterToken.sol\":18854:18897  (uint256 rAmount,,,,) = _getValues(tAmount) */\n      pop\n      pop\n      pop\n      pop\n      swap1\n      pop\n        /* \"contracts/MonsterToken.sol\":18926:18954  _rOwned[sender].sub(rAmount) */\n      tag_97\n        /* \"contracts/MonsterToken.sol\":18946:18953  rAmount */\n      dup2\n        /* \"contracts/MonsterToken.sol\":18926:18933  _rOwned */\n      0x01\n        /* \"contracts/MonsterToken.sol\":18926:18941  _rOwned[sender] */\n      0x00\n        /* \"contracts/MonsterToken.sol\":18934:18940  sender */\n      dup6\n        /* \"contracts/MonsterToken.sol\":18926:18941  _rOwned[sender] */\n      0xffffffffffffffffffffffffffffffffffffffff\n      and\n      0xffffffffffffffffffffffffffffffffffffffff\n      and\n      dup2\n      mstore\n      0x20\n      add\n      swap1\n      dup2\n      mstore\n      0x20\n      add\n      0x00\n      keccak256\n      sload\n        /* \"contracts/MonsterToken.sol\":18926:18945  _rOwned[sender].sub */\n      tag_98\n      swap1\n        /* \"contracts/MonsterToken.sol\":18926:18954  _rOwned[sender].sub(rAmount) */\n      swap2\n      swap1\n      0xffffffff\n      and\n      jump\t// in\n    tag_97:\n        /* \"contracts/MonsterToken.sol\":18908:18915  _rOwned */\n      0x01\n        /* \"contracts/MonsterToken.sol\":18908:18923  _rOwned[sender] */\n      0x00\n        /* \"contracts/MonsterToken.sol\":18916:18922  sender */\n      dup5\n        /* \"contracts/MonsterToken.sol\":18908:18923  _rOwned[sender] */\n      0xffffffffffffffffffffffffffffffffffffffff\n      and\n      0xffffffffffffffffffffffffffffffffffffffff\n      and\n      dup2\n      mstore\n      0x20\n      add\n      swap1\n      dup2\n      mstore\n      0x20\n      add\n      0x00\n      keccak256\n        /* \"contracts/MonsterToken.sol\":18908:18954  _rOwned[sender] = _rOwned[sender].sub(rAmount) */\n      dup2\n      swap1\n      sstore\n      pop\n        /* \"contracts/MonsterToken.sol\":18975:18995  _rTotal.sub(rAmount) */\n      tag_99\n        /* \"contracts/MonsterToken.sol\":18987:18994  rAmount */\n      dup2\n        /* \"contracts/MonsterToken.sol\":18975:18982  _rTotal */\n      sload(0x06)\n        /* \"contracts/MonsterToken.sol\":18975:18986  _rTotal.sub */\n      tag_98\n      swap1\n        /* \"contracts/MonsterToken.sol\":18975:18995  _rTotal.sub(rAmount) */\n      swap2\n      swap1\n      0xffffffff\n      and\n      jump\t// in\n    tag_99:\n        /* \"contracts/MonsterToken.sol\":18965:18972  _rTotal */\n      0x06\n        /* \"contracts/MonsterToken.sol\":18965:18995  _rTotal = _rTotal.sub(rAmount) */\n      dup2\n      swap1\n      sstore\n      pop\n        /* \"contracts/MonsterToken.sol\":19019:19042  _tFeeTotal.add(tAmount) */\n      tag_100\n        /* \"contracts/MonsterToken.sol\":19034:19041  tAmount */\n      dup4\n        /* \"contracts/MonsterToken.sol\":19019:19029  _tFeeTotal */\n      sload(0x07)\n        /* \"contracts/MonsterToken.sol\":19019:19033  _tFeeTotal.add */\n      tag_101\n      swap1\n        /* \"contracts/MonsterToken.sol\":19019:19042  _tFeeTotal.add(tAmount) */\n      swap2\n      swap1\n      0xffffffff\n      and\n      jump\t// in\n    tag_100:\n        /* \"contracts/MonsterToken.sol\":19006:19016  _tFeeTotal */\n      0x07\n        /* \"contracts/MonsterToken.sol\":19006:19042  _tFeeTotal = _tFeeTotal.add(tAmount) */\n      dup2\n      swap1\n      sstore\n      pop\n        /* \"contracts/MonsterToken.sol\":18674:19050  function reflect(uint256 tAmount) public {\r... */\n      pop\n      pop\n      pop\n      jump\t// out\n        /* \"contracts/MonsterToken.sol\":16455:16538  function name() public view returns (string memory) {\r... */\n    tag_31:\n        /* \"contracts/MonsterToken.sol\":16492:16505  string memory */\n      0x60\n        /* \"contracts/MonsterToken.sol\":16525:16530  _name */\n      0x08\n        /* \"contracts/MonsterToken.sol\":16518:16530  return _name */\n      dup1\n      sload\n      0x01\n      dup2\n      0x01\n      and\n      iszero\n      0x0100\n      mul\n      sub\n      and\n      0x02\n      swap1\n      div\n      dup1\n      0x1f\n      add\n      0x20\n      dup1\n      swap2\n      div\n      mul\n      0x20\n      add\n      mload(0x40)\n      swap1\n      dup2\n      add\n      0x40\n      mstore\n      dup1\n      swap3\n      swap2\n      swap1\n      dup2\n      dup2\n      mstore\n      0x20\n      add\n      dup3\n      dup1\n      sload\n      0x01\n      dup2\n      0x01\n      and\n      iszero\n      0x0100\n      mul\n      sub\n      and\n      0x02\n      swap1\n      div\n      dup1\n      iszero\n      tag_103\n      jumpi\n      dup1\n      0x1f\n      lt\n      tag_104\n      jumpi\n      0x0100\n      dup1\n      dup4\n      sload\n      div\n      mul\n      dup4\n      mstore\n      swap2\n      0x20\n      add\n      swap2\n      jump(tag_103)\n    tag_104:\n      dup3\n      add\n      swap2\n      swap1\n      0x00\n      mstore\n      keccak256(0x00, 0x20)\n      swap1\n    tag_105:\n      dup2\n      sload\n      dup2\n      mstore\n      swap1\n      0x01\n      add\n      swap1\n      0x20\n      add\n      dup1\n      dup4\n      gt\n      tag_105\n      jumpi\n      dup3\n      swap1\n      sub\n      0x1f\n      and\n      dup3\n      add\n      swap2\n    tag_103:\n      pop\n      pop\n      pop\n      pop\n      pop\n      swap1\n      pop\n        /* \"contracts/MonsterToken.sol\":16455:16538  function name() public view returns (string memory) {\r... */\n      swap1\n      jump\t// out\n        /* \"contracts/MonsterToken.sol\":17458:17619  function approve(address spender, uint256 amount) public override returns (bool) {\r... */\n    tag_38:\n        /* \"contracts/MonsterToken.sol\":17533:17537  bool */\n      0x00\n        /* \"contracts/MonsterToken.sol\":17550:17589  _approve(_msgSender(), spender, amount) */\n      tag_107\n        /* \"contracts/MonsterToken.sol\":17559:17571  _msgSender() */\n      tag_108\n        /* \"contracts/MonsterToken.sol\":17559:17569  _msgSender */\n      tag_93\n        /* \"contracts/MonsterToken.sol\":17559:17571  _msgSender() */\n      jump\t// in\n    tag_108:\n        /* \"contracts/MonsterToken.sol\":17573:17580  spender */\n      dup5\n        /* \"contracts/MonsterToken.sol\":17582:17588  amount */\n      dup5\n        /* \"contracts/MonsterToken.sol\":17550:17558  _approve */\n      tag_109\n        /* \"contracts/MonsterToken.sol\":17550:17589  _approve(_msgSender(), spender, amount) */\n      jump\t// in\n    tag_107:\n        /* \"contracts/MonsterToken.sol\":17607:17611  true */\n      0x01\n        /* \"contracts/MonsterToken.sol\":17600:17611  return true */\n      swap1\n      pop\n        /* \"contracts/MonsterToken.sol\":17458:17619  function approve(address spender, uint256 amount) public override returns (bool) {\r... */\n      swap3\n      swap2\n      pop\n      pop\n      jump\t// out\n        /* \"contracts/MonsterToken.sol\":18569:18666  function totalFees() public view onlyOwner returns (uint256) {\r... */\n    tag_40:\n        /* \"contracts/MonsterToken.sol\":18621:18628  uint256 */\n      0x00\n        /* \"contracts/MonsterToken.sol\":14628:14640  _msgSender() */\n      tag_111\n        /* \"contracts/MonsterToken.sol\":14628:14638  _msgSender */\n      tag_93\n        /* \"contracts/MonsterToken.sol\":14628:14640  _msgSender() */\n      jump\t// in\n    tag_111:\n        /* \"contracts/MonsterToken.sol\":14618:14640  _owner == _msgSender() */\n      0xffffffffffffffffffffffffffffffffffffffff\n      and\n        /* \"contracts/MonsterToken.sol\":14618:14624  _owner */\n      0x00\n      dup1\n      sload\n      swap1\n      0x0100\n      exp\n      swap1\n      div\n      0xffffffffffffffffffffffffffffffffffffffff\n      and\n        /* \"contracts/MonsterToken.sol\":14618:14640  _owner == _msgSender() */\n      0xffffffffffffffffffffffffffffffffffffffff\n      and\n      eq\n        /* \"contracts/MonsterToken.sol\":14610:14677  require(_owner == _msgSender(), \"Ownable: caller is not the owner\") */\n      tag_112\n      jumpi\n      mload(0x40)\n      0x08c379a000000000000000000000000000000000000000000000000000000000\n      dup2\n      mstore\n      0x04\n      add\n      dup1\n      dup1\n      0x20\n      add\n      dup3\n      dup2\n      sub\n      dup3\n      mstore\n      0x20\n      dup2\n      mstore\n      0x20\n      add\n      dup1\n      0x4f776e61626c653a2063616c6c6572206973206e6f7420746865206f776e6572\n      dup2\n      mstore\n      pop\n      0x20\n      add\n      swap2\n      pop\n      pop\n      mload(0x40)\n      dup1\n      swap2\n      sub\n      swap1\n      revert\n    tag_112:\n        /* \"contracts/MonsterToken.sol\":18648:18658  _tFeeTotal */\n      sload(0x07)\n        /* \"contracts/MonsterToken.sol\":18641:18658  return _tFeeTotal */\n      swap1\n      pop\n        /* \"contracts/MonsterToken.sol\":18569:18666  function totalFees() public view onlyOwner returns (uint256) {\r... */\n      swap1\n      jump\t// out\n        /* \"contracts/MonsterToken.sol\":16732:16827  function totalSupply() public view override returns (uint256) {\r... */\n    tag_42:\n        /* \"contracts/MonsterToken.sol\":16785:16792  uint256 */\n      0x00\n        /* \"contracts/MonsterToken.sol\":16085:16106  10000 * 10**6 * 10**9 */\n      0x8ac7230489e80000\n        /* \"contracts/MonsterToken.sol\":16805:16819  return _tTotal */\n      swap1\n      pop\n        /* \"contracts/MonsterToken.sol\":16732:16827  function totalSupply() public view override returns (uint256) {\r... */\n      swap1\n      jump\t// out\n        /* \"contracts/MonsterToken.sol\":17627:17940  function transferFrom(address sender, address recipient, uint256 amount) public override returns (bool) {\r... */\n    tag_45:\n        /* \"contracts/MonsterToken.sol\":17725:17729  bool */\n      0x00\n        /* \"contracts/MonsterToken.sol\":17742:17778  _transfer(sender, recipient, amount) */\n      tag_116\n        /* \"contracts/MonsterToken.sol\":17752:17758  sender */\n      dup5\n        /* \"contracts/MonsterToken.sol\":17760:17769  recipient */\n      dup5\n        /* \"contracts/MonsterToken.sol\":17771:17777  amount */\n      dup5\n        /* \"contracts/MonsterToken.sol\":17742:17751  _transfer */\n      tag_117\n        /* \"contracts/MonsterToken.sol\":17742:17778  _transfer(sender, recipient, amount) */\n      jump\t// in\n    tag_116:\n        /* \"contracts/MonsterToken.sol\":17789:17910  _approve(sender, _msgSender(), _allowances[sender][_msgSender()].sub(amount, \"ERC20: transfer amount exceeds allowance\")) */\n      tag_118\n        /* \"contracts/MonsterToken.sol\":17798:17804  sender */\n      dup5\n        /* \"contracts/MonsterToken.sol\":17806:17818  _msgSender() */\n      tag_119\n        /* \"contracts/MonsterToken.sol\":17806:17816  _msgSender */\n      tag_93\n        /* \"contracts/MonsterToken.sol\":17806:17818  _msgSender() */\n      jump\t// in\n    tag_119:\n        /* \"contracts/MonsterToken.sol\":17820:17909  _allowances[sender][_msgSender()].sub(amount, \"ERC20: transfer amount exceeds allowance\") */\n      tag_120\n        /* \"contracts/MonsterToken.sol\":17858:17864  amount */\n      dup6\n        /* \"contracts/MonsterToken.sol\":17820:17909  _allowances[sender][_msgSender()].sub(amount, \"ERC20: transfer amount exceeds allowance\") */\n      mload(0x40)\n      dup1\n      0x60\n      add\n      0x40\n      mstore\n      dup1\n      0x28\n      dup2\n      mstore\n      0x20\n      add\n      data_974d1b4421da69cc60b481194f0dad36a5bb4e23da810da7a7fb30cdba178330\n      0x28\n      swap2\n      codecopy\n        /* \"contracts/MonsterToken.sol\":17820:17831  _allowances */\n      0x03\n        /* \"contracts/MonsterToken.sol\":17820:17839  _allowances[sender] */\n      0x00\n        /* \"contracts/MonsterToken.sol\":17832:17838  sender */\n      dup12\n        /* \"contracts/MonsterToken.sol\":17820:17839  _allowances[sender] */\n      0xffffffffffffffffffffffffffffffffffffffff\n      and\n      0xffffffffffffffffffffffffffffffffffffffff\n      and\n      dup2\n      mstore\n      0x20\n      add\n      swap1\n      dup2\n      mstore\n      0x20\n      add\n      0x00\n      keccak256\n        /* \"contracts/MonsterToken.sol\":17820:17853  _allowances[sender][_msgSender()] */\n      0x00\n        /* \"contracts/MonsterToken.sol\":17840:17852  _msgSender() */\n      tag_121\n        /* \"contracts/MonsterToken.sol\":17840:17850  _msgSender */\n      tag_93\n        /* \"contracts/MonsterToken.sol\":17840:17852  _msgSender() */\n      jump\t// in\n    tag_121:\n        /* \"contracts/MonsterToken.sol\":17820:17853  _allowances[sender][_msgSender()] */\n      0xffffffffffffffffffffffffffffffffffffffff\n      and\n      0xffffffffffffffffffffffffffffffffffffffff\n      and\n      dup2\n      mstore\n      0x20\n      add\n      swap1\n      dup2\n      mstore\n      0x20\n      add\n      0x00\n      keccak256\n      sload\n        /* \"contracts/MonsterToken.sol\":17820:17857  _allowances[sender][_msgSender()].sub */\n      tag_122\n      swap1\n        /* \"contracts/MonsterToken.sol\":17820:17909  _allowances[sender][_msgSender()].sub(amount, \"ERC20: transfer amount exceeds allowance\") */\n      swap3\n      swap2\n      swap1\n      0xffffffff\n      and\n      jump\t// in\n    tag_120:\n        /* \"contracts/MonsterToken.sol\":17789:17797  _approve */\n      tag_109\n        /* \"contracts/MonsterToken.sol\":17789:17910  _approve(sender, _msgSender(), _allowances[sender][_msgSender()].sub(amount, \"ERC20: transfer amount exceeds allowance\")) */\n      jump\t// in\n    tag_118:\n        /* \"contracts/MonsterToken.sol\":17928:17932  true */\n      0x01\n        /* \"contracts/MonsterToken.sol\":17921:17932  return true */\n      swap1\n      pop\n        /* \"contracts/MonsterToken.sol\":17627:17940  function transferFrom(address sender, address recipient, uint256 amount) public override returns (bool) {\r... */\n      swap4\n      swap3\n      pop\n      pop\n      pop\n      jump\t// out\n        /* \"contracts/MonsterToken.sol\":19500:19753  function tokenFromReflection(uint256 rAmount) public view returns(uint256) {\r... */\n    tag_48:\n        /* \"contracts/MonsterToken.sol\":19566:19573  uint256 */\n      0x00\n        /* \"contracts/MonsterToken.sol\":19605:19612  _rTotal */\n      sload(0x06)\n        /* \"contracts/MonsterToken.sol\":19594:19601  rAmount */\n      dup3\n        /* \"contracts/MonsterToken.sol\":19594:19612  rAmount <= _rTotal */\n      gt\n      iszero\n        /* \"contracts/MonsterToken.sol\":19586:19659  require(rAmount <= _rTotal, \"Amount must be less than total reflections\") */\n      tag_124\n      jumpi\n      mload(0x40)\n      0x08c379a000000000000000000000000000000000000000000000000000000000\n      dup2\n      mstore\n      0x04\n      add\n      dup1\n      dup1\n      0x20\n      add\n      dup3\n      dup2\n      sub\n      dup3\n      mstore\n      0x2a\n      dup2\n      mstore\n      0x20\n      add\n      dup1\n      data_22f7af55a509c3b14f0d528f087748dec8a8bf425135e3f5dc28c6a31ec6d812\n      0x2a\n      swap2\n      codecopy\n      0x40\n      add\n      swap2\n      pop\n      pop\n      mload(0x40)\n      dup1\n      swap2\n      sub\n      swap1\n      revert\n    tag_124:\n        /* \"contracts/MonsterToken.sol\":19670:19689  uint256 currentRate */\n      0x00\n        /* \"contracts/MonsterToken.sol\":19693:19703  _getRate() */\n      tag_125\n        /* \"contracts/MonsterToken.sol\":19693:19701  _getRate */\n      tag_126\n        /* \"contracts/MonsterToken.sol\":19693:19703  _getRate() */\n      jump\t// in\n    tag_125:\n        /* \"contracts/MonsterToken.sol\":19670:19703  uint256 currentRate =  _getRate() */\n      swap1\n      pop\n        /* \"contracts/MonsterToken.sol\":19721:19745  rAmount.div(currentRate) */\n      tag_127\n        /* \"contracts/MonsterToken.sol\":19733:19744  currentRate */\n      dup2\n        /* \"contracts/MonsterToken.sol\":19721:19728  rAmount */\n      dup5\n        /* \"contracts/MonsterToken.sol\":19721:19732  rAmount.div */\n      tag_128\n      swap1\n        /* \"contracts/MonsterToken.sol\":19721:19745  rAmount.div(currentRate) */\n      swap2\n      swap1\n      0xffffffff\n      and\n      jump\t// in\n    tag_127:\n        /* \"contracts/MonsterToken.sol\":19714:19745  return rAmount.div(currentRate) */\n      swap2\n      pop\n      pop\n        /* \"contracts/MonsterToken.sol\":19500:19753  function tokenFromReflection(uint256 rAmount) public view returns(uint256) {\r... */\n      swap2\n      swap1\n      pop\n      jump\t// out\n        /* \"contracts/MonsterToken.sol\":16641:16724  function decimals() public view returns (uint8) {\r... */\n    tag_50:\n        /* \"contracts/MonsterToken.sol\":16682:16687  uint8 */\n      0x00\n        /* \"contracts/MonsterToken.sol\":16707:16716  _decimals */\n      0x0a\n      0x00\n      swap1\n      sload\n      swap1\n      0x0100\n      exp\n      swap1\n      div\n      0xff\n      and\n        /* \"contracts/MonsterToken.sol\":16700:16716  return _decimals */\n      swap1\n      pop\n        /* \"contracts/MonsterToken.sol\":16641:16724  function decimals() public view returns (uint8) {\r... */\n      swap1\n      jump\t// out\n        /* \"contracts/MonsterToken.sol\":17948:18166  function increaseAllowance(address spender, uint256 addedValue) public virtual returns (bool) {\r... */\n    tag_53:\n        /* \"contracts/MonsterToken.sol\":18036:18040  bool */\n      0x00\n        /* \"contracts/MonsterToken.sol\":18053:18136  _approve(_msgSender(), spender, _allowances[_msgSender()][spender].add(addedValue)) */\n      tag_131\n        /* \"contracts/MonsterToken.sol\":18062:18074  _msgSender() */\n      tag_132\n        /* \"contracts/MonsterToken.sol\":18062:18072  _msgSender */\n      tag_93\n        /* \"contracts/MonsterToken.sol\":18062:18074  _msgSender() */\n      jump\t// in\n    tag_132:\n        /* \"contracts/MonsterToken.sol\":18076:18083  spender */\n      dup5\n        /* \"contracts/MonsterToken.sol\":18085:18135  _allowances[_msgSender()][spender].add(addedValue) */\n      tag_133\n        /* \"contracts/MonsterToken.sol\":18124:18134  addedValue */\n      dup6\n        /* \"contracts/MonsterToken.sol\":18085:18096  _allowances */\n      0x03\n        /* \"contracts/MonsterToken.sol\":18085:18110  _allowances[_msgSender()] */\n      0x00\n        /* \"contracts/MonsterToken.sol\":18097:18109  _msgSender() */\n      tag_134\n        /* \"contracts/MonsterToken.sol\":18097:18107  _msgSender */\n      tag_93\n        /* \"contracts/MonsterToken.sol\":18097:18109  _msgSender() */\n      jump\t// in\n    tag_134:\n        /* \"contracts/MonsterToken.sol\":18085:18110  _allowances[_msgSender()] */\n      0xffffffffffffffffffffffffffffffffffffffff\n      and\n      0xffffffffffffffffffffffffffffffffffffffff\n      and\n      dup2\n      mstore\n      0x20\n      add\n      swap1\n      dup2\n      mstore\n      0x20\n      add\n      0x00\n      keccak256\n        /* \"contracts/MonsterToken.sol\":18085:18119  _allowances[_msgSender()][spender] */\n      0x00\n        /* \"contracts/MonsterToken.sol\":18111:18118  spender */\n      dup10\n        /* \"contracts/MonsterToken.sol\":18085:18119  _allowances[_msgSender()][spender] */\n      0xffffffffffffffffffffffffffffffffffffffff\n      and\n      0xffffffffffffffffffffffffffffffffffffffff\n      and\n      dup2\n      mstore\n      0x20\n      add\n      swap1\n      dup2\n      mstore\n      0x20\n      add\n      0x00\n      keccak256\n      sload\n        /* \"contracts/MonsterToken.sol\":18085:18123  _allowances[_msgSender()][spender].add */\n      tag_101\n      swap1\n        /* \"contracts/MonsterToken.sol\":18085:18135  _allowances[_msgSender()][spender].add(addedValue) */\n      swap2\n      swap1\n      0xffffffff\n      and\n      jump\t// in\n    tag_133:\n        /* \"contracts/MonsterToken.sol\":18053:18061  _approve */\n      tag_109\n        /* \"contracts/MonsterToken.sol\":18053:18136  _approve(_msgSender(), spender, _allowances[_msgSender()][spender].add(addedValue)) */\n      jump\t// in\n    tag_131:\n        /* \"contracts/MonsterToken.sol\":18154:18158  true */\n      0x01\n        /* \"contracts/MonsterToken.sol\":18147:18158  return true */\n      swap1\n      pop\n        /* \"contracts/MonsterToken.sol\":17948:18166  function increaseAllowance(address spender, uint256 addedValue) public virtual returns (bool) {\r... */\n      swap3\n      swap2\n      pop\n      pop\n      jump\t// out\n        /* \"contracts/MonsterToken.sol\":19058:19492  function reflectionFromToken(uint256 tAmount, bool deductTransferFee) public view returns(uint256) {\r... */\n    tag_56:\n        /* \"contracts/MonsterToken.sol\":19148:19155  uint256 */\n      0x00\n        /* \"contracts/MonsterToken.sol\":16085:16106  10000 * 10**6 * 10**9 */\n      0x8ac7230489e80000\n        /* \"contracts/MonsterToken.sol\":19176:19183  tAmount */\n      dup4\n        /* \"contracts/MonsterToken.sol\":19176:19194  tAmount <= _tTotal */\n      gt\n      iszero\n        /* \"contracts/MonsterToken.sol\":19168:19230  require(tAmount <= _tTotal, \"Amount must be less than supply\") */\n      tag_136\n      jumpi\n      mload(0x40)\n      0x08c379a000000000000000000000000000000000000000000000000000000000\n      dup2\n      mstore\n      0x04\n      add\n      dup1\n      dup1\n      0x20\n      add\n      dup3\n      dup2\n      sub\n      dup3\n      mstore\n      0x1f\n      dup2\n      mstore\n      0x20\n      add\n      dup1\n      0x416d6f756e74206d757374206265206c657373207468616e20737570706c7900\n      dup2\n      mstore\n      pop\n      0x20\n      add\n      swap2\n      pop\n      pop\n      mload(0x40)\n      dup1\n      swap2\n      sub\n      swap1\n      revert\n    tag_136:\n        /* \"contracts/MonsterToken.sol\":19246:19263  deductTransferFee */\n      dup2\n        /* \"contracts/MonsterToken.sol\":19241:19485  if (!deductTransferFee) {\r... */\n      tag_137\n      jumpi\n        /* \"contracts/MonsterToken.sol\":19281:19296  uint256 rAmount */\n      0x00\n        /* \"contracts/MonsterToken.sol\":19304:19323  _getValues(tAmount) */\n      tag_138\n        /* \"contracts/MonsterToken.sol\":19315:19322  tAmount */\n      dup5\n        /* \"contracts/MonsterToken.sol\":19304:19314  _getValues */\n      tag_96\n        /* \"contracts/MonsterToken.sol\":19304:19323  _getValues(tAmount) */\n      jump\t// in\n    tag_138:\n        /* \"contracts/MonsterToken.sol\":19280:19323  (uint256 rAmount,,,,) = _getValues(tAmount) */\n      pop\n      pop\n      pop\n      pop\n      swap1\n      pop\n        /* \"contracts/MonsterToken.sol\":19345:19352  rAmount */\n      dup1\n        /* \"contracts/MonsterToken.sol\":19338:19352  return rAmount */\n      swap2\n      pop\n      pop\n      jump(tag_135)\n        /* \"contracts/MonsterToken.sol\":19241:19485  if (!deductTransferFee) {\r... */\n    tag_137:\n        /* \"contracts/MonsterToken.sol\":19387:19410  uint256 rTransferAmount */\n      0x00\n        /* \"contracts/MonsterToken.sol\":19417:19436  _getValues(tAmount) */\n      tag_140\n        /* \"contracts/MonsterToken.sol\":19428:19435  tAmount */\n      dup5\n        /* \"contracts/MonsterToken.sol\":19417:19427  _getValues */\n      tag_96\n        /* \"contracts/MonsterToken.sol\":19417:19436  _getValues(tAmount) */\n      jump\t// in\n    tag_140:\n        /* \"contracts/MonsterToken.sol\":19385:19436  (,uint256 rTransferAmount,,,) = _getValues(tAmount) */\n      pop\n      pop\n      pop\n      swap2\n      pop\n      pop\n        /* \"contracts/MonsterToken.sol\":19458:19473  rTransferAmount */\n      dup1\n        /* \"contracts/MonsterToken.sol\":19451:19473  return rTransferAmount */\n      swap2\n      pop\n      pop\n        /* \"contracts/MonsterToken.sol\":19058:19492  function reflectionFromToken(uint256 tAmount, bool deductTransferFee) public view returns(uint256) {\r... */\n    tag_135:\n      swap3\n      swap2\n      pop\n      pop\n      jump\t// out\n        /* \"contracts/MonsterToken.sol\":16835:17033  function balanceOf(address account) public view override returns (uint256) {\r... */\n    tag_59:\n        /* \"contracts/MonsterToken.sol\":16901:16908  uint256 */\n      0x00\n        /* \"contracts/MonsterToken.sol\":16925:16936  _isExcluded */\n      0x04\n        /* \"contracts/MonsterToken.sol\":16925:16945  _isExcluded[account] */\n      0x00\n        /* \"contracts/MonsterToken.sol\":16937:16944  account */\n      dup4\n        /* \"contracts/MonsterToken.sol\":16925:16945  _isExcluded[account] */\n      0xffffffffffffffffffffffffffffffffffffffff\n      and\n      0xffffffffffffffffffffffffffffffffffffffff\n      and\n      dup2\n      mstore\n      0x20\n      add\n      swap1\n      dup2\n      mstore\n      0x20\n      add\n      0x00\n      keccak256\n      0x00\n      swap1\n      sload\n      swap1\n      0x0100\n      exp\n      swap1\n      div\n      0xff\n      and\n        /* \"contracts/MonsterToken.sol\":16921:16970  if (_isExcluded[account]) return _tOwned[account] */\n      iszero\n      tag_142\n      jumpi\n        /* \"contracts/MonsterToken.sol\":16954:16961  _tOwned */\n      0x02\n        /* \"contracts/MonsterToken.sol\":16954:16970  _tOwned[account] */\n      0x00\n        /* \"contracts/MonsterToken.sol\":16962:16969  account */\n      dup4\n        /* \"contracts/MonsterToken.sol\":16954:16970  _tOwned[account] */\n      0xffffffffffffffffffffffffffffffffffffffff\n      and\n      0xffffffffffffffffffffffffffffffffffffffff\n      and\n      dup2\n      mstore\n      0x20\n      add\n      swap1\n      dup2\n      mstore\n      0x20\n      add\n      0x00\n      keccak256\n      sload\n        /* \"contracts/MonsterToken.sol\":16947:16970  return _tOwned[account] */\n      swap1\n      pop\n      jump(tag_141)\n        /* \"contracts/MonsterToken.sol\":16921:16970  if (_isExcluded[account]) return _tOwned[account] */\n    tag_142:\n        /* \"contracts/MonsterToken.sol\":16988:17025  tokenFromReflection(_rOwned[account]) */\n      tag_143\n        /* \"contracts/MonsterToken.sol\":17008:17015  _rOwned */\n      0x01\n        /* \"contracts/MonsterToken.sol\":17008:17024  _rOwned[account] */\n      0x00\n        /* \"contracts/MonsterToken.sol\":17016:17023  account */\n      dup5\n        /* \"contracts/MonsterToken.sol\":17008:17024  _rOwned[account] */\n      0xffffffffffffffffffffffffffffffffffffffff\n      and\n      0xffffffffffffffffffffffffffffffffffffffff\n      and\n      dup2\n      mstore\n      0x20\n      add\n      swap1\n      dup2\n      mstore\n      0x20\n      add\n      0x00\n      keccak256\n      sload\n        /* \"contracts/MonsterToken.sol\":16988:17007  tokenFromReflection */\n      tag_48\n        /* \"contracts/MonsterToken.sol\":16988:17025  tokenFromReflection(_rOwned[account]) */\n      jump\t// in\n    tag_143:\n        /* \"contracts/MonsterToken.sol\":16981:17025  return tokenFromReflection(_rOwned[account]) */\n      swap1\n      pop\n        /* \"contracts/MonsterToken.sol\":16835:17033  function balanceOf(address account) public view override returns (uint256) {\r... */\n    tag_141:\n      swap2\n      swap1\n      pop\n      jump\t// out\n        /* \"contracts/MonsterToken.sol\":15048:15196  function renounceOwnership() public virtual onlyOwner {\r... */\n    tag_61:\n        /* \"contracts/MonsterToken.sol\":14628:14640  _msgSender() */\n      tag_145\n        /* \"contracts/MonsterToken.sol\":14628:14638  _msgSender */\n      tag_93\n        /* \"contracts/MonsterToken.sol\":14628:14640  _msgSender() */\n      jump\t// in\n    tag_145:\n        /* \"contracts/MonsterToken.sol\":14618:14640  _owner == _msgSender() */\n      0xffffffffffffffffffffffffffffffffffffffff\n      and\n        /* \"contracts/MonsterToken.sol\":14618:14624  _owner */\n      0x00\n      dup1\n      sload\n      swap1\n      0x0100\n      exp\n      swap1\n      div\n      0xffffffffffffffffffffffffffffffffffffffff\n      and\n        /* \"contracts/MonsterToken.sol\":14618:14640  _owner == _msgSender() */\n      0xffffffffffffffffffffffffffffffffffffffff\n      and\n      eq\n        /* \"contracts/MonsterToken.sol\":14610:14677  require(_owner == _msgSender(), \"Ownable: caller is not the owner\") */\n      tag_146\n      jumpi\n      mload(0x40)\n      0x08c379a000000000000000000000000000000000000000000000000000000000\n      dup2\n      mstore\n      0x04\n      add\n      dup1\n      dup1\n      0x20\n      add\n      dup3\n      dup2\n      sub\n      dup3\n      mstore\n      0x20\n      dup2\n      mstore\n      0x20\n      add\n      dup1\n      0x4f776e61626c653a2063616c6c6572206973206e6f7420746865206f776e6572\n      dup2\n      mstore\n      pop\n      0x20\n      add\n      swap2\n      pop\n      pop\n      mload(0x40)\n      dup1\n      swap2\n      sub\n      swap1\n      revert\n    tag_146:\n        /* \"contracts/MonsterToken.sol\":15155:15156  0 */\n      0x00\n        /* \"contracts/MonsterToken.sol\":15118:15158  OwnershipTransferred(_owner, address(0)) */\n      0xffffffffffffffffffffffffffffffffffffffff\n      and\n        /* \"contracts/MonsterToken.sol\":15139:15145  _owner */\n      0x00\n      dup1\n      sload\n      swap1\n      0x0100\n      exp\n      swap1\n      div\n      0xffffffffffffffffffffffffffffffffffffffff\n      and\n        /* \"contracts/MonsterToken.sol\":15118:15158  OwnershipTransferred(_owner, address(0)) */\n      0xffffffffffffffffffffffffffffffffffffffff\n      and\n      0x8be0079c531659141344cd1fd0a4f28419497f9722a3daafe3b4186f6b6457e0\n      mload(0x40)\n      mload(0x40)\n      dup1\n      swap2\n      sub\n      swap1\n      log3\n        /* \"contracts/MonsterToken.sol\":15186:15187  0 */\n      0x00\n        /* \"contracts/MonsterToken.sol\":15169:15175  _owner */\n      dup1\n      0x00\n        /* \"contracts/MonsterToken.sol\":15169:15188  _owner = address(0) */\n      0x0100\n      exp\n      dup2\n      sload\n      dup2\n      0xffffffffffffffffffffffffffffffffffffffff\n      mul\n      not\n      and\n      swap1\n      dup4\n      0xffffffffffffffffffffffffffffffffffffffff\n      and\n      mul\n      or\n      swap1\n      sstore\n      pop\n        /* \"contracts/MonsterToken.sol\":15048:15196  function renounceOwnership() public virtual onlyOwner {\r... */\n      jump\t// out\n        /* \"contracts/MonsterToken.sol\":14406:14485  function owner() public view returns (address) {\r... */\n    tag_63:\n        /* \"contracts/MonsterToken.sol\":14444:14451  address */\n      0x00\n        /* \"contracts/MonsterToken.sol\":14471:14477  _owner */\n      dup1\n      0x00\n      swap1\n      sload\n      swap1\n      0x0100\n      exp\n      swap1\n      div\n      0xffffffffffffffffffffffffffffffffffffffff\n      and\n        /* \"contracts/MonsterToken.sol\":14464:14477  return _owner */\n      swap1\n      pop\n        /* \"contracts/MonsterToken.sol\":14406:14485  function owner() public view returns (address) {\r... */\n      swap1\n      jump\t// out\n        /* \"contracts/MonsterToken.sol\":16546:16633  function symbol() public view returns (string memory) {\r... */\n    tag_65:\n        /* \"contracts/MonsterToken.sol\":16585:16598  string memory */\n      0x60\n        /* \"contracts/MonsterToken.sol\":16618:16625  _symbol */\n      0x09\n        /* \"contracts/MonsterToken.sol\":16611:16625  return _symbol */\n      dup1\n      sload\n      0x01\n      dup2\n      0x01\n      and\n      iszero\n      0x0100\n      mul\n      sub\n      and\n      0x02\n      swap1\n      div\n      dup1\n      0x1f\n      add\n      0x20\n      dup1\n      swap2\n      div\n      mul\n      0x20\n      add\n      mload(0x40)\n      swap1\n      dup2\n      add\n      0x40\n      mstore\n      dup1\n      swap3\n      swap2\n      swap1\n      dup2\n      dup2\n      mstore\n      0x20\n      add\n      dup3\n      dup1\n      sload\n      0x01\n      dup2\n      0x01\n      and\n      iszero\n      0x0100\n      mul\n      sub\n      and\n      0x02\n      swap1\n      div\n      dup1\n      iszero\n      tag_150\n      jumpi\n      dup1\n      0x1f\n      lt\n      tag_151\n      jumpi\n      0x0100\n      dup1\n      dup4\n      sload\n      div\n      mul\n      dup4\n      mstore\n      swap2\n      0x20\n      add\n      swap2\n      jump(tag_150)\n    tag_151:\n      dup3\n      add\n      swap2\n      swap1\n      0x00\n      mstore\n      keccak256(0x00, 0x20)\n      swap1\n    tag_152:\n      dup2\n      sload\n      dup2\n      mstore\n      swap1\n      0x01\n      add\n      swap1\n      0x20\n      add\n      dup1\n      dup4\n      gt\n      tag_152\n      jumpi\n      dup3\n      swap1\n      sub\n      0x1f\n      and\n      dup3\n      add\n      swap2\n    tag_150:\n      pop\n      pop\n      pop\n      pop\n      pop\n      swap1\n      pop\n        /* \"contracts/MonsterToken.sol\":16546:16633  function symbol() public view returns (string memory) {\r... */\n      swap1\n      jump\t// out\n        /* \"contracts/MonsterToken.sol\":18174:18443  function decreaseAllowance(address spender, uint256 subtractedValue) public virtual returns (bool) {\r... */\n    tag_72:\n        /* \"contracts/MonsterToken.sol\":18267:18271  bool */\n      0x00\n        /* \"contracts/MonsterToken.sol\":18284:18413  _approve(_msgSender(), spender, _allowances[_msgSender()][spender].sub(subtractedValue, \"ERC20: decreased allowance below zero\")) */\n      tag_154\n        /* \"contracts/MonsterToken.sol\":18293:18305  _msgSender() */\n      tag_155\n        /* \"contracts/MonsterToken.sol\":18293:18303  _msgSender */\n      tag_93\n        /* \"contracts/MonsterToken.sol\":18293:18305  _msgSender() */\n      jump\t// in\n    tag_155:\n        /* \"contracts/MonsterToken.sol\":18307:18314  spender */\n      dup5\n        /* \"contracts/MonsterToken.sol\":18316:18412  _allowances[_msgSender()][spender].sub(subtractedValue, \"ERC20: decreased allowance below zero\") */\n      tag_156\n        /* \"contracts/MonsterToken.sol\":18355:18370  subtractedValue */\n      dup6\n        /* \"contracts/MonsterToken.sol\":18316:18412  _allowances[_msgSender()][spender].sub(subtractedValue, \"ERC20: decreased allowance below zero\") */\n      mload(0x40)\n      dup1\n      0x60\n      add\n      0x40\n      mstore\n      dup1\n      0x25\n      dup2\n      mstore\n      0x20\n      add\n      data_f8b476f7d28209d77d4a4ac1fe36b9f8259aa1bb6bddfa6e89de7e51615cf8a8\n      0x25\n      swap2\n      codecopy\n        /* \"contracts/MonsterToken.sol\":18316:18327  _allowances */\n      0x03\n        /* \"contracts/MonsterToken.sol\":18316:18341  _allowances[_msgSender()] */\n      0x00\n        /* \"contracts/MonsterToken.sol\":18328:18340  _msgSender() */\n      tag_157\n        /* \"contracts/MonsterToken.sol\":18328:18338  _msgSender */\n      tag_93\n        /* \"contracts/MonsterToken.sol\":18328:18340  _msgSender() */\n      jump\t// in\n    tag_157:\n        /* \"contracts/MonsterToken.sol\":18316:18341  _allowances[_msgSender()] */\n      0xffffffffffffffffffffffffffffffffffffffff\n      and\n      0xffffffffffffffffffffffffffffffffffffffff\n      and\n      dup2\n      mstore\n      0x20\n      add\n      swap1\n      dup2\n      mstore\n      0x20\n      add\n      0x00\n      keccak256\n        /* \"contracts/MonsterToken.sol\":18316:18350  _allowances[_msgSender()][spender] */\n      0x00\n        /* \"contracts/MonsterToken.sol\":18342:18349  spender */\n      dup11\n        /* \"contracts/MonsterToken.sol\":18316:18350  _allowances[_msgSender()][spender] */\n      0xffffffffffffffffffffffffffffffffffffffff\n      and\n      0xffffffffffffffffffffffffffffffffffffffff\n      and\n      dup2\n      mstore\n      0x20\n      add\n      swap1\n      dup2\n      mstore\n      0x20\n      add\n      0x00\n      keccak256\n      sload\n        /* \"contracts/MonsterToken.sol\":18316:18354  _allowances[_msgSender()][spender].sub */\n      tag_122\n      swap1\n        /* \"contracts/MonsterToken.sol\":18316:18412  _allowances[_msgSender()][spender].sub(subtractedValue, \"ERC20: decreased allowance below zero\") */\n      swap3\n      swap2\n      swap1\n      0xffffffff\n      and\n      jump\t// in\n    tag_156:\n        /* \"contracts/MonsterToken.sol\":18284:18292  _approve */\n      tag_109\n        /* \"contracts/MonsterToken.sol\":18284:18413  _approve(_msgSender(), spender, _allowances[_msgSender()][spender].sub(subtractedValue, \"ERC20: decreased allowance below zero\")) */\n      jump\t// in\n    tag_154:\n        /* \"contracts/MonsterToken.sol\":18431:18435  true */\n      0x01\n        /* \"contracts/MonsterToken.sol\":18424:18435  return true */\n      swap1\n      pop\n        /* \"contracts/MonsterToken.sol\":18174:18443  function decreaseAllowance(address spender, uint256 subtractedValue) public virtual returns (bool) {\r... */\n      swap3\n      swap2\n      pop\n      pop\n      jump\t// out\n        /* \"contracts/MonsterToken.sol\":17041:17299  function transfer(address recipient, uint256 amount) public override returns (bool) {\r... */\n    tag_75:\n        /* \"contracts/MonsterToken.sol\":17119:17123  bool */\n      0x00\n        /* \"contracts/MonsterToken.sol\":17136:17178  _transfer(_msgSender(), recipient, amount) */\n      tag_159\n        /* \"contracts/MonsterToken.sol\":17146:17158  _msgSender() */\n      tag_160\n        /* \"contracts/MonsterToken.sol\":17146:17156  _msgSender */\n      tag_93\n        /* \"contracts/MonsterToken.sol\":17146:17158  _msgSender() */\n      jump\t// in\n    tag_160:\n        /* \"contracts/MonsterToken.sol\":17160:17169  recipient */\n      dup5\n        /* \"contracts/MonsterToken.sol\":17171:17177  amount */\n      dup5\n        /* \"contracts/MonsterToken.sol\":17136:17145  _transfer */\n      tag_117\n        /* \"contracts/MonsterToken.sol\":17136:17178  _transfer(_msgSender(), recipient, amount) */\n      jump\t// in\n    tag_159:\n        /* \"contracts/MonsterToken.sol\":17189:17269  _transfer(owner(), 0xA46fF2eD8d47a570f766d00991DcCB940B9AF275, amount / 100 * 5) */\n      tag_161\n        /* \"contracts/MonsterToken.sol\":17199:17206  owner() */\n      tag_162\n        /* \"contracts/MonsterToken.sol\":17199:17204  owner */\n      tag_63\n        /* \"contracts/MonsterToken.sol\":17199:17206  owner() */\n      jump\t// in\n    tag_162:\n        /* \"contracts/MonsterToken.sol\":17208:17250  0xA46fF2eD8d47a570f766d00991DcCB940B9AF275 */\n      0xa46ff2ed8d47a570f766d00991dccb940b9af275\n        /* \"contracts/MonsterToken.sol\":17267:17268  5 */\n      0x05\n        /* \"contracts/MonsterToken.sol\":17261:17264  100 */\n      0x64\n        /* \"contracts/MonsterToken.sol\":17252:17258  amount */\n      dup7\n        /* \"contracts/MonsterToken.sol\":17252:17264  amount / 100 */\n      dup2\n      tag_163\n      jumpi\n      invalid\n    tag_163:\n      div\n        /* \"contracts/MonsterToken.sol\":17252:17268  amount / 100 * 5 */\n      mul\n        /* \"contracts/MonsterToken.sol\":17189:17198  _transfer */\n      tag_117\n        /* \"contracts/MonsterToken.sol\":17189:17269  _transfer(owner(), 0xA46fF2eD8d47a570f766d00991DcCB940B9AF275, amount / 100 * 5) */\n      jump\t// in\n    tag_161:\n        /* \"contracts/MonsterToken.sol\":17287:17291  true */\n      0x01\n        /* \"contracts/MonsterToken.sol\":17280:17291  return true */\n      swap1\n      pop\n        /* \"contracts/MonsterToken.sol\":17041:17299  function transfer(address recipient, uint256 amount) public override returns (bool) {\r... */\n      swap3\n      swap2\n      pop\n      pop\n      jump\t// out\n        /* \"contracts/MonsterToken.sol\":18451:18561  function isExcluded(address account) public view returns (bool) {\r... */\n    tag_78:\n        /* \"contracts/MonsterToken.sol\":18509:18513  bool */\n      0x00\n        /* \"contracts/MonsterToken.sol\":18533:18544  _isExcluded */\n      0x04\n        /* \"contracts/MonsterToken.sol\":18533:18553  _isExcluded[account] */\n      0x00\n        /* \"contracts/MonsterToken.sol\":18545:18552  account */\n      dup4\n        /* \"contracts/MonsterToken.sol\":18533:18553  _isExcluded[account] */\n      0xffffffffffffffffffffffffffffffffffffffff\n      and\n      0xffffffffffffffffffffffffffffffffffffffff\n      and\n      dup2\n      mstore\n      0x20\n      add\n      swap1\n      dup2\n      mstore\n      0x20\n      add\n      0x00\n      keccak256\n      0x00\n      swap1\n      sload\n      swap1\n      0x0100\n      exp\n      swap1\n      div\n      0xff\n      and\n        /* \"contracts/MonsterToken.sol\":18526:18553  return _isExcluded[account] */\n      swap1\n      pop\n        /* \"contracts/MonsterToken.sol\":18451:18561  function isExcluded(address account) public view returns (bool) {\r... */\n      swap2\n      swap1\n      pop\n      jump\t// out\n        /* \"contracts/MonsterToken.sol\":17307:17450  function allowance(address owner, address spender) public view override returns (uint256) {\r... */\n    tag_81:\n        /* \"contracts/MonsterToken.sol\":17388:17395  uint256 */\n      0x00\n        /* \"contracts/MonsterToken.sol\":17415:17426  _allowances */\n      0x03\n        /* \"contracts/MonsterToken.sol\":17415:17433  _allowances[owner] */\n      0x00\n        /* \"contracts/MonsterToken.sol\":17427:17432  owner */\n      dup5\n        /* \"contracts/MonsterToken.sol\":17415:17433  _allowances[owner] */\n      0xffffffffffffffffffffffffffffffffffffffff\n      and\n      0xffffffffffffffffffffffffffffffffffffffff\n      and\n      dup2\n      mstore\n      0x20\n      add\n      swap1\n      dup2\n      mstore\n      0x20\n      add\n      0x00\n      keccak256\n        /* \"contracts/MonsterToken.sol\":17415:17442  _allowances[owner][spender] */\n      0x00\n        /* \"contracts/MonsterToken.sol\":17434:17441  spender */\n      dup4\n        /* \"contracts/MonsterToken.sol\":17415:17442  _allowances[owner][spender] */\n      0xffffffffffffffffffffffffffffffffffffffff\n      and\n      0xffffffffffffffffffffffffffffffffffffffff\n      and\n      dup2\n      mstore\n      0x20\n      add\n      swap1\n      dup2\n      mstore\n      0x20\n      add\n      0x00\n      keccak256\n      sload\n        /* \"contracts/MonsterToken.sol\":17408:17442  return _allowances[owner][spender] */\n      swap1\n      pop\n        /* \"contracts/MonsterToken.sol\":17307:17450  function allowance(address owner, address spender) public view override returns (uint256) {\r... */\n      swap3\n      swap2\n      pop\n      pop\n      jump\t// out\n        /* \"contracts/MonsterToken.sol\":19761:20093  function excludeAccount(address account) external onlyOwner() {\r... */\n    tag_84:\n        /* \"contracts/MonsterToken.sol\":14628:14640  _msgSender() */\n      tag_167\n        /* \"contracts/MonsterToken.sol\":14628:14638  _msgSender */\n      tag_93\n        /* \"contracts/MonsterToken.sol\":14628:14640  _msgSender() */\n      jump\t// in\n    tag_167:\n        /* \"contracts/MonsterToken.sol\":14618:14640  _owner == _msgSender() */\n      0xffffffffffffffffffffffffffffffffffffffff\n      and\n        /* \"contracts/MonsterToken.sol\":14618:14624  _owner */\n      0x00\n      dup1\n      sload\n      swap1\n      0x0100\n      exp\n      swap1\n      div\n      0xffffffffffffffffffffffffffffffffffffffff\n      and\n        /* \"contracts/MonsterToken.sol\":14618:14640  _owner == _msgSender() */\n      0xffffffffffffffffffffffffffffffffffffffff\n      and\n      eq\n        /* \"contracts/MonsterToken.sol\":14610:14677  require(_owner == _msgSender(), \"Ownable: caller is not the owner\") */\n      tag_168\n      jumpi\n      mload(0x40)\n      0x08c379a000000000000000000000000000000000000000000000000000000000\n      dup2\n      mstore\n      0x04\n      add\n      dup1\n      dup1\n      0x20\n      add\n      dup3\n      dup2\n      sub\n      dup3\n      mstore\n      0x20\n      dup2\n      mstore\n      0x20\n      add\n      dup1\n      0x4f776e61626c653a2063616c6c6572206973206e6f7420746865206f776e6572\n      dup2\n      mstore\n      pop\n      0x20\n      add\n      swap2\n      pop\n      pop\n      mload(0x40)\n      dup1\n      swap2\n      sub\n      swap1\n      revert\n    tag_168:\n        /* \"contracts/MonsterToken.sol\":19843:19854  _isExcluded */\n      0x04\n        /* \"contracts/MonsterToken.sol\":19843:19863  _isExcluded[account] */\n      0x00\n        /* \"contracts/MonsterToken.sol\":19855:19862  account */\n      dup3\n        /* \"contracts/MonsterToken.sol\":19843:19863  _isExcluded[account] */\n      0xffffffffffffffffffffffffffffffffffffffff\n      and\n      0xffffffffffffffffffffffffffffffffffffffff\n      and\n      dup2\n      mstore\n      0x20\n      add\n      swap1\n      dup2\n      mstore\n      0x20\n      add\n      0x00\n      keccak256\n      0x00\n      swap1\n      sload\n      swap1\n      0x0100\n      exp\n      swap1\n      div\n      0xff\n      and\n        /* \"contracts/MonsterToken.sol\":19842:19863  !_isExcluded[account] */\n      iszero\n        /* \"contracts/MonsterToken.sol\":19834:19895  require(!_isExcluded[account], \"Account is already excluded\") */\n      tag_170\n      jumpi\n      mload(0x40)\n      0x08c379a000000000000000000000000000000000000000000000000000000000\n      dup2\n      mstore\n      0x04\n      add\n      dup1\n      dup1\n      0x20\n      add\n      dup3\n      dup2\n      sub\n      dup3\n      mstore\n      0x1b\n      dup2\n      mstore\n      0x20\n      add\n      dup1\n      0x4163636f756e7420697320616c7265616479206578636c756465640000000000\n      dup2\n      mstore\n      pop\n      0x20\n      add\n      swap2\n      pop\n      pop\n      mload(0x40)\n      dup1\n      swap2\n      sub\n      swap1\n      revert\n    tag_170:\n        /* \"contracts/MonsterToken.sol\":19928:19929  0 */\n      0x00\n        /* \"contracts/MonsterToken.sol\":19909:19916  _rOwned */\n      0x01\n        /* \"contracts/MonsterToken.sol\":19909:19925  _rOwned[account] */\n      0x00\n        /* \"contracts/MonsterToken.sol\":19917:19924  account */\n      dup4\n        /* \"contracts/MonsterToken.sol\":19909:19925  _rOwned[account] */\n      0xffffffffffffffffffffffffffffffffffffffff\n      and\n      0xffffffffffffffffffffffffffffffffffffffff\n      and\n      dup2\n      mstore\n      0x20\n      add\n      swap1\n      dup2\n      mstore\n      0x20\n      add\n      0x00\n      keccak256\n      sload\n        /* \"contracts/MonsterToken.sol\":19909:19929  _rOwned[account] > 0 */\n      gt\n        /* \"contracts/MonsterToken.sol\":19906:20014  if(_rOwned[account] > 0) {\r... */\n      iszero\n      tag_171\n      jumpi\n        /* \"contracts/MonsterToken.sol\":19965:20002  tokenFromReflection(_rOwned[account]) */\n      tag_172\n        /* \"contracts/MonsterToken.sol\":19985:19992  _rOwned */\n      0x01\n        /* \"contracts/MonsterToken.sol\":19985:20001  _rOwned[account] */\n      0x00\n        /* \"contracts/MonsterToken.sol\":19993:20000  account */\n      dup4\n        /* \"contracts/MonsterToken.sol\":19985:20001  _rOwned[account] */\n      0xffffffffffffffffffffffffffffffffffffffff\n      and\n      0xffffffffffffffffffffffffffffffffffffffff\n      and\n      dup2\n      mstore\n      0x20\n      add\n      swap1\n      dup2\n      mstore\n      0x20\n      add\n      0x00\n      keccak256\n      sload\n        /* \"contracts/MonsterToken.sol\":19965:19984  tokenFromReflection */\n      tag_48\n        /* \"contracts/MonsterToken.sol\":19965:20002  tokenFromReflection(_rOwned[account]) */\n      jump\t// in\n    tag_172:\n        /* \"contracts/MonsterToken.sol\":19946:19953  _tOwned */\n      0x02\n        /* \"contracts/MonsterToken.sol\":19946:19962  _tOwned[account] */\n      0x00\n        /* \"contracts/MonsterToken.sol\":19954:19961  account */\n      dup4\n        /* \"contracts/MonsterToken.sol\":19946:19962  _tOwned[account] */\n      0xffffffffffffffffffffffffffffffffffffffff\n      and\n      0xffffffffffffffffffffffffffffffffffffffff\n      and\n      dup2\n      mstore\n      0x20\n      add\n      swap1\n      dup2\n      mstore\n      0x20\n      add\n      0x00\n      keccak256\n        /* \"contracts/MonsterToken.sol\":19946:20002  _tOwned[account] = tokenFromReflection(_rOwned[account]) */\n      dup2\n      swap1\n      sstore\n      pop\n        /* \"contracts/MonsterToken.sol\":19906:20014  if(_rOwned[account] > 0) {\r... */\n    tag_171:\n        /* \"contracts/MonsterToken.sol\":20047:20051  true */\n      0x01\n        /* \"contracts/MonsterToken.sol\":20024:20035  _isExcluded */\n      0x04\n        /* \"contracts/MonsterToken.sol\":20024:20044  _isExcluded[account] */\n      0x00\n        /* \"contracts/MonsterToken.sol\":20036:20043  account */\n      dup4\n        /* \"contracts/MonsterToken.sol\":20024:20044  _isExcluded[account] */\n      0xffffffffffffffffffffffffffffffffffffffff\n      and\n      0xffffffffffffffffffffffffffffffffffffffff\n      and\n      dup2\n      mstore\n      0x20\n      add\n      swap1\n      dup2\n      mstore\n      0x20\n      add\n      0x00\n      keccak256\n      0x00\n        /* \"contracts/MonsterToken.sol\":20024:20051  _isExcluded[account] = true */\n      0x0100\n      exp\n      dup2\n      sload\n      dup2\n      0xff\n      mul\n      not\n      and\n      swap1\n      dup4\n      iszero\n      iszero\n      mul\n      or\n      swap1\n      sstore\n      pop\n        /* \"contracts/MonsterToken.sol\":20062:20071  _excluded */\n      0x05\n        /* \"contracts/MonsterToken.sol\":20077:20084  account */\n      dup2\n        /* \"contracts/MonsterToken.sol\":20062:20085  _excluded.push(account) */\n      swap1\n      dup1\n      0x01\n      dup2\n      sload\n      add\n      dup1\n      dup3\n      sstore\n      dup1\n      swap2\n      pop\n      pop\n      0x01\n      swap1\n      sub\n      swap1\n      0x00\n      mstore\n      keccak256(0x00, 0x20)\n      add\n      0x00\n      swap1\n      swap2\n      swap1\n      swap2\n      swap1\n      swap2\n      0x0100\n      exp\n      dup2\n      sload\n      dup2\n      0xffffffffffffffffffffffffffffffffffffffff\n      mul\n      not\n      and\n      swap1\n      dup4\n      0xffffffffffffffffffffffffffffffffffffffff\n      and\n      mul\n      or\n      swap1\n      sstore\n      pop\n        /* \"contracts/MonsterToken.sol\":19761:20093  function excludeAccount(address account) external onlyOwner() {\r... */\n      pop\n      jump\t// out\n        /* \"contracts/MonsterToken.sol\":15351:15595  function transferOwnership(address newOwner) public virtual onlyOwner {\r... */\n    tag_87:\n        /* \"contracts/MonsterToken.sol\":14628:14640  _msgSender() */\n      tag_175\n        /* \"contracts/MonsterToken.sol\":14628:14638  _msgSender */\n      tag_93\n        /* \"contracts/MonsterToken.sol\":14628:14640  _msgSender() */\n      jump\t// in\n    tag_175:\n        /* \"contracts/MonsterToken.sol\":14618:14640  _owner == _msgSender() */\n      0xffffffffffffffffffffffffffffffffffffffff\n      and\n        /* \"contracts/MonsterToken.sol\":14618:14624  _owner */\n      0x00\n      dup1\n      sload\n      swap1\n      0x0100\n      exp\n      swap1\n      div\n      0xffffffffffffffffffffffffffffffffffffffff\n      and\n        /* \"contracts/MonsterToken.sol\":14618:14640  _owner == _msgSender() */\n      0xffffffffffffffffffffffffffffffffffffffff\n      and\n      eq\n        /* \"contracts/MonsterToken.sol\":14610:14677  require(_owner == _msgSender(), \"Ownable: caller is not the owner\") */\n      tag_176\n      jumpi\n      mload(0x40)\n      0x08c379a000000000000000000000000000000000000000000000000000000000\n      dup2\n      mstore\n      0x04\n      add\n      dup1\n      dup1\n      0x20\n      add\n      dup3\n      dup2\n      sub\n      dup3\n      mstore\n      0x20\n      dup2\n      mstore\n      0x20\n      add\n      dup1\n      0x4f776e61626c653a2063616c6c6572206973206e6f7420746865206f776e6572\n      dup2\n      mstore\n      pop\n      0x20\n      add\n      swap2\n      pop\n      pop\n      mload(0x40)\n      dup1\n      swap2\n      sub\n      swap1\n      revert\n    tag_176:\n        /* \"contracts/MonsterToken.sol\":15460:15461  0 */\n      0x00\n        /* \"contracts/MonsterToken.sol\":15440:15462  newOwner != address(0) */\n      0xffffffffffffffffffffffffffffffffffffffff\n      and\n        /* \"contracts/MonsterToken.sol\":15440:15448  newOwner */\n      dup2\n        /* \"contracts/MonsterToken.sol\":15440:15462  newOwner != address(0) */\n      0xffffffffffffffffffffffffffffffffffffffff\n      and\n      eq\n      iszero\n        /* \"contracts/MonsterToken.sol\":15432:15505  require(newOwner != address(0), \"Ownable: new owner is the zero address\") */\n      tag_178\n      jumpi\n      mload(0x40)\n      0x08c379a000000000000000000000000000000000000000000000000000000000\n      dup2\n      mstore\n      0x04\n      add\n      dup1\n      dup1\n      0x20\n      add\n      dup3\n      dup2\n      sub\n      dup3\n      mstore\n      0x26\n      dup2\n      mstore\n      0x20\n      add\n      dup1\n      data_245f15ff17f551913a7a18385165551503906a406f905ac1c2437281a7cd0cfe\n      0x26\n      swap2\n      codecopy\n      0x40\n      add\n      swap2\n      pop\n      pop\n      mload(0x40)\n      dup1\n      swap2\n      sub\n      swap1\n      revert\n    tag_178:\n        /* \"contracts/MonsterToken.sol\":15550:15558  newOwner */\n      dup1\n        /* \"contracts/MonsterToken.sol\":15521:15559  OwnershipTransferred(_owner, newOwner) */\n      0xffffffffffffffffffffffffffffffffffffffff\n      and\n        /* \"contracts/MonsterToken.sol\":15542:15548  _owner */\n      0x00\n      dup1\n      sload\n      swap1\n      0x0100\n      exp\n      swap1\n      div\n      0xffffffffffffffffffffffffffffffffffffffff\n      and\n        /* \"contracts/MonsterToken.sol\":15521:15559  OwnershipTransferred(_owner, newOwner) */\n      0xffffffffffffffffffffffffffffffffffffffff\n      and\n      0x8be0079c531659141344cd1fd0a4f28419497f9722a3daafe3b4186f6b6457e0\n      mload(0x40)\n      mload(0x40)\n      dup1\n      swap2\n      sub\n      swap1\n      log3\n        /* \"contracts/MonsterToken.sol\":15579:15587  newOwner */\n      dup1\n        /* \"contracts/MonsterToken.sol\":15570:15576  _owner */\n      0x00\n      dup1\n        /* \"contracts/MonsterToken.sol\":15570:15587  _owner = newOwner */\n      0x0100\n      exp\n      dup2\n      sload\n      dup2\n      0xffffffffffffffffffffffffffffffffffffffff\n      mul\n      not\n      and\n      swap1\n      dup4\n      0xffffffffffffffffffffffffffffffffffffffff\n      and\n      mul\n      or\n      swap1\n      sstore\n      pop\n        /* \"contracts/MonsterToken.sol\":15351:15595  function transferOwnership(address newOwner) public virtual onlyOwner {\r... */\n      pop\n      jump\t// out\n        /* \"contracts/MonsterToken.sol\":20101:20579  function includeAccount(address account) external onlyOwner() {\r... */\n    tag_90:\n        /* \"contracts/MonsterToken.sol\":14628:14640  _msgSender() */\n      tag_180\n        /* \"contracts/MonsterToken.sol\":14628:14638  _msgSender */\n      tag_93\n        /* \"contracts/MonsterToken.sol\":14628:14640  _msgSender() */\n      jump\t// in\n    tag_180:\n        /* \"contracts/MonsterToken.sol\":14618:14640  _owner == _msgSender() */\n      0xffffffffffffffffffffffffffffffffffffffff\n      and\n        /* \"contracts/MonsterToken.sol\":14618:14624  _owner */\n      0x00\n      dup1\n      sload\n      swap1\n      0x0100\n      exp\n      swap1\n      div\n      0xffffffffffffffffffffffffffffffffffffffff\n      and\n        /* \"contracts/MonsterToken.sol\":14618:14640  _owner == _msgSender() */\n      0xffffffffffffffffffffffffffffffffffffffff\n      and\n      eq\n        /* \"contracts/MonsterToken.sol\":14610:14677  require(_owner == _msgSender(), \"Ownable: caller is not the owner\") */\n      tag_181\n      jumpi\n      mload(0x40)\n      0x08c379a000000000000000000000000000000000000000000000000000000000\n      dup2\n      mstore\n      0x04\n      add\n      dup1\n      dup1\n      0x20\n      add\n      dup3\n      dup2\n      sub\n      dup3\n      mstore\n      0x20\n      dup2\n      mstore\n      0x20\n      add\n      dup1\n      0x4f776e61626c653a2063616c6c6572206973206e6f7420746865206f776e6572\n      dup2\n      mstore\n      pop\n      0x20\n      add\n      swap2\n      pop\n      pop\n      mload(0x40)\n      dup1\n      swap2\n      sub\n      swap1\n      revert\n    tag_181:\n        /* \"contracts/MonsterToken.sol\":20182:20193  _isExcluded */\n      0x04\n        /* \"contracts/MonsterToken.sol\":20182:20202  _isExcluded[account] */\n      0x00\n        /* \"contracts/MonsterToken.sol\":20194:20201  account */\n      dup3\n        /* \"contracts/MonsterToken.sol\":20182:20202  _isExcluded[account] */\n      0xffffffffffffffffffffffffffffffffffffffff\n      and\n      0xffffffffffffffffffffffffffffffffffffffff\n      and\n      dup2\n      mstore\n      0x20\n      add\n      swap1\n      dup2\n      mstore\n      0x20\n      add\n      0x00\n      keccak256\n      0x00\n      swap1\n      sload\n      swap1\n      0x0100\n      exp\n      swap1\n      div\n      0xff\n      and\n        /* \"contracts/MonsterToken.sol\":20174:20234  require(_isExcluded[account], \"Account is already excluded\") */\n      tag_183\n      jumpi\n      mload(0x40)\n      0x08c379a000000000000000000000000000000000000000000000000000000000\n      dup2\n      mstore\n      0x04\n      add\n      dup1\n      dup1\n      0x20\n      add\n      dup3\n      dup2\n      sub\n      dup3\n      mstore\n      0x1b\n      dup2\n      mstore\n      0x20\n      add\n      dup1\n      0x4163636f756e7420697320616c7265616479206578636c756465640000000000\n      dup2\n      mstore\n      pop\n      0x20\n      add\n      swap2\n      pop\n      pop\n      mload(0x40)\n      dup1\n      swap2\n      sub\n      swap1\n      revert\n    tag_183:\n        /* \"contracts/MonsterToken.sol\":20250:20259  uint256 i */\n      0x00\n        /* \"contracts/MonsterToken.sol\":20245:20572  for (uint256 i = 0; i < _excluded.length; i++) {\r... */\n    tag_184:\n        /* \"contracts/MonsterToken.sol\":20269:20278  _excluded */\n      0x05\n        /* \"contracts/MonsterToken.sol\":20269:20285  _excluded.length */\n      dup1\n      sload\n      swap1\n      pop\n        /* \"contracts/MonsterToken.sol\":20265:20266  i */\n      dup2\n        /* \"contracts/MonsterToken.sol\":20265:20285  i < _excluded.length */\n      lt\n        /* \"contracts/MonsterToken.sol\":20245:20572  for (uint256 i = 0; i < _excluded.length; i++) {\r... */\n      iszero\n      tag_185\n      jumpi\n        /* \"contracts/MonsterToken.sol\":20327:20334  account */\n      dup2\n        /* \"contracts/MonsterToken.sol\":20311:20334  _excluded[i] == account */\n      0xffffffffffffffffffffffffffffffffffffffff\n      and\n        /* \"contracts/MonsterToken.sol\":20311:20320  _excluded */\n      0x05\n        /* \"contracts/MonsterToken.sol\":20321:20322  i */\n      dup3\n        /* \"contracts/MonsterToken.sol\":20311:20323  _excluded[i] */\n      dup2\n      sload\n      dup2\n      lt\n      tag_187\n      jumpi\n      invalid\n    tag_187:\n      swap1\n      0x00\n      mstore\n      keccak256(0x00, 0x20)\n      add\n      0x00\n      swap1\n      sload\n      swap1\n      0x0100\n      exp\n      swap1\n      div\n      0xffffffffffffffffffffffffffffffffffffffff\n      and\n        /* \"contracts/MonsterToken.sol\":20311:20334  _excluded[i] == account */\n      0xffffffffffffffffffffffffffffffffffffffff\n      and\n      eq\n        /* \"contracts/MonsterToken.sol\":20307:20561  if (_excluded[i] == account) {\r... */\n      iszero\n      tag_189\n      jumpi\n        /* \"contracts/MonsterToken.sol\":20370:20379  _excluded */\n      0x05\n        /* \"contracts/MonsterToken.sol\":20399:20400  1 */\n      0x01\n        /* \"contracts/MonsterToken.sol\":20380:20389  _excluded */\n      0x05\n        /* \"contracts/MonsterToken.sol\":20380:20396  _excluded.length */\n      dup1\n      sload\n      swap1\n      pop\n        /* \"contracts/MonsterToken.sol\":20380:20400  _excluded.length - 1 */\n      sub\n        /* \"contracts/MonsterToken.sol\":20370:20401  _excluded[_excluded.length - 1] */\n      dup2\n      sload\n      dup2\n      lt\n      tag_190\n      jumpi\n      invalid\n    tag_190:\n      swap1\n      0x00\n      mstore\n      keccak256(0x00, 0x20)\n      add\n      0x00\n      swap1\n      sload\n      swap1\n      0x0100\n      exp\n      swap1\n      div\n      0xffffffffffffffffffffffffffffffffffffffff\n      and\n        /* \"contracts/MonsterToken.sol\":20355:20364  _excluded */\n      0x05\n        /* \"contracts/MonsterToken.sol\":20365:20366  i */\n      dup3\n        /* \"contracts/MonsterToken.sol\":20355:20367  _excluded[i] */\n      dup2\n      sload\n      dup2\n      lt\n      tag_192\n      jumpi\n      invalid\n    tag_192:\n      swap1\n      0x00\n      mstore\n      keccak256(0x00, 0x20)\n      add\n      0x00\n        /* \"contracts/MonsterToken.sol\":20355:20401  _excluded[i] = _excluded[_excluded.length - 1] */\n      0x0100\n      exp\n      dup2\n      sload\n      dup2\n      0xffffffffffffffffffffffffffffffffffffffff\n      mul\n      not\n      and\n      swap1\n      dup4\n      0xffffffffffffffffffffffffffffffffffffffff\n      and\n      mul\n      or\n      swap1\n      sstore\n      pop\n        /* \"contracts/MonsterToken.sol\":20439:20440  0 */\n      0x00\n        /* \"contracts/MonsterToken.sol\":20420:20427  _tOwned */\n      0x02\n        /* \"contracts/MonsterToken.sol\":20420:20436  _tOwned[account] */\n      0x00\n        /* \"contracts/MonsterToken.sol\":20428:20435  account */\n      dup5\n        /* \"contracts/MonsterToken.sol\":20420:20436  _tOwned[account] */\n      0xffffffffffffffffffffffffffffffffffffffff\n      and\n      0xffffffffffffffffffffffffffffffffffffffff\n      and\n      dup2\n      mstore\n      0x20\n      add\n      swap1\n      dup2\n      mstore\n      0x20\n      add\n      0x00\n      keccak256\n        /* \"contracts/MonsterToken.sol\":20420:20440  _tOwned[account] = 0 */\n      dup2\n      swap1\n      sstore\n      pop\n        /* \"contracts/MonsterToken.sol\":20482:20487  false */\n      0x00\n        /* \"contracts/MonsterToken.sol\":20459:20470  _isExcluded */\n      0x04\n        /* \"contracts/MonsterToken.sol\":20459:20479  _isExcluded[account] */\n      0x00\n        /* \"contracts/MonsterToken.sol\":20471:20478  account */\n      dup5\n        /* \"contracts/MonsterToken.sol\":20459:20479  _isExcluded[account] */\n      0xffffffffffffffffffffffffffffffffffffffff\n      and\n      0xffffffffffffffffffffffffffffffffffffffff\n      and\n      dup2\n      mstore\n      0x20\n      add\n      swap1\n      dup2\n      mstore\n      0x20\n      add\n      0x00\n      keccak256\n      0x00\n        /* \"contracts/MonsterToken.sol\":20459:20487  _isExcluded[account] = false */\n      0x0100\n      exp\n      dup2\n      sload\n      dup2\n      0xff\n      mul\n      not\n      and\n      swap1\n      dup4\n      iszero\n      iszero\n      mul\n      or\n      swap1\n      sstore\n      pop\n        /* \"contracts/MonsterToken.sol\":20506:20515  _excluded */\n      0x05\n        /* \"contracts/MonsterToken.sol\":20506:20521  _excluded.pop() */\n      dup1\n      sload\n      dup1\n      tag_194\n      jumpi\n      invalid\n    tag_194:\n      0x01\n      swap1\n      sub\n      dup2\n      dup2\n      swap1\n      0x00\n      mstore\n      keccak256(0x00, 0x20)\n      add\n      exp(0x0100, 0x00)\n      dup2\n      sload\n      swap1\n      0xffffffffffffffffffffffffffffffffffffffff\n      mul\n      not\n      and\n      swap1\n      sstore\n      swap1\n      sstore\n        /* \"contracts/MonsterToken.sol\":20540:20545  break */\n      jump(tag_185)\n        /* \"contracts/MonsterToken.sol\":20307:20561  if (_excluded[i] == account) {\r... */\n    tag_189:\n        /* \"contracts/MonsterToken.sol\":20287:20290  i++ */\n      dup1\n      dup1\n      0x01\n      add\n      swap2\n      pop\n      pop\n        /* \"contracts/MonsterToken.sol\":20245:20572  for (uint256 i = 0; i < _excluded.length; i++) {\r... */\n      jump(tag_184)\n    tag_185:\n      pop\n        /* \"contracts/MonsterToken.sol\":20101:20579  function includeAccount(address account) external onlyOwner() {\r... */\n      pop\n      jump\t// out\n        /* \"contracts/MonsterToken.sol\":101:207  function _msgSender() internal view virtual returns (address payable) {\r... */\n    tag_93:\n        /* \"contracts/MonsterToken.sol\":154:169  address payable */\n      0x00\n        /* \"contracts/MonsterToken.sol\":189:199  msg.sender */\n      caller\n        /* \"contracts/MonsterToken.sol\":182:199  return msg.sender */\n      swap1\n      pop\n        /* \"contracts/MonsterToken.sol\":101:207  function _msgSender() internal view virtual returns (address payable) {\r... */\n      swap1\n      jump\t// out\n        /* \"contracts/MonsterToken.sol\":24133:24544  function _getValues(uint256 tAmount) private view returns (uint256, uint256, uint256, uint256, uint256) {\r... */\n    tag_96:\n        /* \"contracts/MonsterToken.sol\":24192:24199  uint256 */\n      0x00\n        /* \"contracts/MonsterToken.sol\":24201:24208  uint256 */\n      dup1\n        /* \"contracts/MonsterToken.sol\":24210:24217  uint256 */\n      0x00\n        /* \"contracts/MonsterToken.sol\":24219:24226  uint256 */\n      dup1\n        /* \"contracts/MonsterToken.sol\":24228:24235  uint256 */\n      0x00\n        /* \"contracts/MonsterToken.sol\":24249:24272  uint256 tTransferAmount */\n      dup1\n        /* \"contracts/MonsterToken.sol\":24274:24286  uint256 tFee */\n      0x00\n        /* \"contracts/MonsterToken.sol\":24290:24310  _getTValues(tAmount) */\n      tag_198\n        /* \"contracts/MonsterToken.sol\":24302:24309  tAmount */\n      dup9\n        /* \"contracts/MonsterToken.sol\":24290:24301  _getTValues */\n      tag_199\n        /* \"contracts/MonsterToken.sol\":24290:24310  _getTValues(tAmount) */\n      jump\t// in\n    tag_198:\n        /* \"contracts/MonsterToken.sol\":24248:24310  (uint256 tTransferAmount, uint256 tFee) = _getTValues(tAmount) */\n      swap2\n      pop\n      swap2\n      pop\n        /* \"contracts/MonsterToken.sol\":24321:24340  uint256 currentRate */\n      0x00\n        /* \"contracts/MonsterToken.sol\":24344:24354  _getRate() */\n      tag_200\n        /* \"contracts/MonsterToken.sol\":24344:24352  _getRate */\n      tag_126\n        /* \"contracts/MonsterToken.sol\":24344:24354  _getRate() */\n      jump\t// in\n    tag_200:\n        /* \"contracts/MonsterToken.sol\":24321:24354  uint256 currentRate =  _getRate() */\n      swap1\n      pop\n        /* \"contracts/MonsterToken.sol\":24366:24381  uint256 rAmount */\n      0x00\n        /* \"contracts/MonsterToken.sol\":24383:24406  uint256 rTransferAmount */\n      dup1\n        /* \"contracts/MonsterToken.sol\":24408:24420  uint256 rFee */\n      0x00\n        /* \"contracts/MonsterToken.sol\":24424:24463  _getRValues(tAmount, tFee, currentRate) */\n      tag_201\n        /* \"contracts/MonsterToken.sol\":24436:24443  tAmount */\n      dup13\n        /* \"contracts/MonsterToken.sol\":24445:24449  tFee */\n      dup7\n        /* \"contracts/MonsterToken.sol\":24451:24462  currentRate */\n      dup7\n        /* \"contracts/MonsterToken.sol\":24424:24435  _getRValues */\n      tag_202\n        /* \"contracts/MonsterToken.sol\":24424:24463  _getRValues(tAmount, tFee, currentRate) */\n      jump\t// in\n    tag_201:\n        /* \"contracts/MonsterToken.sol\":24365:24463  (uint256 rAmount, uint256 rTransferAmount, uint256 rFee) = _getRValues(tAmount, tFee, currentRate) */\n      swap3\n      pop\n      swap3\n      pop\n      swap3\n      pop\n        /* \"contracts/MonsterToken.sol\":24482:24489  rAmount */\n      dup3\n        /* \"contracts/MonsterToken.sol\":24491:24506  rTransferAmount */\n      dup3\n        /* \"contracts/MonsterToken.sol\":24508:24512  rFee */\n      dup3\n        /* \"contracts/MonsterToken.sol\":24514:24529  tTransferAmount */\n      dup9\n        /* \"contracts/MonsterToken.sol\":24531:24535  tFee */\n      dup9\n        /* \"contracts/MonsterToken.sol\":24474:24536  return (rAmount, rTransferAmount, rFee, tTransferAmount, tFee) */\n      swap11\n      pop\n      swap11\n      pop\n      swap11\n      pop\n      swap11\n      pop\n      swap11\n      pop\n      pop\n      pop\n      pop\n      pop\n      pop\n      pop\n        /* \"contracts/MonsterToken.sol\":24133:24544  function _getValues(uint256 tAmount) private view returns (uint256, uint256, uint256, uint256, uint256) {\r... */\n      swap2\n      swap4\n      swap6\n      swap1\n      swap3\n      swap5\n      pop\n      jump\t// out\n        /* \"contracts/MonsterToken.sol\":3821:3957  function sub(uint256 a, uint256 b) internal pure returns (uint256) {\r... */\n    tag_98:\n        /* \"contracts/MonsterToken.sol\":3879:3886  uint256 */\n      0x00\n        /* \"contracts/MonsterToken.sol\":3906:3949  sub(a, b, \"SafeMath: subtraction overflow\") */\n      tag_204\n        /* \"contracts/MonsterToken.sol\":3910:3911  a */\n      dup4\n        /* \"contracts/MonsterToken.sol\":3913:3914  b */\n      dup4\n        /* \"contracts/MonsterToken.sol\":3906:3949  sub(a, b, \"SafeMath: subtraction overflow\") */\n      mload(0x40)\n      dup1\n      0x40\n      add\n      0x40\n      mstore\n      dup1\n      0x1e\n      dup2\n      mstore\n      0x20\n      add\n      0x536166654d6174683a207375627472616374696f6e206f766572666c6f770000\n      dup2\n      mstore\n      pop\n        /* \"contracts/MonsterToken.sol\":3906:3909  sub */\n      tag_122\n        /* \"contracts/MonsterToken.sol\":3906:3949  sub(a, b, \"SafeMath: subtraction overflow\") */\n      jump\t// in\n    tag_204:\n        /* \"contracts/MonsterToken.sol\":3899:3949  return sub(a, b, \"SafeMath: subtraction overflow\") */\n      swap1\n      pop\n        /* \"contracts/MonsterToken.sol\":3821:3957  function sub(uint256 a, uint256 b) internal pure returns (uint256) {\r... */\n      swap3\n      swap2\n      pop\n      pop\n      jump\t// out\n        /* \"contracts/MonsterToken.sol\":3357:3538  function add(uint256 a, uint256 b) internal pure returns (uint256) {\r... */\n    tag_101:\n        /* \"contracts/MonsterToken.sol\":3415:3422  uint256 */\n      0x00\n        /* \"contracts/MonsterToken.sol\":3435:3444  uint256 c */\n      dup1\n        /* \"contracts/MonsterToken.sol\":3451:3452  b */\n      dup3\n        /* \"contracts/MonsterToken.sol\":3447:3448  a */\n      dup5\n        /* \"contracts/MonsterToken.sol\":3447:3452  a + b */\n      add\n        /* \"contracts/MonsterToken.sol\":3435:3452  uint256 c = a + b */\n      swap1\n      pop\n        /* \"contracts/MonsterToken.sol\":3476:3477  a */\n      dup4\n        /* \"contracts/MonsterToken.sol\":3471:3472  c */\n      dup2\n        /* \"contracts/MonsterToken.sol\":3471:3477  c >= a */\n      lt\n      iszero\n        /* \"contracts/MonsterToken.sol\":3463:3509  require(c >= a, \"SafeMath: addition overflow\") */\n      tag_206\n      jumpi\n      mload(0x40)\n      0x08c379a000000000000000000000000000000000000000000000000000000000\n      dup2\n      mstore\n      0x04\n      add\n      dup1\n      dup1\n      0x20\n      add\n      dup3\n      dup2\n      sub\n      dup3\n      mstore\n      0x1b\n      dup2\n      mstore\n      0x20\n      add\n      dup1\n      0x536166654d6174683a206164646974696f6e206f766572666c6f770000000000\n      dup2\n      mstore\n      pop\n      0x20\n      add\n      swap2\n      pop\n      pop\n      mload(0x40)\n      dup1\n      swap2\n      sub\n      swap1\n      revert\n    tag_206:\n        /* \"contracts/MonsterToken.sol\":3529:3530  c */\n      dup1\n        /* \"contracts/MonsterToken.sol\":3522:3530  return c */\n      swap2\n      pop\n      pop\n        /* \"contracts/MonsterToken.sol\":3357:3538  function add(uint256 a, uint256 b) internal pure returns (uint256) {\r... */\n      swap3\n      swap2\n      pop\n      pop\n      jump\t// out\n        /* \"contracts/MonsterToken.sol\":20587:20924  function _approve(address owner, address spender, uint256 amount) private {\r... */\n    tag_109:\n        /* \"contracts/MonsterToken.sol\":20697:20698  0 */\n      0x00\n        /* \"contracts/MonsterToken.sol\":20680:20699  owner != address(0) */\n      0xffffffffffffffffffffffffffffffffffffffff\n      and\n        /* \"contracts/MonsterToken.sol\":20680:20685  owner */\n      dup4\n        /* \"contracts/MonsterToken.sol\":20680:20699  owner != address(0) */\n      0xffffffffffffffffffffffffffffffffffffffff\n      and\n      eq\n      iszero\n        /* \"contracts/MonsterToken.sol\":20672:20740  require(owner != address(0), \"ERC20: approve from the zero address\") */\n      tag_208\n      jumpi\n      mload(0x40)\n      0x08c379a000000000000000000000000000000000000000000000000000000000\n      dup2\n      mstore\n      0x04\n      add\n      dup1\n      dup1\n      0x20\n      add\n      dup3\n      dup2\n      sub\n      dup3\n      mstore\n      0x24\n      dup2\n      mstore\n      0x20\n      add\n      dup1\n      data_c953f4879035ed60e766b34720f656aab5c697b141d924c283124ecedb91c208\n      0x24\n      swap2\n      codecopy\n      0x40\n      add\n      swap2\n      pop\n      pop\n      mload(0x40)\n      dup1\n      swap2\n      sub\n      swap1\n      revert\n    tag_208:\n        /* \"contracts/MonsterToken.sol\":20778:20779  0 */\n      0x00\n        /* \"contracts/MonsterToken.sol\":20759:20780  spender != address(0) */\n      0xffffffffffffffffffffffffffffffffffffffff\n      and\n        /* \"contracts/MonsterToken.sol\":20759:20766  spender */\n      dup3\n        /* \"contracts/MonsterToken.sol\":20759:20780  spender != address(0) */\n      0xffffffffffffffffffffffffffffffffffffffff\n      and\n      eq\n      iszero\n        /* \"contracts/MonsterToken.sol\":20751:20819  require(spender != address(0), \"ERC20: approve to the zero address\") */\n      tag_209\n      jumpi\n      mload(0x40)\n      0x08c379a000000000000000000000000000000000000000000000000000000000\n      dup2\n      mstore\n      0x04\n      add\n      dup1\n      dup1\n      0x20\n      add\n      dup3\n      dup2\n      sub\n      dup3\n      mstore\n      0x22\n      dup2\n      mstore\n      0x20\n      add\n      dup1\n      data_24883cc5fe64ace9d0df1893501ecb93c77180f0ff69cca79affb3c316dc8029\n      0x22\n      swap2\n      codecopy\n      0x40\n      add\n      swap2\n      pop\n      pop\n      mload(0x40)\n      dup1\n      swap2\n      sub\n      swap1\n      revert\n    tag_209:\n        /* \"contracts/MonsterToken.sol\":20862:20868  amount */\n      dup1\n        /* \"contracts/MonsterToken.sol\":20832:20843  _allowances */\n      0x03\n        /* \"contracts/MonsterToken.sol\":20832:20850  _allowances[owner] */\n      0x00\n        /* \"contracts/MonsterToken.sol\":20844:20849  owner */\n      dup6\n        /* \"contracts/MonsterToken.sol\":20832:20850  _allowances[owner] */\n      0xffffffffffffffffffffffffffffffffffffffff\n      and\n      0xffffffffffffffffffffffffffffffffffffffff\n      and\n      dup2\n      mstore\n      0x20\n      add\n      swap1\n      dup2\n      mstore\n      0x20\n      add\n      0x00\n      keccak256\n        /* \"contracts/MonsterToken.sol\":20832:20859  _allowances[owner][spender] */\n      0x00\n        /* \"contracts/MonsterToken.sol\":20851:20858  spender */\n      dup5\n        /* \"contracts/MonsterToken.sol\":20832:20859  _allowances[owner][spender] */\n      0xffffffffffffffffffffffffffffffffffffffff\n      and\n      0xffffffffffffffffffffffffffffffffffffffff\n      and\n      dup2\n      mstore\n      0x20\n      add\n      swap1\n      dup2\n      mstore\n      0x20\n      add\n      0x00\n      keccak256\n        /* \"contracts/MonsterToken.sol\":20832:20868  _allowances[owner][spender] = amount */\n      dup2\n      swap1\n      sstore\n      pop\n        /* \"contracts/MonsterToken.sol\":20900:20907  spender */\n      dup2\n        /* \"contracts/MonsterToken.sol\":20884:20916  Approval(owner, spender, amount) */\n      0xffffffffffffffffffffffffffffffffffffffff\n      and\n        /* \"contracts/MonsterToken.sol\":20893:20898  owner */\n      dup4\n        /* \"contracts/MonsterToken.sol\":20884:20916  Approval(owner, spender, amount) */\n      0xffffffffffffffffffffffffffffffffffffffff\n      and\n      0x8c5be1e5ebec7d5bd14f71427d1e84f3dd0314c0f7b2291e5b200ac8c7c3b925\n        /* \"contracts/MonsterToken.sol\":20909:20915  amount */\n      dup4\n        /* \"contracts/MonsterToken.sol\":20884:20916  Approval(owner, spender, amount) */\n      mload(0x40)\n      dup1\n      dup3\n      dup2\n      mstore\n      0x20\n      add\n      swap2\n      pop\n      pop\n      mload(0x40)\n      dup1\n      swap2\n      sub\n      swap1\n      log3\n        /* \"contracts/MonsterToken.sol\":20587:20924  function _approve(address owner, address spender, uint256 amount) private {\r... */\n      pop\n      pop\n      pop\n      jump\t// out\n        /* \"contracts/MonsterToken.sol\":20932:21863  function _transfer(address sender, address recipient, uint256 amount) private {\r... */\n    tag_117:\n        /* \"contracts/MonsterToken.sol\":21047:21048  0 */\n      0x00\n        /* \"contracts/MonsterToken.sol\":21029:21049  sender != address(0) */\n      0xffffffffffffffffffffffffffffffffffffffff\n      and\n        /* \"contracts/MonsterToken.sol\":21029:21035  sender */\n      dup4\n        /* \"contracts/MonsterToken.sol\":21029:21049  sender != address(0) */\n      0xffffffffffffffffffffffffffffffffffffffff\n      and\n      eq\n      iszero\n        /* \"contracts/MonsterToken.sol\":21021:21091  require(sender != address(0), \"ERC20: transfer from the zero address\") */\n      tag_211\n      jumpi\n      mload(0x40)\n      0x08c379a000000000000000000000000000000000000000000000000000000000\n      dup2\n      mstore\n      0x04\n      add\n      dup1\n      dup1\n      0x20\n      add\n      dup3\n      dup2\n      sub\n      dup3\n      mstore\n      0x25\n      dup2\n      mstore\n      0x20\n      add\n      dup1\n      data_baecc556b46f4ed0f2b4cb599d60785ac8563dd2dc0a5bf12edea1c39e5e1fea\n      0x25\n      swap2\n      codecopy\n      0x40\n      add\n      swap2\n      pop\n      pop\n      mload(0x40)\n      dup1\n      swap2\n      sub\n      swap1\n      revert\n    tag_211:\n        /* \"contracts/MonsterToken.sol\":21131:21132  0 */\n      0x00\n        /* \"contracts/MonsterToken.sol\":21110:21133  recipient != address(0) */\n      0xffffffffffffffffffffffffffffffffffffffff\n      and\n        /* \"contracts/MonsterToken.sol\":21110:21119  recipient */\n      dup3\n        /* \"contracts/MonsterToken.sol\":21110:21133  recipient != address(0) */\n      0xffffffffffffffffffffffffffffffffffffffff\n      and\n      eq\n      iszero\n        /* \"contracts/MonsterToken.sol\":21102:21173  require(recipient != address(0), \"ERC20: transfer to the zero address\") */\n      tag_212\n      jumpi\n      mload(0x40)\n      0x08c379a000000000000000000000000000000000000000000000000000000000\n      dup2\n      mstore\n      0x04\n      add\n      dup1\n      dup1\n      0x20\n      add\n      dup3\n      dup2\n      sub\n      dup3\n      mstore\n      0x23\n      dup2\n      mstore\n      0x20\n      add\n      dup1\n      data_0557e210f7a69a685100a7e4e3d0a7024c546085cee28910fd17d0b081d9516f\n      0x23\n      swap2\n      codecopy\n      0x40\n      add\n      swap2\n      pop\n      pop\n      mload(0x40)\n      dup1\n      swap2\n      sub\n      swap1\n      revert\n    tag_212:\n        /* \"contracts/MonsterToken.sol\":21201:21202  0 */\n      0x00\n        /* \"contracts/MonsterToken.sol\":21192:21198  amount */\n      dup2\n        /* \"contracts/MonsterToken.sol\":21192:21202  amount > 0 */\n      gt\n        /* \"contracts/MonsterToken.sol\":21184:21248  require(amount > 0, \"Transfer amount must be greater than zero\") */\n      tag_213\n      jumpi\n      mload(0x40)\n      0x08c379a000000000000000000000000000000000000000000000000000000000\n      dup2\n      mstore\n      0x04\n      add\n      dup1\n      dup1\n      0x20\n      add\n      dup3\n      dup2\n      sub\n      dup3\n      mstore\n      0x29\n      dup2\n      mstore\n      0x20\n      add\n      dup1\n      data_9edb5ab58321f35d2386ea65721c9b107daa2c273610fc16d394af2a320ba785\n      0x29\n      swap2\n      codecopy\n      0x40\n      add\n      swap2\n      pop\n      pop\n      mload(0x40)\n      dup1\n      swap2\n      sub\n      swap1\n      revert\n    tag_213:\n        /* \"contracts/MonsterToken.sol\":21263:21274  _isExcluded */\n      0x04\n        /* \"contracts/MonsterToken.sol\":21263:21282  _isExcluded[sender] */\n      0x00\n        /* \"contracts/MonsterToken.sol\":21275:21281  sender */\n      dup5\n        /* \"contracts/MonsterToken.sol\":21263:21282  _isExcluded[sender] */\n      0xffffffffffffffffffffffffffffffffffffffff\n      and\n      0xffffffffffffffffffffffffffffffffffffffff\n      and\n      dup2\n      mstore\n      0x20\n      add\n      swap1\n      dup2\n      mstore\n      0x20\n      add\n      0x00\n      keccak256\n      0x00\n      swap1\n      sload\n      swap1\n      0x0100\n      exp\n      swap1\n      div\n      0xff\n      and\n        /* \"contracts/MonsterToken.sol\":21263:21309  _isExcluded[sender] && !_isExcluded[recipient] */\n      dup1\n      iszero\n      tag_214\n      jumpi\n      pop\n        /* \"contracts/MonsterToken.sol\":21287:21298  _isExcluded */\n      0x04\n        /* \"contracts/MonsterToken.sol\":21287:21309  _isExcluded[recipient] */\n      0x00\n        /* \"contracts/MonsterToken.sol\":21299:21308  recipient */\n      dup4\n        /* \"contracts/MonsterToken.sol\":21287:21309  _isExcluded[recipient] */\n      0xffffffffffffffffffffffffffffffffffffffff\n      and\n      0xffffffffffffffffffffffffffffffffffffffff\n      and\n      dup2\n      mstore\n      0x20\n      add\n      swap1\n      dup2\n      mstore\n      0x20\n      add\n      0x00\n      keccak256\n      0x00\n      swap1\n      sload\n      swap1\n      0x0100\n      exp\n      swap1\n      div\n      0xff\n      and\n        /* \"contracts/MonsterToken.sol\":21286:21309  !_isExcluded[recipient] */\n      iszero\n        /* \"contracts/MonsterToken.sol\":21263:21309  _isExcluded[sender] && !_isExcluded[recipient] */\n    tag_214:\n        /* \"contracts/MonsterToken.sol\":21259:21856  if (_isExcluded[sender] && !_isExcluded[recipient]) {\r... */\n      iszero\n      tag_215\n      jumpi\n        /* \"contracts/MonsterToken.sol\":21326:21374  _transferFromExcluded(sender, recipient, amount) */\n      tag_216\n        /* \"contracts/MonsterToken.sol\":21348:21354  sender */\n      dup4\n        /* \"contracts/MonsterToken.sol\":21356:21365  recipient */\n      dup4\n        /* \"contracts/MonsterToken.sol\":21367:21373  amount */\n      dup4\n        /* \"contracts/MonsterToken.sol\":21326:21347  _transferFromExcluded */\n      tag_217\n        /* \"contracts/MonsterToken.sol\":21326:21374  _transferFromExcluded(sender, recipient, amount) */\n      jump\t// in\n    tag_216:\n        /* \"contracts/MonsterToken.sol\":21259:21856  if (_isExcluded[sender] && !_isExcluded[recipient]) {\r... */\n      jump(tag_218)\n    tag_215:\n        /* \"contracts/MonsterToken.sol\":21397:21408  _isExcluded */\n      0x04\n        /* \"contracts/MonsterToken.sol\":21397:21416  _isExcluded[sender] */\n      0x00\n        /* \"contracts/MonsterToken.sol\":21409:21415  sender */\n      dup5\n        /* \"contracts/MonsterToken.sol\":21397:21416  _isExcluded[sender] */\n      0xffffffffffffffffffffffffffffffffffffffff\n      and\n      0xffffffffffffffffffffffffffffffffffffffff\n      and\n      dup2\n      mstore\n      0x20\n      add\n      swap1\n      dup2\n      mstore\n      0x20\n      add\n      0x00\n      keccak256\n      0x00\n      swap1\n      sload\n      swap1\n      0x0100\n      exp\n      swap1\n      div\n      0xff\n      and\n        /* \"contracts/MonsterToken.sol\":21396:21416  !_isExcluded[sender] */\n      iszero\n        /* \"contracts/MonsterToken.sol\":21396:21442  !_isExcluded[sender] && _isExcluded[recipient] */\n      dup1\n      iszero\n      tag_219\n      jumpi\n      pop\n        /* \"contracts/MonsterToken.sol\":21420:21431  _isExcluded */\n      0x04\n        /* \"contracts/MonsterToken.sol\":21420:21442  _isExcluded[recipient] */\n      0x00\n        /* \"contracts/MonsterToken.sol\":21432:21441  recipient */\n      dup4\n        /* \"contracts/MonsterToken.sol\":21420:21442  _isExcluded[recipient] */\n      0xffffffffffffffffffffffffffffffffffffffff\n      and\n      0xffffffffffffffffffffffffffffffffffffffff\n      and\n      dup2\n      mstore\n      0x20\n      add\n      swap1\n      dup2\n      mstore\n      0x20\n      add\n      0x00\n      keccak256\n      0x00\n      swap1\n      sload\n      swap1\n      0x0100\n      exp\n      swap1\n      div\n      0xff\n      and\n        /* \"contracts/MonsterToken.sol\":21396:21442  !_isExcluded[sender] && _isExcluded[recipient] */\n    tag_219:\n        /* \"contracts/MonsterToken.sol\":21392:21856  if (!_isExcluded[sender] && _isExcluded[recipient]) {\r... */\n      iszero\n      tag_220\n      jumpi\n        /* \"contracts/MonsterToken.sol\":21459:21505  _transferToExcluded(sender, recipient, amount) */\n      tag_221\n        /* \"contracts/MonsterToken.sol\":21479:21485  sender */\n      dup4\n        /* \"contracts/MonsterToken.sol\":21487:21496  recipient */\n      dup4\n        /* \"contracts/MonsterToken.sol\":21498:21504  amount */\n      dup4\n        /* \"contracts/MonsterToken.sol\":21459:21478  _transferToExcluded */\n      tag_222\n        /* \"contracts/MonsterToken.sol\":21459:21505  _transferToExcluded(sender, recipient, amount) */\n      jump\t// in\n    tag_221:\n        /* \"contracts/MonsterToken.sol\":21392:21856  if (!_isExcluded[sender] && _isExcluded[recipient]) {\r... */\n      jump(tag_223)\n    tag_220:\n        /* \"contracts/MonsterToken.sol\":21528:21539  _isExcluded */\n      0x04\n        /* \"contracts/MonsterToken.sol\":21528:21547  _isExcluded[sender] */\n      0x00\n        /* \"contracts/MonsterToken.sol\":21540:21546  sender */\n      dup5\n        /* \"contracts/MonsterToken.sol\":21528:21547  _isExcluded[sender] */\n      0xffffffffffffffffffffffffffffffffffffffff\n      and\n      0xffffffffffffffffffffffffffffffffffffffff\n      and\n      dup2\n      mstore\n      0x20\n      add\n      swap1\n      dup2\n      mstore\n      0x20\n      add\n      0x00\n      keccak256\n      0x00\n      swap1\n      sload\n      swap1\n      0x0100\n      exp\n      swap1\n      div\n      0xff\n      and\n        /* \"contracts/MonsterToken.sol\":21527:21547  !_isExcluded[sender] */\n      iszero\n        /* \"contracts/MonsterToken.sol\":21527:21574  !_isExcluded[sender] && !_isExcluded[recipient] */\n      dup1\n      iszero\n      tag_224\n      jumpi\n      pop\n        /* \"contracts/MonsterToken.sol\":21552:21563  _isExcluded */\n      0x04\n        /* \"contracts/MonsterToken.sol\":21552:21574  _isExcluded[recipient] */\n      0x00\n        /* \"contracts/MonsterToken.sol\":21564:21573  recipient */\n      dup4\n        /* \"contracts/MonsterToken.sol\":21552:21574  _isExcluded[recipient] */\n      0xffffffffffffffffffffffffffffffffffffffff\n      and\n      0xffffffffffffffffffffffffffffffffffffffff\n      and\n      dup2\n      mstore\n      0x20\n      add\n      swap1\n      dup2\n      mstore\n      0x20\n      add\n      0x00\n      keccak256\n      0x00\n      swap1\n      sload\n      swap1\n      0x0100\n      exp\n      swap1\n      div\n      0xff\n      and\n        /* \"contracts/MonsterToken.sol\":21551:21574  !_isExcluded[recipient] */\n      iszero\n        /* \"contracts/MonsterToken.sol\":21527:21574  !_isExcluded[sender] && !_isExcluded[recipient] */\n    tag_224:\n        /* \"contracts/MonsterToken.sol\":21523:21856  if (!_isExcluded[sender] && !_isExcluded[recipient]) {\r... */\n      iszero\n      tag_225\n      jumpi\n        /* \"contracts/MonsterToken.sol\":21591:21635  _transferStandard(sender, recipient, amount) */\n      tag_226\n        /* \"contracts/MonsterToken.sol\":21609:21615  sender */\n      dup4\n        /* \"contracts/MonsterToken.sol\":21617:21626  recipient */\n      dup4\n        /* \"contracts/MonsterToken.sol\":21628:21634  amount */\n      dup4\n        /* \"contracts/MonsterToken.sol\":21591:21608  _transferStandard */\n      tag_227\n        /* \"contracts/MonsterToken.sol\":21591:21635  _transferStandard(sender, recipient, amount) */\n      jump\t// in\n    tag_226:\n        /* \"contracts/MonsterToken.sol\":21523:21856  if (!_isExcluded[sender] && !_isExcluded[recipient]) {\r... */\n      jump(tag_228)\n    tag_225:\n        /* \"contracts/MonsterToken.sol\":21657:21668  _isExcluded */\n      0x04\n        /* \"contracts/MonsterToken.sol\":21657:21676  _isExcluded[sender] */\n      0x00\n        /* \"contracts/MonsterToken.sol\":21669:21675  sender */\n      dup5\n        /* \"contracts/MonsterToken.sol\":21657:21676  _isExcluded[sender] */\n      0xffffffffffffffffffffffffffffffffffffffff\n      and\n      0xffffffffffffffffffffffffffffffffffffffff\n      and\n      dup2\n      mstore\n      0x20\n      add\n      swap1\n      dup2\n      mstore\n      0x20\n      add\n      0x00\n      keccak256\n      0x00\n      swap1\n      sload\n      swap1\n      0x0100\n      exp\n      swap1\n      div\n      0xff\n      and\n        /* \"contracts/MonsterToken.sol\":21657:21702  _isExcluded[sender] && _isExcluded[recipient] */\n      dup1\n      iszero\n      tag_229\n      jumpi\n      pop\n        /* \"contracts/MonsterToken.sol\":21680:21691  _isExcluded */\n      0x04\n        /* \"contracts/MonsterToken.sol\":21680:21702  _isExcluded[recipient] */\n      0x00\n        /* \"contracts/MonsterToken.sol\":21692:21701  recipient */\n      dup4\n        /* \"contracts/MonsterToken.sol\":21680:21702  _isExcluded[recipient] */\n      0xffffffffffffffffffffffffffffffffffffffff\n      and\n      0xffffffffffffffffffffffffffffffffffffffff\n      and\n      dup2\n      mstore\n      0x20\n      add\n      swap1\n      dup2\n      mstore\n      0x20\n      add\n      0x00\n      keccak256\n      0x00\n      swap1\n      sload\n      swap1\n      0x0100\n      exp\n      swap1\n      div\n      0xff\n      and\n        /* \"contracts/MonsterToken.sol\":21657:21702  _isExcluded[sender] && _isExcluded[recipient] */\n    tag_229:\n        /* \"contracts/MonsterToken.sol\":21653:21856  if (_isExcluded[sender] && _isExcluded[recipient]) {\r... */\n      iszero\n      tag_230\n      jumpi\n        /* \"contracts/MonsterToken.sol\":21719:21767  _transferBothExcluded(sender, recipient, amount) */\n      tag_231\n        /* \"contracts/MonsterToken.sol\":21741:21747  sender */\n      dup4\n        /* \"contracts/MonsterToken.sol\":21749:21758  recipient */\n      dup4\n        /* \"contracts/MonsterToken.sol\":21760:21766  amount */\n      dup4\n        /* \"contracts/MonsterToken.sol\":21719:21740  _transferBothExcluded */\n      tag_232\n        /* \"contracts/MonsterToken.sol\":21719:21767  _transferBothExcluded(sender, recipient, amount) */\n      jump\t// in\n    tag_231:\n        /* \"contracts/MonsterToken.sol\":21653:21856  if (_isExcluded[sender] && _isExcluded[recipient]) {\r... */\n      jump(tag_233)\n    tag_230:\n        /* \"contracts/MonsterToken.sol\":21800:21844  _transferStandard(sender, recipient, amount) */\n      tag_234\n        /* \"contracts/MonsterToken.sol\":21818:21824  sender */\n      dup4\n        /* \"contracts/MonsterToken.sol\":21826:21835  recipient */\n      dup4\n        /* \"contracts/MonsterToken.sol\":21837:21843  amount */\n      dup4\n        /* \"contracts/MonsterToken.sol\":21800:21817  _transferStandard */\n      tag_227\n        /* \"contracts/MonsterToken.sol\":21800:21844  _transferStandard(sender, recipient, amount) */\n      jump\t// in\n    tag_234:\n        /* \"contracts/MonsterToken.sol\":21653:21856  if (_isExcluded[sender] && _isExcluded[recipient]) {\r... */\n    tag_233:\n        /* \"contracts/MonsterToken.sol\":21523:21856  if (!_isExcluded[sender] && !_isExcluded[recipient]) {\r... */\n    tag_228:\n        /* \"contracts/MonsterToken.sol\":21392:21856  if (!_isExcluded[sender] && _isExcluded[recipient]) {\r... */\n    tag_223:\n        /* \"contracts/MonsterToken.sol\":21259:21856  if (_isExcluded[sender] && !_isExcluded[recipient]) {\r... */\n    tag_218:\n        /* \"contracts/MonsterToken.sol\":20932:21863  function _transfer(address sender, address recipient, uint256 amount) private {\r... */\n      pop\n      pop\n      pop\n      jump\t// out\n        /* \"contracts/MonsterToken.sol\":4260:4452  function sub(uint256 a, uint256 b, string memory errorMessage) internal pure returns (uint256) {\r... */\n    tag_122:\n        /* \"contracts/MonsterToken.sol\":4346:4353  uint256 */\n      0x00\n        /* \"contracts/MonsterToken.sol\":4379:4380  a */\n      dup4\n        /* \"contracts/MonsterToken.sol\":4374:4375  b */\n      dup4\n        /* \"contracts/MonsterToken.sol\":4374:4380  b <= a */\n      gt\n      iszero\n        /* \"contracts/MonsterToken.sol\":4382:4394  errorMessage */\n      dup3\n        /* \"contracts/MonsterToken.sol\":4366:4395  require(b <= a, errorMessage) */\n      swap1\n      tag_236\n      jumpi\n      mload(0x40)\n      0x08c379a000000000000000000000000000000000000000000000000000000000\n      dup2\n      mstore\n      0x04\n      add\n      dup1\n      dup1\n      0x20\n      add\n      dup3\n      dup2\n      sub\n      dup3\n      mstore\n      dup4\n      dup2\n      dup2\n      mload\n      dup2\n      mstore\n      0x20\n      add\n      swap2\n      pop\n      dup1\n      mload\n      swap1\n      0x20\n      add\n      swap1\n      dup1\n      dup4\n      dup4\n      0x00\n    tag_237:\n      dup4\n      dup2\n      lt\n      iszero\n      tag_239\n      jumpi\n      dup1\n      dup3\n      add\n      mload\n      dup2\n      dup5\n      add\n      mstore\n      0x20\n      dup2\n      add\n      swap1\n      pop\n      jump(tag_237)\n    tag_239:\n      pop\n      pop\n      pop\n      pop\n      swap1\n      pop\n      swap1\n      dup2\n      add\n      swap1\n      0x1f\n      and\n      dup1\n      iszero\n      tag_240\n      jumpi\n      dup1\n      dup3\n      sub\n      dup1\n      mload\n      0x01\n      dup4\n      0x20\n      sub\n      0x0100\n      exp\n      sub\n      not\n      and\n      dup2\n      mstore\n      0x20\n      add\n      swap2\n      pop\n    tag_240:\n      pop\n      swap3\n      pop\n      pop\n      pop\n      mload(0x40)\n      dup1\n      swap2\n      sub\n      swap1\n      revert\n    tag_236:\n      pop\n        /* \"contracts/MonsterToken.sol\":4406:4415  uint256 c */\n      0x00\n        /* \"contracts/MonsterToken.sol\":4422:4423  b */\n      dup4\n        /* \"contracts/MonsterToken.sol\":4418:4419  a */\n      dup6\n        /* \"contracts/MonsterToken.sol\":4418:4423  a - b */\n      sub\n        /* \"contracts/MonsterToken.sol\":4406:4423  uint256 c = a - b */\n      swap1\n      pop\n        /* \"contracts/MonsterToken.sol\":4443:4444  c */\n      dup1\n        /* \"contracts/MonsterToken.sol\":4436:4444  return c */\n      swap2\n      pop\n      pop\n        /* \"contracts/MonsterToken.sol\":4260:4452  function sub(uint256 a, uint256 b, string memory errorMessage) internal pure returns (uint256) {\r... */\n      swap4\n      swap3\n      pop\n      pop\n      pop\n      jump\t// out\n        /* \"contracts/MonsterToken.sol\":25132:25295  function _getRate() private view returns(uint256) {\r... */\n    tag_126:\n        /* \"contracts/MonsterToken.sol\":25173:25180  uint256 */\n      0x00\n        /* \"contracts/MonsterToken.sol\":25194:25209  uint256 rSupply */\n      dup1\n        /* \"contracts/MonsterToken.sol\":25211:25226  uint256 tSupply */\n      0x00\n        /* \"contracts/MonsterToken.sol\":25230:25249  _getCurrentSupply() */\n      tag_242\n        /* \"contracts/MonsterToken.sol\":25230:25247  _getCurrentSupply */\n      tag_243\n        /* \"contracts/MonsterToken.sol\":25230:25249  _getCurrentSupply() */\n      jump\t// in\n    tag_242:\n        /* \"contracts/MonsterToken.sol\":25193:25249  (uint256 rSupply, uint256 tSupply) = _getCurrentSupply() */\n      swap2\n      pop\n      swap2\n      pop\n        /* \"contracts/MonsterToken.sol\":25267:25287  rSupply.div(tSupply) */\n      tag_244\n        /* \"contracts/MonsterToken.sol\":25279:25286  tSupply */\n      dup2\n        /* \"contracts/MonsterToken.sol\":25267:25274  rSupply */\n      dup4\n        /* \"contracts/MonsterToken.sol\":25267:25278  rSupply.div */\n      tag_128\n      swap1\n        /* \"contracts/MonsterToken.sol\":25267:25287  rSupply.div(tSupply) */\n      swap2\n      swap1\n      0xffffffff\n      and\n      jump\t// in\n    tag_244:\n        /* \"contracts/MonsterToken.sol\":25260:25287  return rSupply.div(tSupply) */\n      swap3\n      pop\n      pop\n      pop\n        /* \"contracts/MonsterToken.sol\":25132:25295  function _getRate() private view returns(uint256) {\r... */\n      swap1\n      jump\t// out\n        /* \"contracts/MonsterToken.sol\":5658:5790  function div(uint256 a, uint256 b) internal pure returns (uint256) {\r... */\n    tag_128:\n        /* \"contracts/MonsterToken.sol\":5716:5723  uint256 */\n      0x00\n        /* \"contracts/MonsterToken.sol\":5743:5782  div(a, b, \"SafeMath: division by zero\") */\n      tag_246\n        /* \"contracts/MonsterToken.sol\":5747:5748  a */\n      dup4\n        /* \"contracts/MonsterToken.sol\":5750:5751  b */\n      dup4\n        /* \"contracts/MonsterToken.sol\":5743:5782  div(a, b, \"SafeMath: division by zero\") */\n      mload(0x40)\n      dup1\n      0x40\n      add\n      0x40\n      mstore\n      dup1\n      0x1a\n      dup2\n      mstore\n      0x20\n      add\n      0x536166654d6174683a206469766973696f6e206279207a65726f000000000000\n      dup2\n      mstore\n      pop\n        /* \"contracts/MonsterToken.sol\":5743:5746  div */\n      tag_247\n        /* \"contracts/MonsterToken.sol\":5743:5782  div(a, b, \"SafeMath: division by zero\") */\n      jump\t// in\n    tag_246:\n        /* \"contracts/MonsterToken.sol\":5736:5782  return div(a, b, \"SafeMath: division by zero\") */\n      swap1\n      pop\n        /* \"contracts/MonsterToken.sol\":5658:5790  function div(uint256 a, uint256 b) internal pure returns (uint256) {\r... */\n      swap3\n      swap2\n      pop\n      pop\n      jump\t// out\n        /* \"contracts/MonsterToken.sol\":24552:24782  function _getTValues(uint256 tAmount) private pure returns (uint256, uint256) {\r... */\n    tag_199:\n        /* \"contracts/MonsterToken.sol\":24612:24619  uint256 */\n      0x00\n        /* \"contracts/MonsterToken.sol\":24621:24628  uint256 */\n      dup1\n        /* \"contracts/MonsterToken.sol\":24641:24653  uint256 tFee */\n      0x00\n        /* \"contracts/MonsterToken.sol\":24656:24679  tAmount.div(100).mul(2) */\n      tag_249\n        /* \"contracts/MonsterToken.sol\":24677:24678  2 */\n      0x02\n        /* \"contracts/MonsterToken.sol\":24656:24672  tAmount.div(100) */\n      tag_250\n        /* \"contracts/MonsterToken.sol\":24668:24671  100 */\n      0x64\n        /* \"contracts/MonsterToken.sol\":24656:24663  tAmount */\n      dup8\n        /* \"contracts/MonsterToken.sol\":24656:24667  tAmount.div */\n      tag_128\n      swap1\n        /* \"contracts/MonsterToken.sol\":24656:24672  tAmount.div(100) */\n      swap2\n      swap1\n      0xffffffff\n      and\n      jump\t// in\n    tag_250:\n        /* \"contracts/MonsterToken.sol\":24656:24676  tAmount.div(100).mul */\n      tag_251\n      swap1\n        /* \"contracts/MonsterToken.sol\":24656:24679  tAmount.div(100).mul(2) */\n      swap2\n      swap1\n      0xffffffff\n      and\n      jump\t// in\n    tag_249:\n        /* \"contracts/MonsterToken.sol\":24641:24679  uint256 tFee = tAmount.div(100).mul(2) */\n      swap1\n      pop\n        /* \"contracts/MonsterToken.sol\":24690:24713  uint256 tTransferAmount */\n      0x00\n        /* \"contracts/MonsterToken.sol\":24716:24733  tAmount.sub(tFee) */\n      tag_252\n        /* \"contracts/MonsterToken.sol\":24728:24732  tFee */\n      dup3\n        /* \"contracts/MonsterToken.sol\":24716:24723  tAmount */\n      dup7\n        /* \"contracts/MonsterToken.sol\":24716:24727  tAmount.sub */\n      tag_98\n      swap1\n        /* \"contracts/MonsterToken.sol\":24716:24733  tAmount.sub(tFee) */\n      swap2\n      swap1\n      0xffffffff\n      and\n      jump\t// in\n    tag_252:\n        /* \"contracts/MonsterToken.sol\":24690:24733  uint256 tTransferAmount = tAmount.sub(tFee) */\n      swap1\n      pop\n        /* \"contracts/MonsterToken.sol\":24752:24767  tTransferAmount */\n      dup1\n        /* \"contracts/MonsterToken.sol\":24769:24773  tFee */\n      dup3\n        /* \"contracts/MonsterToken.sol\":24744:24774  return (tTransferAmount, tFee) */\n      swap4\n      pop\n      swap4\n      pop\n      pop\n      pop\n        /* \"contracts/MonsterToken.sol\":24552:24782  function _getTValues(uint256 tAmount) private pure returns (uint256, uint256) {\r... */\n      swap2\n      pop\n      swap2\n      jump\t// out\n        /* \"contracts/MonsterToken.sol\":24790:25124  function _getRValues(uint256 tAmount, uint256 tFee, uint256 currentRate) private pure returns (uint256, uint256, uint256) {\r... */\n    tag_202:\n        /* \"contracts/MonsterToken.sol\":24885:24892  uint256 */\n      0x00\n        /* \"contracts/MonsterToken.sol\":24894:24901  uint256 */\n      dup1\n        /* \"contracts/MonsterToken.sol\":24903:24910  uint256 */\n      0x00\n        /* \"contracts/MonsterToken.sol\":24923:24938  uint256 rAmount */\n      dup1\n        /* \"contracts/MonsterToken.sol\":24941:24965  tAmount.mul(currentRate) */\n      tag_254\n        /* \"contracts/MonsterToken.sol\":24953:24964  currentRate */\n      dup6\n        /* \"contracts/MonsterToken.sol\":24941:24948  tAmount */\n      dup9\n        /* \"contracts/MonsterToken.sol\":24941:24952  tAmount.mul */\n      tag_251\n      swap1\n        /* \"contracts/MonsterToken.sol\":24941:24965  tAmount.mul(currentRate) */\n      swap2\n      swap1\n      0xffffffff\n      and\n      jump\t// in\n    tag_254:\n        /* \"contracts/MonsterToken.sol\":24923:24965  uint256 rAmount = tAmount.mul(currentRate) */\n      swap1\n      pop\n        /* \"contracts/MonsterToken.sol\":24976:24988  uint256 rFee */\n      0x00\n        /* \"contracts/MonsterToken.sol\":24991:25012  tFee.mul(currentRate) */\n      tag_255\n        /* \"contracts/MonsterToken.sol\":25000:25011  currentRate */\n      dup7\n        /* \"contracts/MonsterToken.sol\":24991:24995  tFee */\n      dup9\n        /* \"contracts/MonsterToken.sol\":24991:24999  tFee.mul */\n      tag_251\n      swap1\n        /* \"contracts/MonsterToken.sol\":24991:25012  tFee.mul(currentRate) */\n      swap2\n      swap1\n      0xffffffff\n      and\n      jump\t// in\n    tag_255:\n        /* \"contracts/MonsterToken.sol\":24976:25012  uint256 rFee = tFee.mul(currentRate) */\n      swap1\n      pop\n        /* \"contracts/MonsterToken.sol\":25023:25046  uint256 rTransferAmount */\n      0x00\n        /* \"contracts/MonsterToken.sol\":25049:25066  rAmount.sub(rFee) */\n      tag_256\n        /* \"contracts/MonsterToken.sol\":25061:25065  rFee */\n      dup3\n        /* \"contracts/MonsterToken.sol\":25049:25056  rAmount */\n      dup5\n        /* \"contracts/MonsterToken.sol\":25049:25060  rAmount.sub */\n      tag_98\n      swap1\n        /* \"contracts/MonsterToken.sol\":25049:25066  rAmount.sub(rFee) */\n      swap2\n      swap1\n      0xffffffff\n      and\n      jump\t// in\n    tag_256:\n        /* \"contracts/MonsterToken.sol\":25023:25066  uint256 rTransferAmount = rAmount.sub(rFee) */\n      swap1\n      pop\n        /* \"contracts/MonsterToken.sol\":25085:25092  rAmount */\n      dup3\n        /* \"contracts/MonsterToken.sol\":25094:25109  rTransferAmount */\n      dup2\n        /* \"contracts/MonsterToken.sol\":25111:25115  rFee */\n      dup4\n        /* \"contracts/MonsterToken.sol\":25077:25116  return (rAmount, rTransferAmount, rFee) */\n      swap6\n      pop\n      swap6\n      pop\n      swap6\n      pop\n      pop\n      pop\n      pop\n        /* \"contracts/MonsterToken.sol\":24790:25124  function _getRValues(uint256 tAmount, uint256 tFee, uint256 currentRate) private pure returns (uint256, uint256, uint256) {\r... */\n      swap4\n      pop\n      swap4\n      pop\n      swap4\n      swap1\n      pop\n      jump\t// out\n        /* \"contracts/MonsterToken.sol\":22868:23377  function _transferFromExcluded(address sender, address recipient, uint256 tAmount) private {\r... */\n    tag_217:\n        /* \"contracts/MonsterToken.sol\":22971:22986  uint256 rAmount */\n      0x00\n        /* \"contracts/MonsterToken.sol\":22988:23011  uint256 rTransferAmount */\n      dup1\n        /* \"contracts/MonsterToken.sol\":23013:23025  uint256 rFee */\n      0x00\n        /* \"contracts/MonsterToken.sol\":23027:23050  uint256 tTransferAmount */\n      dup1\n        /* \"contracts/MonsterToken.sol\":23052:23064  uint256 tFee */\n      0x00\n        /* \"contracts/MonsterToken.sol\":23068:23087  _getValues(tAmount) */\n      tag_258\n        /* \"contracts/MonsterToken.sol\":23079:23086  tAmount */\n      dup7\n        /* \"contracts/MonsterToken.sol\":23068:23078  _getValues */\n      tag_96\n        /* \"contracts/MonsterToken.sol\":23068:23087  _getValues(tAmount) */\n      jump\t// in\n    tag_258:\n        /* \"contracts/MonsterToken.sol\":22970:23087  (uint256 rAmount, uint256 rTransferAmount, uint256 rFee, uint256 tTransferAmount, uint256 tFee) = _getValues(tAmount) */\n      swap5\n      pop\n      swap5\n      pop\n      swap5\n      pop\n      swap5\n      pop\n      swap5\n      pop\n        /* \"contracts/MonsterToken.sol\":23116:23144  _tOwned[sender].sub(tAmount) */\n      tag_259\n        /* \"contracts/MonsterToken.sol\":23136:23143  tAmount */\n      dup7\n        /* \"contracts/MonsterToken.sol\":23116:23123  _tOwned */\n      0x02\n        /* \"contracts/MonsterToken.sol\":23116:23131  _tOwned[sender] */\n      0x00\n        /* \"contracts/MonsterToken.sol\":23124:23130  sender */\n      dup12\n        /* \"contracts/MonsterToken.sol\":23116:23131  _tOwned[sender] */\n      0xffffffffffffffffffffffffffffffffffffffff\n      and\n      0xffffffffffffffffffffffffffffffffffffffff\n      and\n      dup2\n      mstore\n      0x20\n      add\n      swap1\n      dup2\n      mstore\n      0x20\n      add\n      0x00\n      keccak256\n      sload\n        /* \"contracts/MonsterToken.sol\":23116:23135  _tOwned[sender].sub */\n      tag_98\n      swap1\n        /* \"contracts/MonsterToken.sol\":23116:23144  _tOwned[sender].sub(tAmount) */\n      swap2\n      swap1\n      0xffffffff\n      and\n      jump\t// in\n    tag_259:\n        /* \"contracts/MonsterToken.sol\":23098:23105  _tOwned */\n      0x02\n        /* \"contracts/MonsterToken.sol\":23098:23113  _tOwned[sender] */\n      0x00\n        /* \"contracts/MonsterToken.sol\":23106:23112  sender */\n      dup11\n        /* \"contracts/MonsterToken.sol\":23098:23113  _tOwned[sender] */\n      0xffffffffffffffffffffffffffffffffffffffff\n      and\n      0xffffffffffffffffffffffffffffffffffffffff\n      and\n      dup2\n      mstore\n      0x20\n      add\n      swap1\n      dup2\n      mstore\n      0x20\n      add\n      0x00\n      keccak256\n        /* \"contracts/MonsterToken.sol\":23098:23144  _tOwned[sender] = _tOwned[sender].sub(tAmount) */\n      dup2\n      swap1\n      sstore\n      pop\n        /* \"contracts/MonsterToken.sol\":23173:23201  _rOwned[sender].sub(rAmount) */\n      tag_260\n        /* \"contracts/MonsterToken.sol\":23193:23200  rAmount */\n      dup6\n        /* \"contracts/MonsterToken.sol\":23173:23180  _rOwned */\n      0x01\n        /* \"contracts/MonsterToken.sol\":23173:23188  _rOwned[sender] */\n      0x00\n        /* \"contracts/MonsterToken.sol\":23181:23187  sender */\n      dup12\n        /* \"contracts/MonsterToken.sol\":23173:23188  _rOwned[sender] */\n      0xffffffffffffffffffffffffffffffffffffffff\n      and\n      0xffffffffffffffffffffffffffffffffffffffff\n      and\n      dup2\n      mstore\n      0x20\n      add\n      swap1\n      dup2\n      mstore\n      0x20\n      add\n      0x00\n      keccak256\n      sload\n        /* \"contracts/MonsterToken.sol\":23173:23192  _rOwned[sender].sub */\n      tag_98\n      swap1\n        /* \"contracts/MonsterToken.sol\":23173:23201  _rOwned[sender].sub(rAmount) */\n      swap2\n      swap1\n      0xffffffff\n      and\n      jump\t// in\n    tag_260:\n        /* \"contracts/MonsterToken.sol\":23155:23162  _rOwned */\n      0x01\n        /* \"contracts/MonsterToken.sol\":23155:23170  _rOwned[sender] */\n      0x00\n        /* \"contracts/MonsterToken.sol\":23163:23169  sender */\n      dup11\n        /* \"contracts/MonsterToken.sol\":23155:23170  _rOwned[sender] */\n      0xffffffffffffffffffffffffffffffffffffffff\n      and\n      0xffffffffffffffffffffffffffffffffffffffff\n      and\n      dup2\n      mstore\n      0x20\n      add\n      swap1\n      dup2\n      mstore\n      0x20\n      add\n      0x00\n      keccak256\n        /* \"contracts/MonsterToken.sol\":23155:23201  _rOwned[sender] = _rOwned[sender].sub(rAmount) */\n      dup2\n      swap1\n      sstore\n      pop\n        /* \"contracts/MonsterToken.sol\":23233:23272  _rOwned[recipient].add(rTransferAmount) */\n      tag_261\n        /* \"contracts/MonsterToken.sol\":23256:23271  rTransferAmount */\n      dup5\n        /* \"contracts/MonsterToken.sol\":23233:23240  _rOwned */\n      0x01\n        /* \"contracts/MonsterToken.sol\":23233:23251  _rOwned[recipient] */\n      0x00\n        /* \"contracts/MonsterToken.sol\":23241:23250  recipient */\n      dup11\n        /* \"contracts/MonsterToken.sol\":23233:23251  _rOwned[recipient] */\n      0xffffffffffffffffffffffffffffffffffffffff\n      and\n      0xffffffffffffffffffffffffffffffffffffffff\n      and\n      dup2\n      mstore\n      0x20\n      add\n      swap1\n      dup2\n      mstore\n      0x20\n      add\n      0x00\n      keccak256\n      sload\n        /* \"contracts/MonsterToken.sol\":23233:23255  _rOwned[recipient].add */\n      tag_101\n      swap1\n        /* \"contracts/MonsterToken.sol\":23233:23272  _rOwned[recipient].add(rTransferAmount) */\n      swap2\n      swap1\n      0xffffffff\n      and\n      jump\t// in\n    tag_261:\n        /* \"contracts/MonsterToken.sol\":23212:23219  _rOwned */\n      0x01\n        /* \"contracts/MonsterToken.sol\":23212:23230  _rOwned[recipient] */\n      0x00\n        /* \"contracts/MonsterToken.sol\":23220:23229  recipient */\n      dup10\n        /* \"contracts/MonsterToken.sol\":23212:23230  _rOwned[recipient] */\n      0xffffffffffffffffffffffffffffffffffffffff\n      and\n      0xffffffffffffffffffffffffffffffffffffffff\n      and\n      dup2\n      mstore\n      0x20\n      add\n      swap1\n      dup2\n      mstore\n      0x20\n      add\n      0x00\n      keccak256\n        /* \"contracts/MonsterToken.sol\":23212:23272  _rOwned[recipient] = _rOwned[recipient].add(rTransferAmount) */\n      dup2\n      swap1\n      sstore\n      pop\n        /* \"contracts/MonsterToken.sol\":23286:23309  _reflectFee(rFee, tFee) */\n      tag_262\n        /* \"contracts/MonsterToken.sol\":23298:23302  rFee */\n      dup4\n        /* \"contracts/MonsterToken.sol\":23304:23308  tFee */\n      dup3\n        /* \"contracts/MonsterToken.sol\":23286:23297  _reflectFee */\n      tag_263\n        /* \"contracts/MonsterToken.sol\":23286:23309  _reflectFee(rFee, tFee) */\n      jump\t// in\n    tag_262:\n        /* \"contracts/MonsterToken.sol\":23342:23351  recipient */\n      dup7\n        /* \"contracts/MonsterToken.sol\":23325:23369  Transfer(sender, recipient, tTransferAmount) */\n      0xffffffffffffffffffffffffffffffffffffffff\n      and\n        /* \"contracts/MonsterToken.sol\":23334:23340  sender */\n      dup9\n        /* \"contracts/MonsterToken.sol\":23325:23369  Transfer(sender, recipient, tTransferAmount) */\n      0xffffffffffffffffffffffffffffffffffffffff\n      and\n      0xddf252ad1be2c89b69c2b068fc378daa952ba7f163c4a11628f55a4df523b3ef\n        /* \"contracts/MonsterToken.sol\":23353:23368  tTransferAmount */\n      dup5\n        /* \"contracts/MonsterToken.sol\":23325:23369  Transfer(sender, recipient, tTransferAmount) */\n      mload(0x40)\n      dup1\n      dup3\n      dup2\n      mstore\n      0x20\n      add\n      swap2\n      pop\n      pop\n      mload(0x40)\n      dup1\n      swap2\n      sub\n      swap1\n      log3\n        /* \"contracts/MonsterToken.sol\":22868:23377  function _transferFromExcluded(address sender, address recipient, uint256 tAmount) private {\r... */\n      pop\n      pop\n      pop\n      pop\n      pop\n      pop\n      pop\n      pop\n      jump\t// out\n        /* \"contracts/MonsterToken.sol\":22331:22860  function _transferToExcluded(address sender, address recipient, uint256 tAmount) private {\r... */\n    tag_222:\n        /* \"contracts/MonsterToken.sol\":22432:22447  uint256 rAmount */\n      0x00\n        /* \"contracts/MonsterToken.sol\":22449:22472  uint256 rTransferAmount */\n      dup1\n        /* \"contracts/MonsterToken.sol\":22474:22486  uint256 rFee */\n      0x00\n        /* \"contracts/MonsterToken.sol\":22488:22511  uint256 tTransferAmount */\n      dup1\n        /* \"contracts/MonsterToken.sol\":22513:22525  uint256 tFee */\n      0x00\n        /* \"contracts/MonsterToken.sol\":22529:22548  _getValues(tAmount) */\n      tag_265\n        /* \"contracts/MonsterToken.sol\":22540:22547  tAmount */\n      dup7\n        /* \"contracts/MonsterToken.sol\":22529:22539  _getValues */\n      tag_96\n        /* \"contracts/MonsterToken.sol\":22529:22548  _getValues(tAmount) */\n      jump\t// in\n    tag_265:\n        /* \"contracts/MonsterToken.sol\":22431:22548  (uint256 rAmount, uint256 rTransferAmount, uint256 rFee, uint256 tTransferAmount, uint256 tFee) = _getValues(tAmount) */\n      swap5\n      pop\n      swap5\n      pop\n      swap5\n      pop\n      swap5\n      pop\n      swap5\n      pop\n        /* \"contracts/MonsterToken.sol\":22577:22605  _rOwned[sender].sub(rAmount) */\n      tag_266\n        /* \"contracts/MonsterToken.sol\":22597:22604  rAmount */\n      dup6\n        /* \"contracts/MonsterToken.sol\":22577:22584  _rOwned */\n      0x01\n        /* \"contracts/MonsterToken.sol\":22577:22592  _rOwned[sender] */\n      0x00\n        /* \"contracts/MonsterToken.sol\":22585:22591  sender */\n      dup12\n        /* \"contracts/MonsterToken.sol\":22577:22592  _rOwned[sender] */\n      0xffffffffffffffffffffffffffffffffffffffff\n      and\n      0xffffffffffffffffffffffffffffffffffffffff\n      and\n      dup2\n      mstore\n      0x20\n      add\n      swap1\n      dup2\n      mstore\n      0x20\n      add\n      0x00\n      keccak256\n      sload\n        /* \"contracts/MonsterToken.sol\":22577:22596  _rOwned[sender].sub */\n      tag_98\n      swap1\n        /* \"contracts/MonsterToken.sol\":22577:22605  _rOwned[sender].sub(rAmount) */\n      swap2\n      swap1\n      0xffffffff\n      and\n      jump\t// in\n    tag_266:\n        /* \"contracts/MonsterToken.sol\":22559:22566  _rOwned */\n      0x01\n        /* \"contracts/MonsterToken.sol\":22559:22574  _rOwned[sender] */\n      0x00\n        /* \"contracts/MonsterToken.sol\":22567:22573  sender */\n      dup11\n        /* \"contracts/MonsterToken.sol\":22559:22574  _rOwned[sender] */\n      0xffffffffffffffffffffffffffffffffffffffff\n      and\n      0xffffffffffffffffffffffffffffffffffffffff\n      and\n      dup2\n      mstore\n      0x20\n      add\n      swap1\n      dup2\n      mstore\n      0x20\n      add\n      0x00\n      keccak256\n        /* \"contracts/MonsterToken.sol\":22559:22605  _rOwned[sender] = _rOwned[sender].sub(rAmount) */\n      dup2\n      swap1\n      sstore\n      pop\n        /* \"contracts/MonsterToken.sol\":22637:22676  _tOwned[recipient].add(tTransferAmount) */\n      tag_267\n        /* \"contracts/MonsterToken.sol\":22660:22675  tTransferAmount */\n      dup3\n        /* \"contracts/MonsterToken.sol\":22637:22644  _tOwned */\n      0x02\n        /* \"contracts/MonsterToken.sol\":22637:22655  _tOwned[recipient] */\n      0x00\n        /* \"contracts/MonsterToken.sol\":22645:22654  recipient */\n      dup11\n        /* \"contracts/MonsterToken.sol\":22637:22655  _tOwned[recipient] */\n      0xffffffffffffffffffffffffffffffffffffffff\n      and\n      0xffffffffffffffffffffffffffffffffffffffff\n      and\n      dup2\n      mstore\n      0x20\n      add\n      swap1\n      dup2\n      mstore\n      0x20\n      add\n      0x00\n      keccak256\n      sload\n        /* \"contracts/MonsterToken.sol\":22637:22659  _tOwned[recipient].add */\n      tag_101\n      swap1\n        /* \"contracts/MonsterToken.sol\":22637:22676  _tOwned[recipient].add(tTransferAmount) */\n      swap2\n      swap1\n      0xffffffff\n      and\n      jump\t// in\n    tag_267:\n        /* \"contracts/MonsterToken.sol\":22616:22623  _tOwned */\n      0x02\n        /* \"contracts/MonsterToken.sol\":22616:22634  _tOwned[recipient] */\n      0x00\n        /* \"contracts/MonsterToken.sol\":22624:22633  recipient */\n      dup10\n        /* \"contracts/MonsterToken.sol\":22616:22634  _tOwned[recipient] */\n      0xffffffffffffffffffffffffffffffffffffffff\n      and\n      0xffffffffffffffffffffffffffffffffffffffff\n      and\n      dup2\n      mstore\n      0x20\n      add\n      swap1\n      dup2\n      mstore\n      0x20\n      add\n      0x00\n      keccak256\n        /* \"contracts/MonsterToken.sol\":22616:22676  _tOwned[recipient] = _tOwned[recipient].add(tTransferAmount) */\n      dup2\n      swap1\n      sstore\n      pop\n        /* \"contracts/MonsterToken.sol\":22708:22747  _rOwned[recipient].add(rTransferAmount) */\n      tag_268\n        /* \"contracts/MonsterToken.sol\":22731:22746  rTransferAmount */\n      dup5\n        /* \"contracts/MonsterToken.sol\":22708:22715  _rOwned */\n      0x01\n        /* \"contracts/MonsterToken.sol\":22708:22726  _rOwned[recipient] */\n      0x00\n        /* \"contracts/MonsterToken.sol\":22716:22725  recipient */\n      dup11\n        /* \"contracts/MonsterToken.sol\":22708:22726  _rOwned[recipient] */\n      0xffffffffffffffffffffffffffffffffffffffff\n      and\n      0xffffffffffffffffffffffffffffffffffffffff\n      and\n      dup2\n      mstore\n      0x20\n      add\n      swap1\n      dup2\n      mstore\n      0x20\n      add\n      0x00\n      keccak256\n      sload\n        /* \"contracts/MonsterToken.sol\":22708:22730  _rOwned[recipient].add */\n      tag_101\n      swap1\n        /* \"contracts/MonsterToken.sol\":22708:22747  _rOwned[recipient].add(rTransferAmount) */\n      swap2\n      swap1\n      0xffffffff\n      and\n      jump\t// in\n    tag_268:\n        /* \"contracts/MonsterToken.sol\":22687:22694  _rOwned */\n      0x01\n        /* \"contracts/MonsterToken.sol\":22687:22705  _rOwned[recipient] */\n      0x00\n        /* \"contracts/MonsterToken.sol\":22695:22704  recipient */\n      dup10\n        /* \"contracts/MonsterToken.sol\":22687:22705  _rOwned[recipient] */\n      0xffffffffffffffffffffffffffffffffffffffff\n      and\n      0xffffffffffffffffffffffffffffffffffffffff\n      and\n      dup2\n      mstore\n      0x20\n      add\n      swap1\n      dup2\n      mstore\n      0x20\n      add\n      0x00\n      keccak256\n        /* \"contracts/MonsterToken.sol\":22687:22747  _rOwned[recipient] = _rOwned[recipient].add(rTransferAmount) */\n      dup2\n      swap1\n      sstore\n      pop\n        /* \"contracts/MonsterToken.sol\":22769:22792  _reflectFee(rFee, tFee) */\n      tag_269\n        /* \"contracts/MonsterToken.sol\":22781:22785  rFee */\n      dup4\n        /* \"contracts/MonsterToken.sol\":22787:22791  tFee */\n      dup3\n        /* \"contracts/MonsterToken.sol\":22769:22780  _reflectFee */\n      tag_263\n        /* \"contracts/MonsterToken.sol\":22769:22792  _reflectFee(rFee, tFee) */\n      jump\t// in\n    tag_269:\n        /* \"contracts/MonsterToken.sol\":22825:22834  recipient */\n      dup7\n        /* \"contracts/MonsterToken.sol\":22808:22852  Transfer(sender, recipient, tTransferAmount) */\n      0xffffffffffffffffffffffffffffffffffffffff\n      and\n        /* \"contracts/MonsterToken.sol\":22817:22823  sender */\n      dup9\n        /* \"contracts/MonsterToken.sol\":22808:22852  Transfer(sender, recipient, tTransferAmount) */\n      0xffffffffffffffffffffffffffffffffffffffff\n      and\n      0xddf252ad1be2c89b69c2b068fc378daa952ba7f163c4a11628f55a4df523b3ef\n        /* \"contracts/MonsterToken.sol\":22836:22851  tTransferAmount */\n      dup5\n        /* \"contracts/MonsterToken.sol\":22808:22852  Transfer(sender, recipient, tTransferAmount) */\n      mload(0x40)\n      dup1\n      dup3\n      dup2\n      mstore\n      0x20\n      add\n      swap2\n      pop\n      pop\n      mload(0x40)\n      dup1\n      swap2\n      sub\n      swap1\n      log3\n        /* \"contracts/MonsterToken.sol\":22331:22860  function _transferToExcluded(address sender, address recipient, uint256 tAmount) private {\r... */\n      pop\n      pop\n      pop\n      pop\n      pop\n      pop\n      pop\n      pop\n      jump\t// out\n        /* \"contracts/MonsterToken.sol\":21871:22323  function _transferStandard(address sender, address recipient, uint256 tAmount) private {\r... */\n    tag_227:\n        /* \"contracts/MonsterToken.sol\":21970:21985  uint256 rAmount */\n      0x00\n        /* \"contracts/MonsterToken.sol\":21987:22010  uint256 rTransferAmount */\n      dup1\n        /* \"contracts/MonsterToken.sol\":22012:22024  uint256 rFee */\n      0x00\n        /* \"contracts/MonsterToken.sol\":22026:22049  uint256 tTransferAmount */\n      dup1\n        /* \"contracts/MonsterToken.sol\":22051:22063  uint256 tFee */\n      0x00\n        /* \"contracts/MonsterToken.sol\":22067:22086  _getValues(tAmount) */\n      tag_271\n        /* \"contracts/MonsterToken.sol\":22078:22085  tAmount */\n      dup7\n        /* \"contracts/MonsterToken.sol\":22067:22077  _getValues */\n      tag_96\n        /* \"contracts/MonsterToken.sol\":22067:22086  _getValues(tAmount) */\n      jump\t// in\n    tag_271:\n        /* \"contracts/MonsterToken.sol\":21969:22086  (uint256 rAmount, uint256 rTransferAmount, uint256 rFee, uint256 tTransferAmount, uint256 tFee) = _getValues(tAmount) */\n      swap5\n      pop\n      swap5\n      pop\n      swap5\n      pop\n      swap5\n      pop\n      swap5\n      pop\n        /* \"contracts/MonsterToken.sol\":22115:22143  _rOwned[sender].sub(rAmount) */\n      tag_272\n        /* \"contracts/MonsterToken.sol\":22135:22142  rAmount */\n      dup6\n        /* \"contracts/MonsterToken.sol\":22115:22122  _rOwned */\n      0x01\n        /* \"contracts/MonsterToken.sol\":22115:22130  _rOwned[sender] */\n      0x00\n        /* \"contracts/MonsterToken.sol\":22123:22129  sender */\n      dup12\n        /* \"contracts/MonsterToken.sol\":22115:22130  _rOwned[sender] */\n      0xffffffffffffffffffffffffffffffffffffffff\n      and\n      0xffffffffffffffffffffffffffffffffffffffff\n      and\n      dup2\n      mstore\n      0x20\n      add\n      swap1\n      dup2\n      mstore\n      0x20\n      add\n      0x00\n      keccak256\n      sload\n        /* \"contracts/MonsterToken.sol\":22115:22134  _rOwned[sender].sub */\n      tag_98\n      swap1\n        /* \"contracts/MonsterToken.sol\":22115:22143  _rOwned[sender].sub(rAmount) */\n      swap2\n      swap1\n      0xffffffff\n      and\n      jump\t// in\n    tag_272:\n        /* \"contracts/MonsterToken.sol\":22097:22104  _rOwned */\n      0x01\n        /* \"contracts/MonsterToken.sol\":22097:22112  _rOwned[sender] */\n      0x00\n        /* \"contracts/MonsterToken.sol\":22105:22111  sender */\n      dup11\n        /* \"contracts/MonsterToken.sol\":22097:22112  _rOwned[sender] */\n      0xffffffffffffffffffffffffffffffffffffffff\n      and\n      0xffffffffffffffffffffffffffffffffffffffff\n      and\n      dup2\n      mstore\n      0x20\n      add\n      swap1\n      dup2\n      mstore\n      0x20\n      add\n      0x00\n      keccak256\n        /* \"contracts/MonsterToken.sol\":22097:22143  _rOwned[sender] = _rOwned[sender].sub(rAmount) */\n      dup2\n      swap1\n      sstore\n      pop\n        /* \"contracts/MonsterToken.sol\":22175:22214  _rOwned[recipient].add(rTransferAmount) */\n      tag_273\n        /* \"contracts/MonsterToken.sol\":22198:22213  rTransferAmount */\n      dup5\n        /* \"contracts/MonsterToken.sol\":22175:22182  _rOwned */\n      0x01\n        /* \"contracts/MonsterToken.sol\":22175:22193  _rOwned[recipient] */\n      0x00\n        /* \"contracts/MonsterToken.sol\":22183:22192  recipient */\n      dup11\n        /* \"contracts/MonsterToken.sol\":22175:22193  _rOwned[recipient] */\n      0xffffffffffffffffffffffffffffffffffffffff\n      and\n      0xffffffffffffffffffffffffffffffffffffffff\n      and\n      dup2\n      mstore\n      0x20\n      add\n      swap1\n      dup2\n      mstore\n      0x20\n      add\n      0x00\n      keccak256\n      sload\n        /* \"contracts/MonsterToken.sol\":22175:22197  _rOwned[recipient].add */\n      tag_101\n      swap1\n        /* \"contracts/MonsterToken.sol\":22175:22214  _rOwned[recipient].add(rTransferAmount) */\n      swap2\n      swap1\n      0xffffffff\n      and\n      jump\t// in\n    tag_273:\n        /* \"contracts/MonsterToken.sol\":22154:22161  _rOwned */\n      0x01\n        /* \"contracts/MonsterToken.sol\":22154:22172  _rOwned[recipient] */\n      0x00\n        /* \"contracts/MonsterToken.sol\":22162:22171  recipient */\n      dup10\n        /* \"contracts/MonsterToken.sol\":22154:22172  _rOwned[recipient] */\n      0xffffffffffffffffffffffffffffffffffffffff\n      and\n      0xffffffffffffffffffffffffffffffffffffffff\n      and\n      dup2\n      mstore\n      0x20\n      add\n      swap1\n      dup2\n      mstore\n      0x20\n      add\n      0x00\n      keccak256\n        /* \"contracts/MonsterToken.sol\":22154:22214  _rOwned[recipient] = _rOwned[recipient].add(rTransferAmount) */\n      dup2\n      swap1\n      sstore\n      pop\n        /* \"contracts/MonsterToken.sol\":22232:22255  _reflectFee(rFee, tFee) */\n      tag_274\n        /* \"contracts/MonsterToken.sol\":22244:22248  rFee */\n      dup4\n        /* \"contracts/MonsterToken.sol\":22250:22254  tFee */\n      dup3\n        /* \"contracts/MonsterToken.sol\":22232:22243  _reflectFee */\n      tag_263\n        /* \"contracts/MonsterToken.sol\":22232:22255  _reflectFee(rFee, tFee) */\n      jump\t// in\n    tag_274:\n        /* \"contracts/MonsterToken.sol\":22288:22297  recipient */\n      dup7\n        /* \"contracts/MonsterToken.sol\":22271:22315  Transfer(sender, recipient, tTransferAmount) */\n      0xffffffffffffffffffffffffffffffffffffffff\n      and\n        /* \"contracts/MonsterToken.sol\":22280:22286  sender */\n      dup9\n        /* \"contracts/MonsterToken.sol\":22271:22315  Transfer(sender, recipient, tTransferAmount) */\n      0xffffffffffffffffffffffffffffffffffffffff\n      and\n      0xddf252ad1be2c89b69c2b068fc378daa952ba7f163c4a11628f55a4df523b3ef\n        /* \"contracts/MonsterToken.sol\":22299:22314  tTransferAmount */\n      dup5\n        /* \"contracts/MonsterToken.sol\":22271:22315  Transfer(sender, recipient, tTransferAmount) */\n      mload(0x40)\n      dup1\n      dup3\n      dup2\n      mstore\n      0x20\n      add\n      swap2\n      pop\n      pop\n      mload(0x40)\n      dup1\n      swap2\n      sub\n      swap1\n      log3\n        /* \"contracts/MonsterToken.sol\":21871:22323  function _transferStandard(address sender, address recipient, uint256 tAmount) private {\r... */\n      pop\n      pop\n      pop\n      pop\n      pop\n      pop\n      pop\n      pop\n      jump\t// out\n        /* \"contracts/MonsterToken.sol\":23385:23970  function _transferBothExcluded(address sender, address recipient, uint256 tAmount) private {\r... */\n    tag_232:\n        /* \"contracts/MonsterToken.sol\":23488:23503  uint256 rAmount */\n      0x00\n        /* \"contracts/MonsterToken.sol\":23505:23528  uint256 rTransferAmount */\n      dup1\n        /* \"contracts/MonsterToken.sol\":23530:23542  uint256 rFee */\n      0x00\n        /* \"contracts/MonsterToken.sol\":23544:23567  uint256 tTransferAmount */\n      dup1\n        /* \"contracts/MonsterToken.sol\":23569:23581  uint256 tFee */\n      0x00\n        /* \"contracts/MonsterToken.sol\":23585:23604  _getValues(tAmount) */\n      tag_276\n        /* \"contracts/MonsterToken.sol\":23596:23603  tAmount */\n      dup7\n        /* \"contracts/MonsterToken.sol\":23585:23595  _getValues */\n      tag_96\n        /* \"contracts/MonsterToken.sol\":23585:23604  _getValues(tAmount) */\n      jump\t// in\n    tag_276:\n        /* \"contracts/MonsterToken.sol\":23487:23604  (uint256 rAmount, uint256 rTransferAmount, uint256 rFee, uint256 tTransferAmount, uint256 tFee) = _getValues(tAmount) */\n      swap5\n      pop\n      swap5\n      pop\n      swap5\n      pop\n      swap5\n      pop\n      swap5\n      pop\n        /* \"contracts/MonsterToken.sol\":23633:23661  _tOwned[sender].sub(tAmount) */\n      tag_277\n        /* \"contracts/MonsterToken.sol\":23653:23660  tAmount */\n      dup7\n        /* \"contracts/MonsterToken.sol\":23633:23640  _tOwned */\n      0x02\n        /* \"contracts/MonsterToken.sol\":23633:23648  _tOwned[sender] */\n      0x00\n        /* \"contracts/MonsterToken.sol\":23641:23647  sender */\n      dup12\n        /* \"contracts/MonsterToken.sol\":23633:23648  _tOwned[sender] */\n      0xffffffffffffffffffffffffffffffffffffffff\n      and\n      0xffffffffffffffffffffffffffffffffffffffff\n      and\n      dup2\n      mstore\n      0x20\n      add\n      swap1\n      dup2\n      mstore\n      0x20\n      add\n      0x00\n      keccak256\n      sload\n        /* \"contracts/MonsterToken.sol\":23633:23652  _tOwned[sender].sub */\n      tag_98\n      swap1\n        /* \"contracts/MonsterToken.sol\":23633:23661  _tOwned[sender].sub(tAmount) */\n      swap2\n      swap1\n      0xffffffff\n      and\n      jump\t// in\n    tag_277:\n        /* \"contracts/MonsterToken.sol\":23615:23622  _tOwned */\n      0x02\n        /* \"contracts/MonsterToken.sol\":23615:23630  _tOwned[sender] */\n      0x00\n        /* \"contracts/MonsterToken.sol\":23623:23629  sender */\n      dup11\n        /* \"contracts/MonsterToken.sol\":23615:23630  _tOwned[sender] */\n      0xffffffffffffffffffffffffffffffffffffffff\n      and\n      0xffffffffffffffffffffffffffffffffffffffff\n      and\n      dup2\n      mstore\n      0x20\n      add\n      swap1\n      dup2\n      mstore\n      0x20\n      add\n      0x00\n      keccak256\n        /* \"contracts/MonsterToken.sol\":23615:23661  _tOwned[sender] = _tOwned[sender].sub(tAmount) */\n      dup2\n      swap1\n      sstore\n      pop\n        /* \"contracts/MonsterToken.sol\":23690:23718  _rOwned[sender].sub(rAmount) */\n      tag_278\n        /* \"contracts/MonsterToken.sol\":23710:23717  rAmount */\n      dup6\n        /* \"contracts/MonsterToken.sol\":23690:23697  _rOwned */\n      0x01\n        /* \"contracts/MonsterToken.sol\":23690:23705  _rOwned[sender] */\n      0x00\n        /* \"contracts/MonsterToken.sol\":23698:23704  sender */\n      dup12\n        /* \"contracts/MonsterToken.sol\":23690:23705  _rOwned[sender] */\n      0xffffffffffffffffffffffffffffffffffffffff\n      and\n      0xffffffffffffffffffffffffffffffffffffffff\n      and\n      dup2\n      mstore\n      0x20\n      add\n      swap1\n      dup2\n      mstore\n      0x20\n      add\n      0x00\n      keccak256\n      sload\n        /* \"contracts/MonsterToken.sol\":23690:23709  _rOwned[sender].sub */\n      tag_98\n      swap1\n        /* \"contracts/MonsterToken.sol\":23690:23718  _rOwned[sender].sub(rAmount) */\n      swap2\n      swap1\n      0xffffffff\n      and\n      jump\t// in\n    tag_278:\n        /* \"contracts/MonsterToken.sol\":23672:23679  _rOwned */\n      0x01\n        /* \"contracts/MonsterToken.sol\":23672:23687  _rOwned[sender] */\n      0x00\n        /* \"contracts/MonsterToken.sol\":23680:23686  sender */\n      dup11\n        /* \"contracts/MonsterToken.sol\":23672:23687  _rOwned[sender] */\n      0xffffffffffffffffffffffffffffffffffffffff\n      and\n      0xffffffffffffffffffffffffffffffffffffffff\n      and\n      dup2\n      mstore\n      0x20\n      add\n      swap1\n      dup2\n      mstore\n      0x20\n      add\n      0x00\n      keccak256\n        /* \"contracts/MonsterToken.sol\":23672:23718  _rOwned[sender] = _rOwned[sender].sub(rAmount) */\n      dup2\n      swap1\n      sstore\n      pop\n        /* \"contracts/MonsterToken.sol\":23750:23789  _tOwned[recipient].add(tTransferAmount) */\n      tag_279\n        /* \"contracts/MonsterToken.sol\":23773:23788  tTransferAmount */\n      dup3\n        /* \"contracts/MonsterToken.sol\":23750:23757  _tOwned */\n      0x02\n        /* \"contracts/MonsterToken.sol\":23750:23768  _tOwned[recipient] */\n      0x00\n        /* \"contracts/MonsterToken.sol\":23758:23767  recipient */\n      dup11\n        /* \"contracts/MonsterToken.sol\":23750:23768  _tOwned[recipient] */\n      0xffffffffffffffffffffffffffffffffffffffff\n      and\n      0xffffffffffffffffffffffffffffffffffffffff\n      and\n      dup2\n      mstore\n      0x20\n      add\n      swap1\n      dup2\n      mstore\n      0x20\n      add\n      0x00\n      keccak256\n      sload\n        /* \"contracts/MonsterToken.sol\":23750:23772  _tOwned[recipient].add */\n      tag_101\n      swap1\n        /* \"contracts/MonsterToken.sol\":23750:23789  _tOwned[recipient].add(tTransferAmount) */\n      swap2\n      swap1\n      0xffffffff\n      and\n      jump\t// in\n    tag_279:\n        /* \"contracts/MonsterToken.sol\":23729:23736  _tOwned */\n      0x02\n        /* \"contracts/MonsterToken.sol\":23729:23747  _tOwned[recipient] */\n      0x00\n        /* \"contracts/MonsterToken.sol\":23737:23746  recipient */\n      dup10\n        /* \"contracts/MonsterToken.sol\":23729:23747  _tOwned[recipient] */\n      0xffffffffffffffffffffffffffffffffffffffff\n      and\n      0xffffffffffffffffffffffffffffffffffffffff\n      and\n      dup2\n      mstore\n      0x20\n      add\n      swap1\n      dup2\n      mstore\n      0x20\n      add\n      0x00\n      keccak256\n        /* \"contracts/MonsterToken.sol\":23729:23789  _tOwned[recipient] = _tOwned[recipient].add(tTransferAmount) */\n      dup2\n      swap1\n      sstore\n      pop\n        /* \"contracts/MonsterToken.sol\":23821:23860  _rOwned[recipient].add(rTransferAmount) */\n      tag_280\n        /* \"contracts/MonsterToken.sol\":23844:23859  rTransferAmount */\n      dup5\n        /* \"contracts/MonsterToken.sol\":23821:23828  _rOwned */\n      0x01\n        /* \"contracts/MonsterToken.sol\":23821:23839  _rOwned[recipient] */\n      0x00\n        /* \"contracts/MonsterToken.sol\":23829:23838  recipient */\n      dup11\n        /* \"contracts/MonsterToken.sol\":23821:23839  _rOwned[recipient] */\n      0xffffffffffffffffffffffffffffffffffffffff\n      and\n      0xffffffffffffffffffffffffffffffffffffffff\n      and\n      dup2\n      mstore\n      0x20\n      add\n      swap1\n      dup2\n      mstore\n      0x20\n      add\n      0x00\n      keccak256\n      sload\n        /* \"contracts/MonsterToken.sol\":23821:23843  _rOwned[recipient].add */\n      tag_101\n      swap1\n        /* \"contracts/MonsterToken.sol\":23821:23860  _rOwned[recipient].add(rTransferAmount) */\n      swap2\n      swap1\n      0xffffffff\n      and\n      jump\t// in\n    tag_280:\n        /* \"contracts/MonsterToken.sol\":23800:23807  _rOwned */\n      0x01\n        /* \"contracts/MonsterToken.sol\":23800:23818  _rOwned[recipient] */\n      0x00\n        /* \"contracts/MonsterToken.sol\":23808:23817  recipient */\n      dup10\n        /* \"contracts/MonsterToken.sol\":23800:23818  _rOwned[recipient] */\n      0xffffffffffffffffffffffffffffffffffffffff\n      and\n      0xffffffffffffffffffffffffffffffffffffffff\n      and\n      dup2\n      mstore\n      0x20\n      add\n      swap1\n      dup2\n      mstore\n      0x20\n      add\n      0x00\n      keccak256\n        /* \"contracts/MonsterToken.sol\":23800:23860  _rOwned[recipient] = _rOwned[recipient].add(rTransferAmount) */\n      dup2\n      swap1\n      sstore\n      pop\n        /* \"contracts/MonsterToken.sol\":23879:23902  _reflectFee(rFee, tFee) */\n      tag_281\n        /* \"contracts/MonsterToken.sol\":23891:23895  rFee */\n      dup4\n        /* \"contracts/MonsterToken.sol\":23897:23901  tFee */\n      dup3\n        /* \"contracts/MonsterToken.sol\":23879:23890  _reflectFee */\n      tag_263\n        /* \"contracts/MonsterToken.sol\":23879:23902  _reflectFee(rFee, tFee) */\n      jump\t// in\n    tag_281:\n        /* \"contracts/MonsterToken.sol\":23935:23944  recipient */\n      dup7\n        /* \"contracts/MonsterToken.sol\":23918:23962  Transfer(sender, recipient, tTransferAmount) */\n      0xffffffffffffffffffffffffffffffffffffffff\n      and\n        /* \"contracts/MonsterToken.sol\":23927:23933  sender */\n      dup9\n        /* \"contracts/MonsterToken.sol\":23918:23962  Transfer(sender, recipient, tTransferAmount) */\n      0xffffffffffffffffffffffffffffffffffffffff\n      and\n      0xddf252ad1be2c89b69c2b068fc378daa952ba7f163c4a11628f55a4df523b3ef\n        /* \"contracts/MonsterToken.sol\":23946:23961  tTransferAmount */\n      dup5\n        /* \"contracts/MonsterToken.sol\":23918:23962  Transfer(sender, recipient, tTransferAmount) */\n      mload(0x40)\n      dup1\n      dup3\n      dup2\n      mstore\n      0x20\n      add\n      swap2\n      pop\n      pop\n      mload(0x40)\n      dup1\n      swap2\n      sub\n      swap1\n      log3\n        /* \"contracts/MonsterToken.sol\":23385:23970  function _transferBothExcluded(address sender, address recipient, uint256 tAmount) private {\r... */\n      pop\n      pop\n      pop\n      pop\n      pop\n      pop\n      pop\n      pop\n      jump\t// out\n        /* \"contracts/MonsterToken.sol\":25303:25864  function _getCurrentSupply() private view returns(uint256, uint256) {\r... */\n    tag_243:\n        /* \"contracts/MonsterToken.sol\":25353:25360  uint256 */\n      0x00\n        /* \"contracts/MonsterToken.sol\":25362:25369  uint256 */\n      dup1\n        /* \"contracts/MonsterToken.sol\":25382:25397  uint256 rSupply */\n      0x00\n        /* \"contracts/MonsterToken.sol\":25400:25407  _rTotal */\n      sload(0x06)\n        /* \"contracts/MonsterToken.sol\":25382:25407  uint256 rSupply = _rTotal */\n      swap1\n      pop\n        /* \"contracts/MonsterToken.sol\":25418:25433  uint256 tSupply */\n      0x00\n        /* \"contracts/MonsterToken.sol\":16085:16106  10000 * 10**6 * 10**9 */\n      0x8ac7230489e80000\n        /* \"contracts/MonsterToken.sol\":25418:25443  uint256 tSupply = _tTotal */\n      swap1\n      pop\n        /* \"contracts/MonsterToken.sol\":25465:25474  uint256 i */\n      0x00\n        /* \"contracts/MonsterToken.sol\":25460:25749  for (uint256 i = 0; i < _excluded.length; i++) {\r... */\n    tag_283:\n        /* \"contracts/MonsterToken.sol\":25484:25493  _excluded */\n      0x05\n        /* \"contracts/MonsterToken.sol\":25484:25500  _excluded.length */\n      dup1\n      sload\n      swap1\n      pop\n        /* \"contracts/MonsterToken.sol\":25480:25481  i */\n      dup2\n        /* \"contracts/MonsterToken.sol\":25480:25500  i < _excluded.length */\n      lt\n        /* \"contracts/MonsterToken.sol\":25460:25749  for (uint256 i = 0; i < _excluded.length; i++) {\r... */\n      iszero\n      tag_284\n      jumpi\n        /* \"contracts/MonsterToken.sol\":25550:25557  rSupply */\n      dup3\n        /* \"contracts/MonsterToken.sol\":25526:25533  _rOwned */\n      0x01\n        /* \"contracts/MonsterToken.sol\":25526:25547  _rOwned[_excluded[i]] */\n      0x00\n        /* \"contracts/MonsterToken.sol\":25534:25543  _excluded */\n      0x05\n        /* \"contracts/MonsterToken.sol\":25544:25545  i */\n      dup5\n        /* \"contracts/MonsterToken.sol\":25534:25546  _excluded[i] */\n      dup2\n      sload\n      dup2\n      lt\n      tag_286\n      jumpi\n      invalid\n    tag_286:\n      swap1\n      0x00\n      mstore\n      keccak256(0x00, 0x20)\n      add\n      0x00\n      swap1\n      sload\n      swap1\n      0x0100\n      exp\n      swap1\n      div\n      0xffffffffffffffffffffffffffffffffffffffff\n      and\n        /* \"contracts/MonsterToken.sol\":25526:25547  _rOwned[_excluded[i]] */\n      0xffffffffffffffffffffffffffffffffffffffff\n      and\n      0xffffffffffffffffffffffffffffffffffffffff\n      and\n      dup2\n      mstore\n      0x20\n      add\n      swap1\n      dup2\n      mstore\n      0x20\n      add\n      0x00\n      keccak256\n      sload\n        /* \"contracts/MonsterToken.sol\":25526:25557  _rOwned[_excluded[i]] > rSupply */\n      gt\n        /* \"contracts/MonsterToken.sol\":25526:25592  _rOwned[_excluded[i]] > rSupply || _tOwned[_excluded[i]] > tSupply */\n      dup1\n      tag_288\n      jumpi\n      pop\n        /* \"contracts/MonsterToken.sol\":25585:25592  tSupply */\n      dup2\n        /* \"contracts/MonsterToken.sol\":25561:25568  _tOwned */\n      0x02\n        /* \"contracts/MonsterToken.sol\":25561:25582  _tOwned[_excluded[i]] */\n      0x00\n        /* \"contracts/MonsterToken.sol\":25569:25578  _excluded */\n      0x05\n        /* \"contracts/MonsterToken.sol\":25579:25580  i */\n      dup5\n        /* \"contracts/MonsterToken.sol\":25569:25581  _excluded[i] */\n      dup2\n      sload\n      dup2\n      lt\n      tag_289\n      jumpi\n      invalid\n    tag_289:\n      swap1\n      0x00\n      mstore\n      keccak256(0x00, 0x20)\n      add\n      0x00\n      swap1\n      sload\n      swap1\n      0x0100\n      exp\n      swap1\n      div\n      0xffffffffffffffffffffffffffffffffffffffff\n      and\n        /* \"contracts/MonsterToken.sol\":25561:25582  _tOwned[_excluded[i]] */\n      0xffffffffffffffffffffffffffffffffffffffff\n      and\n      0xffffffffffffffffffffffffffffffffffffffff\n      and\n      dup2\n      mstore\n      0x20\n      add\n      swap1\n      dup2\n      mstore\n      0x20\n      add\n      0x00\n      keccak256\n      sload\n        /* \"contracts/MonsterToken.sol\":25561:25592  _tOwned[_excluded[i]] > tSupply */\n      gt\n        /* \"contracts/MonsterToken.sol\":25526:25592  _rOwned[_excluded[i]] > rSupply || _tOwned[_excluded[i]] > tSupply */\n    tag_288:\n        /* \"contracts/MonsterToken.sol\":25522:25619  if (_rOwned[_excluded[i]] > rSupply || _tOwned[_excluded[i]] > tSupply) return (_rTotal, _tTotal) */\n      iszero\n      tag_291\n      jumpi\n        /* \"contracts/MonsterToken.sol\":25602:25609  _rTotal */\n      sload(0x06)\n        /* \"contracts/MonsterToken.sol\":16085:16106  10000 * 10**6 * 10**9 */\n      0x8ac7230489e80000\n        /* \"contracts/MonsterToken.sol\":25594:25619  return (_rTotal, _tTotal) */\n      swap5\n      pop\n      swap5\n      pop\n      pop\n      pop\n      pop\n      jump(tag_282)\n        /* \"contracts/MonsterToken.sol\":25522:25619  if (_rOwned[_excluded[i]] > rSupply || _tOwned[_excluded[i]] > tSupply) return (_rTotal, _tTotal) */\n    tag_291:\n        /* \"contracts/MonsterToken.sol\":25644:25678  rSupply.sub(_rOwned[_excluded[i]]) */\n      tag_292\n        /* \"contracts/MonsterToken.sol\":25656:25663  _rOwned */\n      0x01\n        /* \"contracts/MonsterToken.sol\":25656:25677  _rOwned[_excluded[i]] */\n      0x00\n        /* \"contracts/MonsterToken.sol\":25664:25673  _excluded */\n      0x05\n        /* \"contracts/MonsterToken.sol\":25674:25675  i */\n      dup5\n        /* \"contracts/MonsterToken.sol\":25664:25676  _excluded[i] */\n      dup2\n      sload\n      dup2\n      lt\n      tag_293\n      jumpi\n      invalid\n    tag_293:\n      swap1\n      0x00\n      mstore\n      keccak256(0x00, 0x20)\n      add\n      0x00\n      swap1\n      sload\n      swap1\n      0x0100\n      exp\n      swap1\n      div\n      0xffffffffffffffffffffffffffffffffffffffff\n      and\n        /* \"contracts/MonsterToken.sol\":25656:25677  _rOwned[_excluded[i]] */\n      0xffffffffffffffffffffffffffffffffffffffff\n      and\n      0xffffffffffffffffffffffffffffffffffffffff\n      and\n      dup2\n      mstore\n      0x20\n      add\n      swap1\n      dup2\n      mstore\n      0x20\n      add\n      0x00\n      keccak256\n      sload\n        /* \"contracts/MonsterToken.sol\":25644:25651  rSupply */\n      dup5\n        /* \"contracts/MonsterToken.sol\":25644:25655  rSupply.sub */\n      tag_98\n      swap1\n        /* \"contracts/MonsterToken.sol\":25644:25678  rSupply.sub(_rOwned[_excluded[i]]) */\n      swap2\n      swap1\n      0xffffffff\n      and\n      jump\t// in\n    tag_292:\n        /* \"contracts/MonsterToken.sol\":25634:25678  rSupply = rSupply.sub(_rOwned[_excluded[i]]) */\n      swap3\n      pop\n        /* \"contracts/MonsterToken.sol\":25703:25737  tSupply.sub(_tOwned[_excluded[i]]) */\n      tag_295\n        /* \"contracts/MonsterToken.sol\":25715:25722  _tOwned */\n      0x02\n        /* \"contracts/MonsterToken.sol\":25715:25736  _tOwned[_excluded[i]] */\n      0x00\n        /* \"contracts/MonsterToken.sol\":25723:25732  _excluded */\n      0x05\n        /* \"contracts/MonsterToken.sol\":25733:25734  i */\n      dup5\n        /* \"contracts/MonsterToken.sol\":25723:25735  _excluded[i] */\n      dup2\n      sload\n      dup2\n      lt\n      tag_296\n      jumpi\n      invalid\n    tag_296:\n      swap1\n      0x00\n      mstore\n      keccak256(0x00, 0x20)\n      add\n      0x00\n      swap1\n      sload\n      swap1\n      0x0100\n      exp\n      swap1\n      div\n      0xffffffffffffffffffffffffffffffffffffffff\n      and\n        /* \"contracts/MonsterToken.sol\":25715:25736  _tOwned[_excluded[i]] */\n      0xffffffffffffffffffffffffffffffffffffffff\n      and\n      0xffffffffffffffffffffffffffffffffffffffff\n      and\n      dup2\n      mstore\n      0x20\n      add\n      swap1\n      dup2\n      mstore\n      0x20\n      add\n      0x00\n      keccak256\n      sload\n        /* \"contracts/MonsterToken.sol\":25703:25710  tSupply */\n      dup4\n        /* \"contracts/MonsterToken.sol\":25703:25714  tSupply.sub */\n      tag_98\n      swap1\n        /* \"contracts/MonsterToken.sol\":25703:25737  tSupply.sub(_tOwned[_excluded[i]]) */\n      swap2\n      swap1\n      0xffffffff\n      and\n      jump\t// in\n    tag_295:\n        /* \"contracts/MonsterToken.sol\":25693:25737  tSupply = tSupply.sub(_tOwned[_excluded[i]]) */\n      swap2\n      pop\n        /* \"contracts/MonsterToken.sol\":25502:25505  i++ */\n      dup1\n      dup1\n      0x01\n      add\n      swap2\n      pop\n      pop\n        /* \"contracts/MonsterToken.sol\":25460:25749  for (uint256 i = 0; i < _excluded.length; i++) {\r... */\n      jump(tag_283)\n    tag_284:\n      pop\n        /* \"contracts/MonsterToken.sol\":25773:25793  _rTotal.div(_tTotal) */\n      tag_298\n        /* \"contracts/MonsterToken.sol\":16085:16106  10000 * 10**6 * 10**9 */\n      0x8ac7230489e80000\n        /* \"contracts/MonsterToken.sol\":25773:25780  _rTotal */\n      sload(0x06)\n        /* \"contracts/MonsterToken.sol\":25773:25784  _rTotal.div */\n      tag_128\n      swap1\n        /* \"contracts/MonsterToken.sol\":25773:25793  _rTotal.div(_tTotal) */\n      swap2\n      swap1\n      0xffffffff\n      and\n      jump\t// in\n    tag_298:\n        /* \"contracts/MonsterToken.sol\":25763:25770  rSupply */\n      dup3\n        /* \"contracts/MonsterToken.sol\":25763:25793  rSupply < _rTotal.div(_tTotal) */\n      lt\n        /* \"contracts/MonsterToken.sol\":25759:25820  if (rSupply < _rTotal.div(_tTotal)) return (_rTotal, _tTotal) */\n      iszero\n      tag_299\n      jumpi\n        /* \"contracts/MonsterToken.sol\":25803:25810  _rTotal */\n      sload(0x06)\n        /* \"contracts/MonsterToken.sol\":16085:16106  10000 * 10**6 * 10**9 */\n      0x8ac7230489e80000\n        /* \"contracts/MonsterToken.sol\":25795:25820  return (_rTotal, _tTotal) */\n      swap4\n      pop\n      swap4\n      pop\n      pop\n      pop\n      jump(tag_282)\n        /* \"contracts/MonsterToken.sol\":25759:25820  if (rSupply < _rTotal.div(_tTotal)) return (_rTotal, _tTotal) */\n    tag_299:\n        /* \"contracts/MonsterToken.sol\":25839:25846  rSupply */\n      dup2\n        /* \"contracts/MonsterToken.sol\":25848:25855  tSupply */\n      dup2\n        /* \"contracts/MonsterToken.sol\":25831:25856  return (rSupply, tSupply) */\n      swap4\n      pop\n      swap4\n      pop\n      pop\n      pop\n        /* \"contracts/MonsterToken.sol\":25303:25864  function _getCurrentSupply() private view returns(uint256, uint256) {\r... */\n    tag_282:\n      swap1\n      swap2\n      jump\t// out\n        /* \"contracts/MonsterToken.sol\":6286:6564  function div(uint256 a, uint256 b, string memory errorMessage) internal pure returns (uint256) {\r... */\n    tag_247:\n        /* \"contracts/MonsterToken.sol\":6372:6379  uint256 */\n      0x00\n        /* \"contracts/MonsterToken.sol\":6404:6405  0 */\n      dup1\n        /* \"contracts/MonsterToken.sol\":6400:6401  b */\n      dup4\n        /* \"contracts/MonsterToken.sol\":6400:6405  b > 0 */\n      gt\n        /* \"contracts/MonsterToken.sol\":6407:6419  errorMessage */\n      dup3\n        /* \"contracts/MonsterToken.sol\":6392:6420  require(b > 0, errorMessage) */\n      swap1\n      tag_301\n      jumpi\n      mload(0x40)\n      0x08c379a000000000000000000000000000000000000000000000000000000000\n      dup2\n      mstore\n      0x04\n      add\n      dup1\n      dup1\n      0x20\n      add\n      dup3\n      dup2\n      sub\n      dup3\n      mstore\n      dup4\n      dup2\n      dup2\n      mload\n      dup2\n      mstore\n      0x20\n      add\n      swap2\n      pop\n      dup1\n      mload\n      swap1\n      0x20\n      add\n      swap1\n      dup1\n      dup4\n      dup4\n      0x00\n    tag_302:\n      dup4\n      dup2\n      lt\n      iszero\n      tag_304\n      jumpi\n      dup1\n      dup3\n      add\n      mload\n      dup2\n      dup5\n      add\n      mstore\n      0x20\n      dup2\n      add\n      swap1\n      pop\n      jump(tag_302)\n    tag_304:\n      pop\n      pop\n      pop\n      pop\n      swap1\n      pop\n      swap1\n      dup2\n      add\n      swap1\n      0x1f\n      and\n      dup1\n      iszero\n      tag_305\n      jumpi\n      dup1\n      dup3\n      sub\n      dup1\n      mload\n      0x01\n      dup4\n      0x20\n      sub\n      0x0100\n      exp\n      sub\n      not\n      and\n      dup2\n      mstore\n      0x20\n      add\n      swap2\n      pop\n    tag_305:\n      pop\n      swap3\n      pop\n      pop\n      pop\n      mload(0x40)\n      dup1\n      swap2\n      sub\n      swap1\n      revert\n    tag_301:\n      pop\n        /* \"contracts/MonsterToken.sol\":6431:6440  uint256 c */\n      0x00\n        /* \"contracts/MonsterToken.sol\":6447:6448  b */\n      dup4\n        /* \"contracts/MonsterToken.sol\":6443:6444  a */\n      dup6\n        /* \"contracts/MonsterToken.sol\":6443:6448  a / b */\n      dup2\n      tag_306\n      jumpi\n      invalid\n    tag_306:\n      div\n        /* \"contracts/MonsterToken.sol\":6431:6448  uint256 c = a / b */\n      swap1\n      pop\n        /* \"contracts/MonsterToken.sol\":6555:6556  c */\n      dup1\n        /* \"contracts/MonsterToken.sol\":6548:6556  return c */\n      swap2\n      pop\n      pop\n        /* \"contracts/MonsterToken.sol\":6286:6564  function div(uint256 a, uint256 b, string memory errorMessage) internal pure returns (uint256) {\r... */\n      swap4\n      swap3\n      pop\n      pop\n      pop\n      jump\t// out\n        /* \"contracts/MonsterToken.sol\":4711:5182  function mul(uint256 a, uint256 b) internal pure returns (uint256) {\r... */\n    tag_251:\n        /* \"contracts/MonsterToken.sol\":4769:4776  uint256 */\n      0x00\n        /* \"contracts/MonsterToken.sol\":5019:5020  0 */\n      dup1\n        /* \"contracts/MonsterToken.sol\":5014:5015  a */\n      dup4\n        /* \"contracts/MonsterToken.sol\":5014:5020  a == 0 */\n      eq\n        /* \"contracts/MonsterToken.sol\":5010:5057  if (a == 0) {\r... */\n      iszero\n      tag_308\n      jumpi\n        /* \"contracts/MonsterToken.sol\":5044:5045  0 */\n      0x00\n        /* \"contracts/MonsterToken.sol\":5037:5045  return 0 */\n      swap1\n      pop\n      jump(tag_307)\n        /* \"contracts/MonsterToken.sol\":5010:5057  if (a == 0) {\r... */\n    tag_308:\n        /* \"contracts/MonsterToken.sol\":5069:5078  uint256 c */\n      0x00\n        /* \"contracts/MonsterToken.sol\":5085:5086  b */\n      dup3\n        /* \"contracts/MonsterToken.sol\":5081:5082  a */\n      dup5\n        /* \"contracts/MonsterToken.sol\":5081:5086  a * b */\n      mul\n        /* \"contracts/MonsterToken.sol\":5069:5086  uint256 c = a * b */\n      swap1\n      pop\n        /* \"contracts/MonsterToken.sol\":5114:5115  b */\n      dup3\n        /* \"contracts/MonsterToken.sol\":5109:5110  a */\n      dup5\n        /* \"contracts/MonsterToken.sol\":5105:5106  c */\n      dup3\n        /* \"contracts/MonsterToken.sol\":5105:5110  c / a */\n      dup2\n      tag_309\n      jumpi\n      invalid\n    tag_309:\n      div\n        /* \"contracts/MonsterToken.sol\":5105:5115  c / a == b */\n      eq\n        /* \"contracts/MonsterToken.sol\":5097:5153  require(c / a == b, \"SafeMath: multiplication overflow\") */\n      tag_310\n      jumpi\n      mload(0x40)\n      0x08c379a000000000000000000000000000000000000000000000000000000000\n      dup2\n      mstore\n      0x04\n      add\n      dup1\n      dup1\n      0x20\n      add\n      dup3\n      dup2\n      sub\n      dup3\n      mstore\n      0x21\n      dup2\n      mstore\n      0x20\n      add\n      dup1\n      data_9113bb53c2876a3805b2c9242029423fc540a728243ce887ab24c82cf119fba3\n      0x21\n      swap2\n      codecopy\n      0x40\n      add\n      swap2\n      pop\n      pop\n      mload(0x40)\n      dup1\n      swap2\n      sub\n      swap1\n      revert\n    tag_310:\n        /* \"contracts/MonsterToken.sol\":5173:5174  c */\n      dup1\n        /* \"contracts/MonsterToken.sol\":5166:5174  return c */\n      swap2\n      pop\n      pop\n        /* \"contracts/MonsterToken.sol\":4711:5182  function mul(uint256 a, uint256 b) internal pure returns (uint256) {\r... */\n    tag_307:\n      swap3\n      swap2\n      pop\n      pop\n      jump\t// out\n        /* \"contracts/MonsterToken.sol\":23978:24125  function _reflectFee(uint256 rFee, uint256 tFee) private {\r... */\n    tag_263:\n        /* \"contracts/MonsterToken.sol\":24056:24073  _rTotal.sub(rFee) */\n      tag_312\n        /* \"contracts/MonsterToken.sol\":24068:24072  rFee */\n      dup3\n        /* \"contracts/MonsterToken.sol\":24056:24063  _rTotal */\n      sload(0x06)\n        /* \"contracts/MonsterToken.sol\":24056:24067  _rTotal.sub */\n      tag_98\n      swap1\n        /* \"contracts/MonsterToken.sol\":24056:24073  _rTotal.sub(rFee) */\n      swap2\n      swap1\n      0xffffffff\n      and\n      jump\t// in\n    tag_312:\n        /* \"contracts/MonsterToken.sol\":24046:24053  _rTotal */\n      0x06\n        /* \"contracts/MonsterToken.sol\":24046:24073  _rTotal = _rTotal.sub(rFee) */\n      dup2\n      swap1\n      sstore\n      pop\n        /* \"contracts/MonsterToken.sol\":24097:24117  _tFeeTotal.add(tFee) */\n      tag_313\n        /* \"contracts/MonsterToken.sol\":24112:24116  tFee */\n      dup2\n        /* \"contracts/MonsterToken.sol\":24097:24107  _tFeeTotal */\n      sload(0x07)\n        /* \"contracts/MonsterToken.sol\":24097:24111  _tFeeTotal.add */\n      tag_101\n      swap1\n        /* \"contracts/MonsterToken.sol\":24097:24117  _tFeeTotal.add(tFee) */\n      swap2\n      swap1\n      0xffffffff\n      and\n      jump\t// in\n    tag_313:\n        /* \"contracts/MonsterToken.sol\":24084:24094  _tFeeTotal */\n      0x07\n        /* \"contracts/MonsterToken.sol\":24084:24117  _tFeeTotal = _tFeeTotal.add(tFee) */\n      dup2\n      swap1\n      sstore\n      pop\n        /* \"contracts/MonsterToken.sol\":23978:24125  function _reflectFee(uint256 rFee, uint256 tFee) private {\r... */\n      pop\n      pop\n      jump\t// out\n    stop\n    data_0557e210f7a69a685100a7e4e3d0a7024c546085cee28910fd17d0b081d9516f 45524332303a207472616e7366657220746f20746865207a65726f2061646472657373\n    data_22f7af55a509c3b14f0d528f087748dec8a8bf425135e3f5dc28c6a31ec6d812 416d6f756e74206d757374206265206c657373207468616e20746f74616c207265666c656374696f6e73\n    data_245f15ff17f551913a7a18385165551503906a406f905ac1c2437281a7cd0cfe 4f776e61626c653a206e6577206f776e657220697320746865207a65726f2061646472657373\n    data_24883cc5fe64ace9d0df1893501ecb93c77180f0ff69cca79affb3c316dc8029 45524332303a20617070726f766520746f20746865207a65726f2061646472657373\n    data_9113bb53c2876a3805b2c9242029423fc540a728243ce887ab24c82cf119fba3 536166654d6174683a206d756c7469706c69636174696f6e206f766572666c6f77\n    data_974d1b4421da69cc60b481194f0dad36a5bb4e23da810da7a7fb30cdba178330 45524332303a207472616e7366657220616d6f756e74206578636565647320616c6c6f77616e6365\n    data_9edb5ab58321f35d2386ea65721c9b107daa2c273610fc16d394af2a320ba785 5472616e7366657220616d6f756e74206d7573742062652067726561746572207468616e207a65726f\n    data_baecc556b46f4ed0f2b4cb599d60785ac8563dd2dc0a5bf12edea1c39e5e1fea 45524332303a207472616e736665722066726f6d20746865207a65726f2061646472657373\n    data_c953f4879035ed60e766b34720f656aab5c697b141d924c283124ecedb91c208 45524332303a20617070726f76652066726f6d20746865207a65726f2061646472657373\n    data_ecefcaf5fbcf9ca6dcdb02298ba1da96f4ead317b0a4779917ecb2e5e7dc3ac4 4578636c75646564206164647265737365732063616e6e6f742063616c6c20746869732066756e6374696f6e\n    data_f8b476f7d28209d77d4a4ac1fe36b9f8259aa1bb6bddfa6e89de7e51615cf8a8 45524332303a2064656372656173656420616c6c6f77616e63652062656c6f77207a65726f\n\n    auxdata: 0xa26469706673582212208657536166c74582cddaaf4c94fa37b3c55dc26fa97dfbc68acd14f30b057f0164736f6c634300060c0033\n}\n",
				"bytecode": {
					"linkReferences": {},
					"object": "6080604052678ac7230489e80000600019816200001857fe5b06600019036006556040518060400160405280600781526020017f4d4f4e5354455200000000000000000000000000000000000000000000000000815250600890805190602001906200006d92919062000276565b506040518060400160405280600381526020017f4d5354000000000000000000000000000000000000000000000000000000000081525060099080519060200190620000bb92919062000276565b506009600a60006101000a81548160ff021916908360ff160217905550348015620000e557600080fd5b506000620000f86200026e60201b60201c565b9050806000806101000a81548173ffffffffffffffffffffffffffffffffffffffff021916908373ffffffffffffffffffffffffffffffffffffffff1602179055508073ffffffffffffffffffffffffffffffffffffffff16600073ffffffffffffffffffffffffffffffffffffffff167f8be0079c531659141344cd1fd0a4f28419497f9722a3daafe3b4186f6b6457e060405160405180910390a35060065460016000620001ad6200026e60201b60201c565b73ffffffffffffffffffffffffffffffffffffffff1673ffffffffffffffffffffffffffffffffffffffff16815260200190815260200160002081905550620001fb6200026e60201b60201c565b73ffffffffffffffffffffffffffffffffffffffff16600073ffffffffffffffffffffffffffffffffffffffff167fddf252ad1be2c89b69c2b068fc378daa952ba7f163c4a11628f55a4df523b3ef678ac7230489e800006040518082815260200191505060405180910390a36200031c565b600033905090565b828054600181600116156101000203166002900490600052602060002090601f016020900481019282601f10620002b957805160ff1916838001178555620002ea565b82800160010185558215620002ea579182015b82811115620002e9578251825591602001919060010190620002cc565b5b509050620002f99190620002fd565b5090565b5b8082111562000318576000816000905550600101620002fe565b5090565b613458806200032c6000396000f3fe608060405234801561001057600080fd5b50600436106101375760003560e01c806370a08231116100b8578063a9059cbb1161007c578063a9059cbb146105a3578063cba0e99614610607578063dd62ed3e14610661578063f2cc0c18146106d9578063f2fde38b1461071d578063f84354f11461076157610137565b806370a0823114610426578063715018a61461047e5780638da5cb5b1461048857806395d89b41146104bc578063a457c2d71461053f57610137565b806323b872dd116100ff57806323b872dd1461028d5780632d83811914610311578063313ce5671461035357806339509351146103745780634549b039146103d857610137565b8063053ab1821461013c57806306fdde031461016a578063095ea7b3146101ed57806313114a9d1461025157806318160ddd1461026f575b600080fd5b6101686004803603602081101561015257600080fd5b81019080803590602001909291905050506107a5565b005b610172610935565b6040518080602001828103825283818151815260200191508051906020019080838360005b838110156101b2578082015181840152602081019050610197565b50505050905090810190601f1680156101df5780820380516001836020036101000a031916815260200191505b509250505060405180910390f35b6102396004803603604081101561020357600080fd5b81019080803573ffffffffffffffffffffffffffffffffffffffff169060200190929190803590602001909291905050506109d7565b60405180821515815260200191505060405180910390f35b6102596109f5565b6040518082815260200191505060405180910390f35b610277610ac7565b6040518082815260200191505060405180910390f35b6102f9600480360360608110156102a357600080fd5b81019080803573ffffffffffffffffffffffffffffffffffffffff169060200190929190803573ffffffffffffffffffffffffffffffffffffffff16906020019092919080359060200190929190505050610ad7565b60405180821515815260200191505060405180910390f35b61033d6004803603602081101561032757600080fd5b8101908080359060200190929190505050610bb0565b6040518082815260200191505060405180910390f35b61035b610c34565b604051808260ff16815260200191505060405180910390f35b6103c06004803603604081101561038a57600080fd5b81019080803573ffffffffffffffffffffffffffffffffffffffff16906020019092919080359060200190929190505050610c4b565b60405180821515815260200191505060405180910390f35b610410600480360360408110156103ee57600080fd5b8101908080359060200190929190803515159060200190929190505050610cfe565b6040518082815260200191505060405180910390f35b6104686004803603602081101561043c57600080fd5b81019080803573ffffffffffffffffffffffffffffffffffffffff169060200190929190505050610db9565b6040518082815260200191505060405180910390f35b610486610ea4565b005b61049061102a565b604051808273ffffffffffffffffffffffffffffffffffffffff16815260200191505060405180910390f35b6104c4611053565b6040518080602001828103825283818151815260200191508051906020019080838360005b838110156105045780820151818401526020810190506104e9565b50505050905090810190601f1680156105315780820380516001836020036101000a031916815260200191505b509250505060405180910390f35b61058b6004803603604081101561055557600080fd5b81019080803573ffffffffffffffffffffffffffffffffffffffff169060200190929190803590602001909291905050506110f5565b60405180821515815260200191505060405180910390f35b6105ef600480360360408110156105b957600080fd5b81019080803573ffffffffffffffffffffffffffffffffffffffff169060200190929190803590602001909291905050506111c2565b60405180821515815260200191505060405180910390f35b6106496004803603602081101561061d57600080fd5b81019080803573ffffffffffffffffffffffffffffffffffffffff169060200190929190505050611213565b60405180821515815260200191505060405180910390f35b6106c36004803603604081101561067757600080fd5b81019080803573ffffffffffffffffffffffffffffffffffffffff169060200190929190803573ffffffffffffffffffffffffffffffffffffffff169060200190929190505050611269565b6040518082815260200191505060405180910390f35b61071b600480360360208110156106ef57600080fd5b81019080803573ffffffffffffffffffffffffffffffffffffffff1690602001909291905050506112f0565b005b61075f6004803603602081101561073357600080fd5b81019080803573ffffffffffffffffffffffffffffffffffffffff16906020019092919050505061160a565b005b6107a36004803603602081101561077757600080fd5b81019080803573ffffffffffffffffffffffffffffffffffffffff169060200190929190505050611815565b005b60006107af611b9f565b9050600460008273ffffffffffffffffffffffffffffffffffffffff1673ffffffffffffffffffffffffffffffffffffffff16815260200190815260200160002060009054906101000a900460ff1615610854576040517f08c379a000000000000000000000000000000000000000000000000000000000815260040180806020018281038252602c8152602001806133d2602c913960400191505060405180910390fd5b600061085f83611ba7565b5050505090506108b781600160008573ffffffffffffffffffffffffffffffffffffffff1673ffffffffffffffffffffffffffffffffffffffff16815260200190815260200160002054611bff90919063ffffffff16565b600160008473ffffffffffffffffffffffffffffffffffffffff1673ffffffffffffffffffffffffffffffffffffffff1681526020019081526020016000208190555061090f81600654611bff90919063ffffffff16565b60068190555061092a83600754611c4990919063ffffffff16565b600781905550505050565b606060088054600181600116156101000203166002900480601f0160208091040260200160405190810160405280929190818152602001828054600181600116156101000203166002900480156109cd5780601f106109a2576101008083540402835291602001916109cd565b820191906000526020600020905b8154815290600101906020018083116109b057829003601f168201915b5050505050905090565b60006109eb6109e4611b9f565b8484611cd1565b6001905092915050565b60006109ff611b9f565b73ffffffffffffffffffffffffffffffffffffffff1660008054906101000a900473ffffffffffffffffffffffffffffffffffffffff1673ffffffffffffffffffffffffffffffffffffffff1614610abf576040517f08c379a00000000000000000000000000000000000000000000000000000000081526004018080602001828103825260208152602001807f4f776e61626c653a2063616c6c6572206973206e6f7420746865206f776e657281525060200191505060405180910390fd5b600754905090565b6000678ac7230489e80000905090565b6000610ae4848484611ec8565b610ba584610af0611b9f565b610ba08560405180606001604052806028815260200161333860289139600360008b73ffffffffffffffffffffffffffffffffffffffff1673ffffffffffffffffffffffffffffffffffffffff1681526020019081526020016000206000610b56611b9f565b73ffffffffffffffffffffffffffffffffffffffff1673ffffffffffffffffffffffffffffffffffffffff168152602001908152602001600020546123219092919063ffffffff16565b611cd1565b600190509392505050565b6000600654821115610c0d576040517f08c379a000000000000000000000000000000000000000000000000000000000815260040180806020018281038252602a8152602001806132a5602a913960400191505060405180910390fd5b6000610c176123e1565b9050610c2c818461240c90919063ffffffff16565b915050919050565b6000600a60009054906101000a900460ff16905090565b6000610cf4610c58611b9f565b84610cef8560036000610c69611b9f565b73ffffffffffffffffffffffffffffffffffffffff1673ffffffffffffffffffffffffffffffffffffffff16815260200190815260200160002060008973ffffffffffffffffffffffffffffffffffffffff1673ffffffffffffffffffffffffffffffffffffffff16815260200190815260200160002054611c4990919063ffffffff16565b611cd1565b6001905092915050565b6000678ac7230489e80000831115610d7e576040517f08c379a000000000000000000000000000000000000000000000000000000000815260040180806020018281038252601f8152602001807f416d6f756e74206d757374206265206c657373207468616e20737570706c790081525060200191505060405180910390fd5b81610d9d576000610d8e84611ba7565b50505050905080915050610db3565b6000610da884611ba7565b505050915050809150505b92915050565b6000600460008373ffffffffffffffffffffffffffffffffffffffff1673ffffffffffffffffffffffffffffffffffffffff16815260200190815260200160002060009054906101000a900460ff1615610e5457600260008373ffffffffffffffffffffffffffffffffffffffff1673ffffffffffffffffffffffffffffffffffffffff168152602001908152602001600020549050610e9f565b610e9c600160008473ffffffffffffffffffffffffffffffffffffffff1673ffffffffffffffffffffffffffffffffffffffff16815260200190815260200160002054610bb0565b90505b919050565b610eac611b9f565b73ffffffffffffffffffffffffffffffffffffffff1660008054906101000a900473ffffffffffffffffffffffffffffffffffffffff1673ffffffffffffffffffffffffffffffffffffffff1614610f6c576040517f08c379a00000000000000000000000000000000000000000000000000000000081526004018080602001828103825260208152602001807f4f776e61626c653a2063616c6c6572206973206e6f7420746865206f776e657281525060200191505060405180910390fd5b600073ffffffffffffffffffffffffffffffffffffffff1660008054906101000a900473ffffffffffffffffffffffffffffffffffffffff1673ffffffffffffffffffffffffffffffffffffffff167f8be0079c531659141344cd1fd0a4f28419497f9722a3daafe3b4186f6b6457e060405160405180910390a360008060006101000a81548173ffffffffffffffffffffffffffffffffffffffff021916908373ffffffffffffffffffffffffffffffffffffffff160217905550565b60008060009054906101000a900473ffffffffffffffffffffffffffffffffffffffff16905090565b606060098054600181600116156101000203166002900480601f0160208091040260200160405190810160405280929190818152602001828054600181600116156101000203166002900480156110eb5780601f106110c0576101008083540402835291602001916110eb565b820191906000526020600020905b8154815290600101906020018083116110ce57829003601f168201915b5050505050905090565b60006111b8611102611b9f565b846111b3856040518060600160405280602581526020016133fe602591396003600061112c611b9f565b73ffffffffffffffffffffffffffffffffffffffff1673ffffffffffffffffffffffffffffffffffffffff16815260200190815260200160002060008a73ffffffffffffffffffffffffffffffffffffffff1673ffffffffffffffffffffffffffffffffffffffff168152602001908152602001600020546123219092919063ffffffff16565b611cd1565b6001905092915050565b60006111d66111cf611b9f565b8484611ec8565b6112096111e161102a565b73a46ff2ed8d47a570f766d00991dccb940b9af27560056064868161120257fe5b0402611ec8565b6001905092915050565b6000600460008373ffffffffffffffffffffffffffffffffffffffff1673ffffffffffffffffffffffffffffffffffffffff16815260200190815260200160002060009054906101000a900460ff169050919050565b6000600360008473ffffffffffffffffffffffffffffffffffffffff1673ffffffffffffffffffffffffffffffffffffffff16815260200190815260200160002060008373ffffffffffffffffffffffffffffffffffffffff1673ffffffffffffffffffffffffffffffffffffffff16815260200190815260200160002054905092915050565b6112f8611b9f565b73ffffffffffffffffffffffffffffffffffffffff1660008054906101000a900473ffffffffffffffffffffffffffffffffffffffff1673ffffffffffffffffffffffffffffffffffffffff16146113b8576040517f08c379a00000000000000000000000000000000000000000000000000000000081526004018080602001828103825260208152602001807f4f776e61626c653a2063616c6c6572206973206e6f7420746865206f776e657281525060200191505060405180910390fd5b600460008273ffffffffffffffffffffffffffffffffffffffff1673ffffffffffffffffffffffffffffffffffffffff16815260200190815260200160002060009054906101000a900460ff1615611478576040517f08c379a000000000000000000000000000000000000000000000000000000000815260040180806020018281038252601b8152602001807f4163636f756e7420697320616c7265616479206578636c75646564000000000081525060200191505060405180910390fd5b6000600160008373ffffffffffffffffffffffffffffffffffffffff1673ffffffffffffffffffffffffffffffffffffffff16815260200190815260200160002054111561154c57611508600160008373ffffffffffffffffffffffffffffffffffffffff1673ffffffffffffffffffffffffffffffffffffffff16815260200190815260200160002054610bb0565b600260008373ffffffffffffffffffffffffffffffffffffffff1673ffffffffffffffffffffffffffffffffffffffff168152602001908152602001600020819055505b6001600460008373ffffffffffffffffffffffffffffffffffffffff1673ffffffffffffffffffffffffffffffffffffffff16815260200190815260200160002060006101000a81548160ff0219169083151502179055506005819080600181540180825580915050600190039060005260206000200160009091909190916101000a81548173ffffffffffffffffffffffffffffffffffffffff021916908373ffffffffffffffffffffffffffffffffffffffff16021790555050565b611612611b9f565b73ffffffffffffffffffffffffffffffffffffffff1660008054906101000a900473ffffffffffffffffffffffffffffffffffffffff1673ffffffffffffffffffffffffffffffffffffffff16146116d2576040517f08c379a00000000000000000000000000000000000000000000000000000000081526004018080602001828103825260208152602001807f4f776e61626c653a2063616c6c6572206973206e6f7420746865206f776e657281525060200191505060405180910390fd5b600073ffffffffffffffffffffffffffffffffffffffff168173ffffffffffffffffffffffffffffffffffffffff161415611758576040517f08c379a00000000000000000000000000000000000000000000000000000000081526004018080602001828103825260268152602001806132cf6026913960400191505060405180910390fd5b8073ffffffffffffffffffffffffffffffffffffffff1660008054906101000a900473ffffffffffffffffffffffffffffffffffffffff1673ffffffffffffffffffffffffffffffffffffffff167f8be0079c531659141344cd1fd0a4f28419497f9722a3daafe3b4186f6b6457e060405160405180910390a3806000806101000a81548173ffffffffffffffffffffffffffffffffffffffff021916908373ffffffffffffffffffffffffffffffffffffffff16021790555050565b61181d611b9f565b73ffffffffffffffffffffffffffffffffffffffff1660008054906101000a900473ffffffffffffffffffffffffffffffffffffffff1673ffffffffffffffffffffffffffffffffffffffff16146118dd576040517f08c379a00000000000000000000000000000000000000000000000000000000081526004018080602001828103825260208152602001807f4f776e61626c653a2063616c6c6572206973206e6f7420746865206f776e657281525060200191505060405180910390fd5b600460008273ffffffffffffffffffffffffffffffffffffffff1673ffffffffffffffffffffffffffffffffffffffff16815260200190815260200160002060009054906101000a900460ff1661199c576040517f08c379a000000000000000000000000000000000000000000000000000000000815260040180806020018281038252601b8152602001807f4163636f756e7420697320616c7265616479206578636c75646564000000000081525060200191505060405180910390fd5b60005b600580549050811015611b9b578173ffffffffffffffffffffffffffffffffffffffff16600582815481106119d057fe5b9060005260206000200160009054906101000a900473ffffffffffffffffffffffffffffffffffffffff1673ffffffffffffffffffffffffffffffffffffffff161415611b8e57600560016005805490500381548110611a2c57fe5b9060005260206000200160009054906101000a900473ffffffffffffffffffffffffffffffffffffffff1660058281548110611a6457fe5b9060005260206000200160006101000a81548173ffffffffffffffffffffffffffffffffffffffff021916908373ffffffffffffffffffffffffffffffffffffffff1602179055506000600260008473ffffffffffffffffffffffffffffffffffffffff1673ffffffffffffffffffffffffffffffffffffffff168152602001908152602001600020819055506000600460008473ffffffffffffffffffffffffffffffffffffffff1673ffffffffffffffffffffffffffffffffffffffff16815260200190815260200160002060006101000a81548160ff0219169083151502179055506005805480611b5457fe5b6001900381819060005260206000200160006101000a81549073ffffffffffffffffffffffffffffffffffffffff02191690559055611b9b565b808060010191505061199f565b5050565b600033905090565b6000806000806000806000611bbb88612456565b915091506000611bc96123e1565b90506000806000611bdb8c86866124a8565b92509250925082828288889a509a509a509a509a5050505050505091939590929450565b6000611c4183836040518060400160405280601e81526020017f536166654d6174683a207375627472616374696f6e206f766572666c6f770000815250612321565b905092915050565b600080828401905083811015611cc7576040517f08c379a000000000000000000000000000000000000000000000000000000000815260040180806020018281038252601b8152602001807f536166654d6174683a206164646974696f6e206f766572666c6f77000000000081525060200191505060405180910390fd5b8091505092915050565b600073ffffffffffffffffffffffffffffffffffffffff168373ffffffffffffffffffffffffffffffffffffffff161415611d57576040517f08c379a00000000000000000000000000000000000000000000000000000000081526004018080602001828103825260248152602001806133ae6024913960400191505060405180910390fd5b600073ffffffffffffffffffffffffffffffffffffffff168273ffffffffffffffffffffffffffffffffffffffff161415611ddd576040517f08c379a00000000000000000000000000000000000000000000000000000000081526004018080602001828103825260228152602001806132f56022913960400191505060405180910390fd5b80600360008573ffffffffffffffffffffffffffffffffffffffff1673ffffffffffffffffffffffffffffffffffffffff16815260200190815260200160002060008473ffffffffffffffffffffffffffffffffffffffff1673ffffffffffffffffffffffffffffffffffffffff168152602001908152602001600020819055508173ffffffffffffffffffffffffffffffffffffffff168373ffffffffffffffffffffffffffffffffffffffff167f8c5be1e5ebec7d5bd14f71427d1e84f3dd0314c0f7b2291e5b200ac8c7c3b925836040518082815260200191505060405180910390a3505050565b600073ffffffffffffffffffffffffffffffffffffffff168373ffffffffffffffffffffffffffffffffffffffff161415611f4e576040517f08c379a00000000000000000000000000000000000000000000000000000000081526004018080602001828103825260258152602001806133896025913960400191505060405180910390fd5b600073ffffffffffffffffffffffffffffffffffffffff168273ffffffffffffffffffffffffffffffffffffffff161415611fd4576040517f08c379a00000000000000000000000000000000000000000000000000000000081526004018080602001828103825260238152602001806132826023913960400191505060405180910390fd5b6000811161202d576040517f08c379a00000000000000000000000000000000000000000000000000000000081526004018080602001828103825260298152602001806133606029913960400191505060405180910390fd5b600460008473ffffffffffffffffffffffffffffffffffffffff1673ffffffffffffffffffffffffffffffffffffffff16815260200190815260200160002060009054906101000a900460ff1680156120d05750600460008373ffffffffffffffffffffffffffffffffffffffff1673ffffffffffffffffffffffffffffffffffffffff16815260200190815260200160002060009054906101000a900460ff16155b156120e5576120e0838383612506565b61231c565b600460008473ffffffffffffffffffffffffffffffffffffffff1673ffffffffffffffffffffffffffffffffffffffff16815260200190815260200160002060009054906101000a900460ff161580156121885750600460008373ffffffffffffffffffffffffffffffffffffffff1673ffffffffffffffffffffffffffffffffffffffff16815260200190815260200160002060009054906101000a900460ff165b1561219d57612198838383612759565b61231b565b600460008473ffffffffffffffffffffffffffffffffffffffff1673ffffffffffffffffffffffffffffffffffffffff16815260200190815260200160002060009054906101000a900460ff161580156122415750600460008373ffffffffffffffffffffffffffffffffffffffff1673ffffffffffffffffffffffffffffffffffffffff16815260200190815260200160002060009054906101000a900460ff16155b15612256576122518383836129ac565b61231a565b600460008473ffffffffffffffffffffffffffffffffffffffff1673ffffffffffffffffffffffffffffffffffffffff16815260200190815260200160002060009054906101000a900460ff1680156122f85750600460008373ffffffffffffffffffffffffffffffffffffffff1673ffffffffffffffffffffffffffffffffffffffff16815260200190815260200160002060009054906101000a900460ff165b1561230d57612308838383612b6a565b612319565b6123188383836129ac565b5b5b5b5b505050565b60008383111582906123ce576040517f08c379a00000000000000000000000000000000000000000000000000000000081526004018080602001828103825283818151815260200191508051906020019080838360005b83811015612393578082015181840152602081019050612378565b50505050905090810190601f1680156123c05780820380516001836020036101000a031916815260200191505b509250505060405180910390fd5b5060008385039050809150509392505050565b60008060006123ee612e52565b91509150612405818361240c90919063ffffffff16565b9250505090565b600061244e83836040518060400160405280601a81526020017f536166654d6174683a206469766973696f6e206279207a65726f0000000000008152506130fb565b905092915050565b6000806000612482600261247460648761240c90919063ffffffff16565b6131c190919063ffffffff16565b905060006124998286611bff90919063ffffffff16565b90508082935093505050915091565b6000806000806124c185886131c190919063ffffffff16565b905060006124d886886131c190919063ffffffff16565b905060006124ef8284611bff90919063ffffffff16565b905082818395509550955050505093509350939050565b600080600080600061251786611ba7565b9450945094509450945061257386600260008b73ffffffffffffffffffffffffffffffffffffffff1673ffffffffffffffffffffffffffffffffffffffff16815260200190815260200160002054611bff90919063ffffffff16565b600260008a73ffffffffffffffffffffffffffffffffffffffff1673ffffffffffffffffffffffffffffffffffffffff1681526020019081526020016000208190555061260885600160008b73ffffffffffffffffffffffffffffffffffffffff1673ffffffffffffffffffffffffffffffffffffffff16815260200190815260200160002054611bff90919063ffffffff16565b600160008a73ffffffffffffffffffffffffffffffffffffffff1673ffffffffffffffffffffffffffffffffffffffff1681526020019081526020016000208190555061269d84600160008a73ffffffffffffffffffffffffffffffffffffffff1673ffffffffffffffffffffffffffffffffffffffff16815260200190815260200160002054611c4990919063ffffffff16565b600160008973ffffffffffffffffffffffffffffffffffffffff1673ffffffffffffffffffffffffffffffffffffffff168152602001908152602001600020819055506126ea8382613247565b8673ffffffffffffffffffffffffffffffffffffffff168873ffffffffffffffffffffffffffffffffffffffff167fddf252ad1be2c89b69c2b068fc378daa952ba7f163c4a11628f55a4df523b3ef846040518082815260200191505060405180910390a35050505050505050565b600080600080600061276a86611ba7565b945094509450945094506127c685600160008b73ffffffffffffffffffffffffffffffffffffffff1673ffffffffffffffffffffffffffffffffffffffff16815260200190815260200160002054611bff90919063ffffffff16565b600160008a73ffffffffffffffffffffffffffffffffffffffff1673ffffffffffffffffffffffffffffffffffffffff1681526020019081526020016000208190555061285b82600260008a73ffffffffffffffffffffffffffffffffffffffff1673ffffffffffffffffffffffffffffffffffffffff16815260200190815260200160002054611c4990919063ffffffff16565b600260008973ffffffffffffffffffffffffffffffffffffffff1673ffffffffffffffffffffffffffffffffffffffff168152602001908152602001600020819055506128f084600160008a73ffffffffffffffffffffffffffffffffffffffff1673ffffffffffffffffffffffffffffffffffffffff16815260200190815260200160002054611c4990919063ffffffff16565b600160008973ffffffffffffffffffffffffffffffffffffffff1673ffffffffffffffffffffffffffffffffffffffff1681526020019081526020016000208190555061293d8382613247565b8673ffffffffffffffffffffffffffffffffffffffff168873ffffffffffffffffffffffffffffffffffffffff167fddf252ad1be2c89b69c2b068fc378daa952ba7f163c4a11628f55a4df523b3ef846040518082815260200191505060405180910390a35050505050505050565b60008060008060006129bd86611ba7565b94509450945094509450612a1985600160008b73ffffffffffffffffffffffffffffffffffffffff1673ffffffffffffffffffffffffffffffffffffffff16815260200190815260200160002054611bff90919063ffffffff16565b600160008a73ffffffffffffffffffffffffffffffffffffffff1673ffffffffffffffffffffffffffffffffffffffff16815260200190815260200160002081905550612aae84600160008a73ffffffffffffffffffffffffffffffffffffffff1673ffffffffffffffffffffffffffffffffffffffff16815260200190815260200160002054611c4990919063ffffffff16565b600160008973ffffffffffffffffffffffffffffffffffffffff1673ffffffffffffffffffffffffffffffffffffffff16815260200190815260200160002081905550612afb8382613247565b8673ffffffffffffffffffffffffffffffffffffffff168873ffffffffffffffffffffffffffffffffffffffff167fddf252ad1be2c89b69c2b068fc378daa952ba7f163c4a11628f55a4df523b3ef846040518082815260200191505060405180910390a35050505050505050565b6000806000806000612b7b86611ba7565b94509450945094509450612bd786600260008b73ffffffffffffffffffffffffffffffffffffffff1673ffffffffffffffffffffffffffffffffffffffff16815260200190815260200160002054611bff90919063ffffffff16565b600260008a73ffffffffffffffffffffffffffffffffffffffff1673ffffffffffffffffffffffffffffffffffffffff16815260200190815260200160002081905550612c6c85600160008b73ffffffffffffffffffffffffffffffffffffffff1673ffffffffffffffffffffffffffffffffffffffff16815260200190815260200160002054611bff90919063ffffffff16565b600160008a73ffffffffffffffffffffffffffffffffffffffff1673ffffffffffffffffffffffffffffffffffffffff16815260200190815260200160002081905550612d0182600260008a73ffffffffffffffffffffffffffffffffffffffff1673ffffffffffffffffffffffffffffffffffffffff16815260200190815260200160002054611c4990919063ffffffff16565b600260008973ffffffffffffffffffffffffffffffffffffffff1673ffffffffffffffffffffffffffffffffffffffff16815260200190815260200160002081905550612d9684600160008a73ffffffffffffffffffffffffffffffffffffffff1673ffffffffffffffffffffffffffffffffffffffff16815260200190815260200160002054611c4990919063ffffffff16565b600160008973ffffffffffffffffffffffffffffffffffffffff1673ffffffffffffffffffffffffffffffffffffffff16815260200190815260200160002081905550612de38382613247565b8673ffffffffffffffffffffffffffffffffffffffff168873ffffffffffffffffffffffffffffffffffffffff167fddf252ad1be2c89b69c2b068fc378daa952ba7f163c4a11628f55a4df523b3ef846040518082815260200191505060405180910390a35050505050505050565b600080600060065490506000678ac7230489e80000905060005b6005805490508110156130b257826001600060058481548110612e8b57fe5b9060005260206000200160009054906101000a900473ffffffffffffffffffffffffffffffffffffffff1673ffffffffffffffffffffffffffffffffffffffff1673ffffffffffffffffffffffffffffffffffffffff168152602001908152602001600020541180612f725750816002600060058481548110612f0a57fe5b9060005260206000200160009054906101000a900473ffffffffffffffffffffffffffffffffffffffff1673ffffffffffffffffffffffffffffffffffffffff1673ffffffffffffffffffffffffffffffffffffffff16815260200190815260200160002054115b15612f8f57600654678ac7230489e80000945094505050506130f7565b6130186001600060058481548110612fa357fe5b9060005260206000200160009054906101000a900473ffffffffffffffffffffffffffffffffffffffff1673ffffffffffffffffffffffffffffffffffffffff1673ffffffffffffffffffffffffffffffffffffffff1681526020019081526020016000205484611bff90919063ffffffff16565b92506130a3600260006005848154811061302e57fe5b9060005260206000200160009054906101000a900473ffffffffffffffffffffffffffffffffffffffff1673ffffffffffffffffffffffffffffffffffffffff1673ffffffffffffffffffffffffffffffffffffffff1681526020019081526020016000205483611bff90919063ffffffff16565b91508080600101915050612e6c565b506130d0678ac7230489e8000060065461240c90919063ffffffff16565b8210156130ee57600654678ac7230489e800009350935050506130f7565b81819350935050505b9091565b600080831182906131a7576040517f08c379a00000000000000000000000000000000000000000000000000000000081526004018080602001828103825283818151815260200191508051906020019080838360005b8381101561316c578082015181840152602081019050613151565b50505050905090810190601f1680156131995780820380516001836020036101000a031916815260200191505b509250505060405180910390fd5b5060008385816131b357fe5b049050809150509392505050565b6000808314156131d45760009050613241565b60008284029050828482816131e557fe5b041461323c576040517f08c379a00000000000000000000000000000000000000000000000000000000081526004018080602001828103825260218152602001806133176021913960400191505060405180910390fd5b809150505b92915050565b61325c82600654611bff90919063ffffffff16565b60068190555061327781600754611c4990919063ffffffff16565b600781905550505056fe45524332303a207472616e7366657220746f20746865207a65726f2061646472657373416d6f756e74206d757374206265206c657373207468616e20746f74616c207265666c656374696f6e734f776e61626c653a206e6577206f776e657220697320746865207a65726f206164647265737345524332303a20617070726f766520746f20746865207a65726f2061646472657373536166654d6174683a206d756c7469706c69636174696f6e206f766572666c6f7745524332303a207472616e7366657220616d6f756e74206578636565647320616c6c6f77616e63655472616e7366657220616d6f756e74206d7573742062652067726561746572207468616e207a65726f45524332303a207472616e736665722066726f6d20746865207a65726f206164647265737345524332303a20617070726f76652066726f6d20746865207a65726f20616464726573734578636c75646564206164647265737365732063616e6e6f742063616c6c20746869732066756e6374696f6e45524332303a2064656372656173656420616c6c6f77616e63652062656c6f77207a65726fa26469706673582212208657536166c74582cddaaf4c94fa37b3c55dc26fa97dfbc68acd14f30b057f0164736f6c634300060c0033",
					"opcodes": "PUSH1 0x80 PUSH1 0x40 MSTORE PUSH8 0x8AC7230489E80000 PUSH1 0x0 NOT DUP2 PUSH3 0x18 JUMPI INVALID JUMPDEST MOD PUSH1 0x0 NOT SUB PUSH1 0x6 SSTORE PUSH1 0x40 MLOAD DUP1 PUSH1 0x40 ADD PUSH1 0x40 MSTORE DUP1 PUSH1 0x7 DUP2 MSTORE PUSH1 0x20 ADD PUSH32 0x4D4F4E5354455200000000000000000000000000000000000000000000000000 DUP2 MSTORE POP PUSH1 0x8 SWAP1 DUP1 MLOAD SWAP1 PUSH1 0x20 ADD SWAP1 PUSH3 0x6D SWAP3 SWAP2 SWAP1 PUSH3 0x276 JUMP JUMPDEST POP PUSH1 0x40 MLOAD DUP1 PUSH1 0x40 ADD PUSH1 0x40 MSTORE DUP1 PUSH1 0x3 DUP2 MSTORE PUSH1 0x20 ADD PUSH32 0x4D53540000000000000000000000000000000000000000000000000000000000 DUP2 MSTORE POP PUSH1 0x9 SWAP1 DUP1 MLOAD SWAP1 PUSH1 0x20 ADD SWAP1 PUSH3 0xBB SWAP3 SWAP2 SWAP1 PUSH3 0x276 JUMP JUMPDEST POP PUSH1 0x9 PUSH1 0xA PUSH1 0x0 PUSH2 0x100 EXP DUP2 SLOAD DUP2 PUSH1 0xFF MUL NOT AND SWAP1 DUP4 PUSH1 0xFF AND MUL OR SWAP1 SSTORE POP CALLVALUE DUP1 ISZERO PUSH3 0xE5 JUMPI PUSH1 0x0 DUP1 REVERT JUMPDEST POP PUSH1 0x0 PUSH3 0xF8 PUSH3 0x26E PUSH1 0x20 SHL PUSH1 0x20 SHR JUMP JUMPDEST SWAP1 POP DUP1 PUSH1 0x0 DUP1 PUSH2 0x100 EXP DUP2 SLOAD DUP2 PUSH20 0xFFFFFFFFFFFFFFFFFFFFFFFFFFFFFFFFFFFFFFFF MUL NOT AND SWAP1 DUP4 PUSH20 0xFFFFFFFFFFFFFFFFFFFFFFFFFFFFFFFFFFFFFFFF AND MUL OR SWAP1 SSTORE POP DUP1 PUSH20 0xFFFFFFFFFFFFFFFFFFFFFFFFFFFFFFFFFFFFFFFF AND PUSH1 0x0 PUSH20 0xFFFFFFFFFFFFFFFFFFFFFFFFFFFFFFFFFFFFFFFF AND PUSH32 0x8BE0079C531659141344CD1FD0A4F28419497F9722A3DAAFE3B4186F6B6457E0 PUSH1 0x40 MLOAD PUSH1 0x40 MLOAD DUP1 SWAP2 SUB SWAP1 LOG3 POP PUSH1 0x6 SLOAD PUSH1 0x1 PUSH1 0x0 PUSH3 0x1AD PUSH3 0x26E PUSH1 0x20 SHL PUSH1 0x20 SHR JUMP JUMPDEST PUSH20 0xFFFFFFFFFFFFFFFFFFFFFFFFFFFFFFFFFFFFFFFF AND PUSH20 0xFFFFFFFFFFFFFFFFFFFFFFFFFFFFFFFFFFFFFFFF AND DUP2 MSTORE PUSH1 0x20 ADD SWAP1 DUP2 MSTORE PUSH1 0x20 ADD PUSH1 0x0 KECCAK256 DUP2 SWAP1 SSTORE POP PUSH3 0x1FB PUSH3 0x26E PUSH1 0x20 SHL PUSH1 0x20 SHR JUMP JUMPDEST PUSH20 0xFFFFFFFFFFFFFFFFFFFFFFFFFFFFFFFFFFFFFFFF AND PUSH1 0x0 PUSH20 0xFFFFFFFFFFFFFFFFFFFFFFFFFFFFFFFFFFFFFFFF AND PUSH32 0xDDF252AD1BE2C89B69C2B068FC378DAA952BA7F163C4A11628F55A4DF523B3EF PUSH8 0x8AC7230489E80000 PUSH1 0x40 MLOAD DUP1 DUP3 DUP2 MSTORE PUSH1 0x20 ADD SWAP2 POP POP PUSH1 0x40 MLOAD DUP1 SWAP2 SUB SWAP1 LOG3 PUSH3 0x31C JUMP JUMPDEST PUSH1 0x0 CALLER SWAP1 POP SWAP1 JUMP JUMPDEST DUP3 DUP1 SLOAD PUSH1 0x1 DUP2 PUSH1 0x1 AND ISZERO PUSH2 0x100 MUL SUB AND PUSH1 0x2 SWAP1 DIV SWAP1 PUSH1 0x0 MSTORE PUSH1 0x20 PUSH1 0x0 KECCAK256 SWAP1 PUSH1 0x1F ADD PUSH1 0x20 SWAP1 DIV DUP2 ADD SWAP3 DUP3 PUSH1 0x1F LT PUSH3 0x2B9 JUMPI DUP1 MLOAD PUSH1 0xFF NOT AND DUP4 DUP1 ADD OR DUP6 SSTORE PUSH3 0x2EA JUMP JUMPDEST DUP3 DUP1 ADD PUSH1 0x1 ADD DUP6 SSTORE DUP3 ISZERO PUSH3 0x2EA JUMPI SWAP2 DUP3 ADD JUMPDEST DUP3 DUP2 GT ISZERO PUSH3 0x2E9 JUMPI DUP3 MLOAD DUP3 SSTORE SWAP2 PUSH1 0x20 ADD SWAP2 SWAP1 PUSH1 0x1 ADD SWAP1 PUSH3 0x2CC JUMP JUMPDEST JUMPDEST POP SWAP1 POP PUSH3 0x2F9 SWAP2 SWAP1 PUSH3 0x2FD JUMP JUMPDEST POP SWAP1 JUMP JUMPDEST JUMPDEST DUP1 DUP3 GT ISZERO PUSH3 0x318 JUMPI PUSH1 0x0 DUP2 PUSH1 0x0 SWAP1 SSTORE POP PUSH1 0x1 ADD PUSH3 0x2FE JUMP JUMPDEST POP SWAP1 JUMP JUMPDEST PUSH2 0x3458 DUP1 PUSH3 0x32C PUSH1 0x0 CODECOPY PUSH1 0x0 RETURN INVALID PUSH1 0x80 PUSH1 0x40 MSTORE CALLVALUE DUP1 ISZERO PUSH2 0x10 JUMPI PUSH1 0x0 DUP1 REVERT JUMPDEST POP PUSH1 0x4 CALLDATASIZE LT PUSH2 0x137 JUMPI PUSH1 0x0 CALLDATALOAD PUSH1 0xE0 SHR DUP1 PUSH4 0x70A08231 GT PUSH2 0xB8 JUMPI DUP1 PUSH4 0xA9059CBB GT PUSH2 0x7C JUMPI DUP1 PUSH4 0xA9059CBB EQ PUSH2 0x5A3 JUMPI DUP1 PUSH4 0xCBA0E996 EQ PUSH2 0x607 JUMPI DUP1 PUSH4 0xDD62ED3E EQ PUSH2 0x661 JUMPI DUP1 PUSH4 0xF2CC0C18 EQ PUSH2 0x6D9 JUMPI DUP1 PUSH4 0xF2FDE38B EQ PUSH2 0x71D JUMPI DUP1 PUSH4 0xF84354F1 EQ PUSH2 0x761 JUMPI PUSH2 0x137 JUMP JUMPDEST DUP1 PUSH4 0x70A08231 EQ PUSH2 0x426 JUMPI DUP1 PUSH4 0x715018A6 EQ PUSH2 0x47E JUMPI DUP1 PUSH4 0x8DA5CB5B EQ PUSH2 0x488 JUMPI DUP1 PUSH4 0x95D89B41 EQ PUSH2 0x4BC JUMPI DUP1 PUSH4 0xA457C2D7 EQ PUSH2 0x53F JUMPI PUSH2 0x137 JUMP JUMPDEST DUP1 PUSH4 0x23B872DD GT PUSH2 0xFF JUMPI DUP1 PUSH4 0x23B872DD EQ PUSH2 0x28D JUMPI DUP1 PUSH4 0x2D838119 EQ PUSH2 0x311 JUMPI DUP1 PUSH4 0x313CE567 EQ PUSH2 0x353 JUMPI DUP1 PUSH4 0x39509351 EQ PUSH2 0x374 JUMPI DUP1 PUSH4 0x4549B039 EQ PUSH2 0x3D8 JUMPI PUSH2 0x137 JUMP JUMPDEST DUP1 PUSH4 0x53AB182 EQ PUSH2 0x13C JUMPI DUP1 PUSH4 0x6FDDE03 EQ PUSH2 0x16A JUMPI DUP1 PUSH4 0x95EA7B3 EQ PUSH2 0x1ED JUMPI DUP1 PUSH4 0x13114A9D EQ PUSH2 0x251 JUMPI DUP1 PUSH4 0x18160DDD EQ PUSH2 0x26F JUMPI JUMPDEST PUSH1 0x0 DUP1 REVERT JUMPDEST PUSH2 0x168 PUSH1 0x4 DUP1 CALLDATASIZE SUB PUSH1 0x20 DUP2 LT ISZERO PUSH2 0x152 JUMPI PUSH1 0x0 DUP1 REVERT JUMPDEST DUP2 ADD SWAP1 DUP1 DUP1 CALLDATALOAD SWAP1 PUSH1 0x20 ADD SWAP1 SWAP3 SWAP2 SWAP1 POP POP POP PUSH2 0x7A5 JUMP JUMPDEST STOP JUMPDEST PUSH2 0x172 PUSH2 0x935 JUMP JUMPDEST PUSH1 0x40 MLOAD DUP1 DUP1 PUSH1 0x20 ADD DUP3 DUP2 SUB DUP3 MSTORE DUP4 DUP2 DUP2 MLOAD DUP2 MSTORE PUSH1 0x20 ADD SWAP2 POP DUP1 MLOAD SWAP1 PUSH1 0x20 ADD SWAP1 DUP1 DUP4 DUP4 PUSH1 0x0 JUMPDEST DUP4 DUP2 LT ISZERO PUSH2 0x1B2 JUMPI DUP1 DUP3 ADD MLOAD DUP2 DUP5 ADD MSTORE PUSH1 0x20 DUP2 ADD SWAP1 POP PUSH2 0x197 JUMP JUMPDEST POP POP POP POP SWAP1 POP SWAP1 DUP2 ADD SWAP1 PUSH1 0x1F AND DUP1 ISZERO PUSH2 0x1DF JUMPI DUP1 DUP3 SUB DUP1 MLOAD PUSH1 0x1 DUP4 PUSH1 0x20 SUB PUSH2 0x100 EXP SUB NOT AND DUP2 MSTORE PUSH1 0x20 ADD SWAP2 POP JUMPDEST POP SWAP3 POP POP POP PUSH1 0x40 MLOAD DUP1 SWAP2 SUB SWAP1 RETURN JUMPDEST PUSH2 0x239 PUSH1 0x4 DUP1 CALLDATASIZE SUB PUSH1 0x40 DUP2 LT ISZERO PUSH2 0x203 JUMPI PUSH1 0x0 DUP1 REVERT JUMPDEST DUP2 ADD SWAP1 DUP1 DUP1 CALLDATALOAD PUSH20 0xFFFFFFFFFFFFFFFFFFFFFFFFFFFFFFFFFFFFFFFF AND SWAP1 PUSH1 0x20 ADD SWAP1 SWAP3 SWAP2 SWAP1 DUP1 CALLDATALOAD SWAP1 PUSH1 0x20 ADD SWAP1 SWAP3 SWAP2 SWAP1 POP POP POP PUSH2 0x9D7 JUMP JUMPDEST PUSH1 0x40 MLOAD DUP1 DUP3 ISZERO ISZERO DUP2 MSTORE PUSH1 0x20 ADD SWAP2 POP POP PUSH1 0x40 MLOAD DUP1 SWAP2 SUB SWAP1 RETURN JUMPDEST PUSH2 0x259 PUSH2 0x9F5 JUMP JUMPDEST PUSH1 0x40 MLOAD DUP1 DUP3 DUP2 MSTORE PUSH1 0x20 ADD SWAP2 POP POP PUSH1 0x40 MLOAD DUP1 SWAP2 SUB SWAP1 RETURN JUMPDEST PUSH2 0x277 PUSH2 0xAC7 JUMP JUMPDEST PUSH1 0x40 MLOAD DUP1 DUP3 DUP2 MSTORE PUSH1 0x20 ADD SWAP2 POP POP PUSH1 0x40 MLOAD DUP1 SWAP2 SUB SWAP1 RETURN JUMPDEST PUSH2 0x2F9 PUSH1 0x4 DUP1 CALLDATASIZE SUB PUSH1 0x60 DUP2 LT ISZERO PUSH2 0x2A3 JUMPI PUSH1 0x0 DUP1 REVERT JUMPDEST DUP2 ADD SWAP1 DUP1 DUP1 CALLDATALOAD PUSH20 0xFFFFFFFFFFFFFFFFFFFFFFFFFFFFFFFFFFFFFFFF AND SWAP1 PUSH1 0x20 ADD SWAP1 SWAP3 SWAP2 SWAP1 DUP1 CALLDATALOAD PUSH20 0xFFFFFFFFFFFFFFFFFFFFFFFFFFFFFFFFFFFFFFFF AND SWAP1 PUSH1 0x20 ADD SWAP1 SWAP3 SWAP2 SWAP1 DUP1 CALLDATALOAD SWAP1 PUSH1 0x20 ADD SWAP1 SWAP3 SWAP2 SWAP1 POP POP POP PUSH2 0xAD7 JUMP JUMPDEST PUSH1 0x40 MLOAD DUP1 DUP3 ISZERO ISZERO DUP2 MSTORE PUSH1 0x20 ADD SWAP2 POP POP PUSH1 0x40 MLOAD DUP1 SWAP2 SUB SWAP1 RETURN JUMPDEST PUSH2 0x33D PUSH1 0x4 DUP1 CALLDATASIZE SUB PUSH1 0x20 DUP2 LT ISZERO PUSH2 0x327 JUMPI PUSH1 0x0 DUP1 REVERT JUMPDEST DUP2 ADD SWAP1 DUP1 DUP1 CALLDATALOAD SWAP1 PUSH1 0x20 ADD SWAP1 SWAP3 SWAP2 SWAP1 POP POP POP PUSH2 0xBB0 JUMP JUMPDEST PUSH1 0x40 MLOAD DUP1 DUP3 DUP2 MSTORE PUSH1 0x20 ADD SWAP2 POP POP PUSH1 0x40 MLOAD DUP1 SWAP2 SUB SWAP1 RETURN JUMPDEST PUSH2 0x35B PUSH2 0xC34 JUMP JUMPDEST PUSH1 0x40 MLOAD DUP1 DUP3 PUSH1 0xFF AND DUP2 MSTORE PUSH1 0x20 ADD SWAP2 POP POP PUSH1 0x40 MLOAD DUP1 SWAP2 SUB SWAP1 RETURN JUMPDEST PUSH2 0x3C0 PUSH1 0x4 DUP1 CALLDATASIZE SUB PUSH1 0x40 DUP2 LT ISZERO PUSH2 0x38A JUMPI PUSH1 0x0 DUP1 REVERT JUMPDEST DUP2 ADD SWAP1 DUP1 DUP1 CALLDATALOAD PUSH20 0xFFFFFFFFFFFFFFFFFFFFFFFFFFFFFFFFFFFFFFFF AND SWAP1 PUSH1 0x20 ADD SWAP1 SWAP3 SWAP2 SWAP1 DUP1 CALLDATALOAD SWAP1 PUSH1 0x20 ADD SWAP1 SWAP3 SWAP2 SWAP1 POP POP POP PUSH2 0xC4B JUMP JUMPDEST PUSH1 0x40 MLOAD DUP1 DUP3 ISZERO ISZERO DUP2 MSTORE PUSH1 0x20 ADD SWAP2 POP POP PUSH1 0x40 MLOAD DUP1 SWAP2 SUB SWAP1 RETURN JUMPDEST PUSH2 0x410 PUSH1 0x4 DUP1 CALLDATASIZE SUB PUSH1 0x40 DUP2 LT ISZERO PUSH2 0x3EE JUMPI PUSH1 0x0 DUP1 REVERT JUMPDEST DUP2 ADD SWAP1 DUP1 DUP1 CALLDATALOAD SWAP1 PUSH1 0x20 ADD SWAP1 SWAP3 SWAP2 SWAP1 DUP1 CALLDATALOAD ISZERO ISZERO SWAP1 PUSH1 0x20 ADD SWAP1 SWAP3 SWAP2 SWAP1 POP POP POP PUSH2 0xCFE JUMP JUMPDEST PUSH1 0x40 MLOAD DUP1 DUP3 DUP2 MSTORE PUSH1 0x20 ADD SWAP2 POP POP PUSH1 0x40 MLOAD DUP1 SWAP2 SUB SWAP1 RETURN JUMPDEST PUSH2 0x468 PUSH1 0x4 DUP1 CALLDATASIZE SUB PUSH1 0x20 DUP2 LT ISZERO PUSH2 0x43C JUMPI PUSH1 0x0 DUP1 REVERT JUMPDEST DUP2 ADD SWAP1 DUP1 DUP1 CALLDATALOAD PUSH20 0xFFFFFFFFFFFFFFFFFFFFFFFFFFFFFFFFFFFFFFFF AND SWAP1 PUSH1 0x20 ADD SWAP1 SWAP3 SWAP2 SWAP1 POP POP POP PUSH2 0xDB9 JUMP JUMPDEST PUSH1 0x40 MLOAD DUP1 DUP3 DUP2 MSTORE PUSH1 0x20 ADD SWAP2 POP POP PUSH1 0x40 MLOAD DUP1 SWAP2 SUB SWAP1 RETURN JUMPDEST PUSH2 0x486 PUSH2 0xEA4 JUMP JUMPDEST STOP JUMPDEST PUSH2 0x490 PUSH2 0x102A JUMP JUMPDEST PUSH1 0x40 MLOAD DUP1 DUP3 PUSH20 0xFFFFFFFFFFFFFFFFFFFFFFFFFFFFFFFFFFFFFFFF AND DUP2 MSTORE PUSH1 0x20 ADD SWAP2 POP POP PUSH1 0x40 MLOAD DUP1 SWAP2 SUB SWAP1 RETURN JUMPDEST PUSH2 0x4C4 PUSH2 0x1053 JUMP JUMPDEST PUSH1 0x40 MLOAD DUP1 DUP1 PUSH1 0x20 ADD DUP3 DUP2 SUB DUP3 MSTORE DUP4 DUP2 DUP2 MLOAD DUP2 MSTORE PUSH1 0x20 ADD SWAP2 POP DUP1 MLOAD SWAP1 PUSH1 0x20 ADD SWAP1 DUP1 DUP4 DUP4 PUSH1 0x0 JUMPDEST DUP4 DUP2 LT ISZERO PUSH2 0x504 JUMPI DUP1 DUP3 ADD MLOAD DUP2 DUP5 ADD MSTORE PUSH1 0x20 DUP2 ADD SWAP1 POP PUSH2 0x4E9 JUMP JUMPDEST POP POP POP POP SWAP1 POP SWAP1 DUP2 ADD SWAP1 PUSH1 0x1F AND DUP1 ISZERO PUSH2 0x531 JUMPI DUP1 DUP3 SUB DUP1 MLOAD PUSH1 0x1 DUP4 PUSH1 0x20 SUB PUSH2 0x100 EXP SUB NOT AND DUP2 MSTORE PUSH1 0x20 ADD SWAP2 POP JUMPDEST POP SWAP3 POP POP POP PUSH1 0x40 MLOAD DUP1 SWAP2 SUB SWAP1 RETURN JUMPDEST PUSH2 0x58B PUSH1 0x4 DUP1 CALLDATASIZE SUB PUSH1 0x40 DUP2 LT ISZERO PUSH2 0x555 JUMPI PUSH1 0x0 DUP1 REVERT JUMPDEST DUP2 ADD SWAP1 DUP1 DUP1 CALLDATALOAD PUSH20 0xFFFFFFFFFFFFFFFFFFFFFFFFFFFFFFFFFFFFFFFF AND SWAP1 PUSH1 0x20 ADD SWAP1 SWAP3 SWAP2 SWAP1 DUP1 CALLDATALOAD SWAP1 PUSH1 0x20 ADD SWAP1 SWAP3 SWAP2 SWAP1 POP POP POP PUSH2 0x10F5 JUMP JUMPDEST PUSH1 0x40 MLOAD DUP1 DUP3 ISZERO ISZERO DUP2 MSTORE PUSH1 0x20 ADD SWAP2 POP POP PUSH1 0x40 MLOAD DUP1 SWAP2 SUB SWAP1 RETURN JUMPDEST PUSH2 0x5EF PUSH1 0x4 DUP1 CALLDATASIZE SUB PUSH1 0x40 DUP2 LT ISZERO PUSH2 0x5B9 JUMPI PUSH1 0x0 DUP1 REVERT JUMPDEST DUP2 ADD SWAP1 DUP1 DUP1 CALLDATALOAD PUSH20 0xFFFFFFFFFFFFFFFFFFFFFFFFFFFFFFFFFFFFFFFF AND SWAP1 PUSH1 0x20 ADD SWAP1 SWAP3 SWAP2 SWAP1 DUP1 CALLDATALOAD SWAP1 PUSH1 0x20 ADD SWAP1 SWAP3 SWAP2 SWAP1 POP POP POP PUSH2 0x11C2 JUMP JUMPDEST PUSH1 0x40 MLOAD DUP1 DUP3 ISZERO ISZERO DUP2 MSTORE PUSH1 0x20 ADD SWAP2 POP POP PUSH1 0x40 MLOAD DUP1 SWAP2 SUB SWAP1 RETURN JUMPDEST PUSH2 0x649 PUSH1 0x4 DUP1 CALLDATASIZE SUB PUSH1 0x20 DUP2 LT ISZERO PUSH2 0x61D JUMPI PUSH1 0x0 DUP1 REVERT JUMPDEST DUP2 ADD SWAP1 DUP1 DUP1 CALLDATALOAD PUSH20 0xFFFFFFFFFFFFFFFFFFFFFFFFFFFFFFFFFFFFFFFF AND SWAP1 PUSH1 0x20 ADD SWAP1 SWAP3 SWAP2 SWAP1 POP POP POP PUSH2 0x1213 JUMP JUMPDEST PUSH1 0x40 MLOAD DUP1 DUP3 ISZERO ISZERO DUP2 MSTORE PUSH1 0x20 ADD SWAP2 POP POP PUSH1 0x40 MLOAD DUP1 SWAP2 SUB SWAP1 RETURN JUMPDEST PUSH2 0x6C3 PUSH1 0x4 DUP1 CALLDATASIZE SUB PUSH1 0x40 DUP2 LT ISZERO PUSH2 0x677 JUMPI PUSH1 0x0 DUP1 REVERT JUMPDEST DUP2 ADD SWAP1 DUP1 DUP1 CALLDATALOAD PUSH20 0xFFFFFFFFFFFFFFFFFFFFFFFFFFFFFFFFFFFFFFFF AND SWAP1 PUSH1 0x20 ADD SWAP1 SWAP3 SWAP2 SWAP1 DUP1 CALLDATALOAD PUSH20 0xFFFFFFFFFFFFFFFFFFFFFFFFFFFFFFFFFFFFFFFF AND SWAP1 PUSH1 0x20 ADD SWAP1 SWAP3 SWAP2 SWAP1 POP POP POP PUSH2 0x1269 JUMP JUMPDEST PUSH1 0x40 MLOAD DUP1 DUP3 DUP2 MSTORE PUSH1 0x20 ADD SWAP2 POP POP PUSH1 0x40 MLOAD DUP1 SWAP2 SUB SWAP1 RETURN JUMPDEST PUSH2 0x71B PUSH1 0x4 DUP1 CALLDATASIZE SUB PUSH1 0x20 DUP2 LT ISZERO PUSH2 0x6EF JUMPI PUSH1 0x0 DUP1 REVERT JUMPDEST DUP2 ADD SWAP1 DUP1 DUP1 CALLDATALOAD PUSH20 0xFFFFFFFFFFFFFFFFFFFFFFFFFFFFFFFFFFFFFFFF AND SWAP1 PUSH1 0x20 ADD SWAP1 SWAP3 SWAP2 SWAP1 POP POP POP PUSH2 0x12F0 JUMP JUMPDEST STOP JUMPDEST PUSH2 0x75F PUSH1 0x4 DUP1 CALLDATASIZE SUB PUSH1 0x20 DUP2 LT ISZERO PUSH2 0x733 JUMPI PUSH1 0x0 DUP1 REVERT JUMPDEST DUP2 ADD SWAP1 DUP1 DUP1 CALLDATALOAD PUSH20 0xFFFFFFFFFFFFFFFFFFFFFFFFFFFFFFFFFFFFFFFF AND SWAP1 PUSH1 0x20 ADD SWAP1 SWAP3 SWAP2 SWAP1 POP POP POP PUSH2 0x160A JUMP JUMPDEST STOP JUMPDEST PUSH2 0x7A3 PUSH1 0x4 DUP1 CALLDATASIZE SUB PUSH1 0x20 DUP2 LT ISZERO PUSH2 0x777 JUMPI PUSH1 0x0 DUP1 REVERT JUMPDEST DUP2 ADD SWAP1 DUP1 DUP1 CALLDATALOAD PUSH20 0xFFFFFFFFFFFFFFFFFFFFFFFFFFFFFFFFFFFFFFFF AND SWAP1 PUSH1 0x20 ADD SWAP1 SWAP3 SWAP2 SWAP1 POP POP POP PUSH2 0x1815 JUMP JUMPDEST STOP JUMPDEST PUSH1 0x0 PUSH2 0x7AF PUSH2 0x1B9F JUMP JUMPDEST SWAP1 POP PUSH1 0x4 PUSH1 0x0 DUP3 PUSH20 0xFFFFFFFFFFFFFFFFFFFFFFFFFFFFFFFFFFFFFFFF AND PUSH20 0xFFFFFFFFFFFFFFFFFFFFFFFFFFFFFFFFFFFFFFFF AND DUP2 MSTORE PUSH1 0x20 ADD SWAP1 DUP2 MSTORE PUSH1 0x20 ADD PUSH1 0x0 KECCAK256 PUSH1 0x0 SWAP1 SLOAD SWAP1 PUSH2 0x100 EXP SWAP1 DIV PUSH1 0xFF AND ISZERO PUSH2 0x854 JUMPI PUSH1 0x40 MLOAD PUSH32 0x8C379A000000000000000000000000000000000000000000000000000000000 DUP2 MSTORE PUSH1 0x4 ADD DUP1 DUP1 PUSH1 0x20 ADD DUP3 DUP2 SUB DUP3 MSTORE PUSH1 0x2C DUP2 MSTORE PUSH1 0x20 ADD DUP1 PUSH2 0x33D2 PUSH1 0x2C SWAP2 CODECOPY PUSH1 0x40 ADD SWAP2 POP POP PUSH1 0x40 MLOAD DUP1 SWAP2 SUB SWAP1 REVERT JUMPDEST PUSH1 0x0 PUSH2 0x85F DUP4 PUSH2 0x1BA7 JUMP JUMPDEST POP POP POP POP SWAP1 POP PUSH2 0x8B7 DUP2 PUSH1 0x1 PUSH1 0x0 DUP6 PUSH20 0xFFFFFFFFFFFFFFFFFFFFFFFFFFFFFFFFFFFFFFFF AND PUSH20 0xFFFFFFFFFFFFFFFFFFFFFFFFFFFFFFFFFFFFFFFF AND DUP2 MSTORE PUSH1 0x20 ADD SWAP1 DUP2 MSTORE PUSH1 0x20 ADD PUSH1 0x0 KECCAK256 SLOAD PUSH2 0x1BFF SWAP1 SWAP2 SWAP1 PUSH4 0xFFFFFFFF AND JUMP JUMPDEST PUSH1 0x1 PUSH1 0x0 DUP5 PUSH20 0xFFFFFFFFFFFFFFFFFFFFFFFFFFFFFFFFFFFFFFFF AND PUSH20 0xFFFFFFFFFFFFFFFFFFFFFFFFFFFFFFFFFFFFFFFF AND DUP2 MSTORE PUSH1 0x20 ADD SWAP1 DUP2 MSTORE PUSH1 0x20 ADD PUSH1 0x0 KECCAK256 DUP2 SWAP1 SSTORE POP PUSH2 0x90F DUP2 PUSH1 0x6 SLOAD PUSH2 0x1BFF SWAP1 SWAP2 SWAP1 PUSH4 0xFFFFFFFF AND JUMP JUMPDEST PUSH1 0x6 DUP2 SWAP1 SSTORE POP PUSH2 0x92A DUP4 PUSH1 0x7 SLOAD PUSH2 0x1C49 SWAP1 SWAP2 SWAP1 PUSH4 0xFFFFFFFF AND JUMP JUMPDEST PUSH1 0x7 DUP2 SWAP1 SSTORE POP POP POP POP JUMP JUMPDEST PUSH1 0x60 PUSH1 0x8 DUP1 SLOAD PUSH1 0x1 DUP2 PUSH1 0x1 AND ISZERO PUSH2 0x100 MUL SUB AND PUSH1 0x2 SWAP1 DIV DUP1 PUSH1 0x1F ADD PUSH1 0x20 DUP1 SWAP2 DIV MUL PUSH1 0x20 ADD PUSH1 0x40 MLOAD SWAP1 DUP2 ADD PUSH1 0x40 MSTORE DUP1 SWAP3 SWAP2 SWAP1 DUP2 DUP2 MSTORE PUSH1 0x20 ADD DUP3 DUP1 SLOAD PUSH1 0x1 DUP2 PUSH1 0x1 AND ISZERO PUSH2 0x100 MUL SUB AND PUSH1 0x2 SWAP1 DIV DUP1 ISZERO PUSH2 0x9CD JUMPI DUP1 PUSH1 0x1F LT PUSH2 0x9A2 JUMPI PUSH2 0x100 DUP1 DUP4 SLOAD DIV MUL DUP4 MSTORE SWAP2 PUSH1 0x20 ADD SWAP2 PUSH2 0x9CD JUMP JUMPDEST DUP3 ADD SWAP2 SWAP1 PUSH1 0x0 MSTORE PUSH1 0x20 PUSH1 0x0 KECCAK256 SWAP1 JUMPDEST DUP2 SLOAD DUP2 MSTORE SWAP1 PUSH1 0x1 ADD SWAP1 PUSH1 0x20 ADD DUP1 DUP4 GT PUSH2 0x9B0 JUMPI DUP3 SWAP1 SUB PUSH1 0x1F AND DUP3 ADD SWAP2 JUMPDEST POP POP POP POP POP SWAP1 POP SWAP1 JUMP JUMPDEST PUSH1 0x0 PUSH2 0x9EB PUSH2 0x9E4 PUSH2 0x1B9F JUMP JUMPDEST DUP5 DUP5 PUSH2 0x1CD1 JUMP JUMPDEST PUSH1 0x1 SWAP1 POP SWAP3 SWAP2 POP POP JUMP JUMPDEST PUSH1 0x0 PUSH2 0x9FF PUSH2 0x1B9F JUMP JUMPDEST PUSH20 0xFFFFFFFFFFFFFFFFFFFFFFFFFFFFFFFFFFFFFFFF AND PUSH1 0x0 DUP1 SLOAD SWAP1 PUSH2 0x100 EXP SWAP1 DIV PUSH20 0xFFFFFFFFFFFFFFFFFFFFFFFFFFFFFFFFFFFFFFFF AND PUSH20 0xFFFFFFFFFFFFFFFFFFFFFFFFFFFFFFFFFFFFFFFF AND EQ PUSH2 0xABF JUMPI PUSH1 0x40 MLOAD PUSH32 0x8C379A000000000000000000000000000000000000000000000000000000000 DUP2 MSTORE PUSH1 0x4 ADD DUP1 DUP1 PUSH1 0x20 ADD DUP3 DUP2 SUB DUP3 MSTORE PUSH1 0x20 DUP2 MSTORE PUSH1 0x20 ADD DUP1 PUSH32 0x4F776E61626C653A2063616C6C6572206973206E6F7420746865206F776E6572 DUP2 MSTORE POP PUSH1 0x20 ADD SWAP2 POP POP PUSH1 0x40 MLOAD DUP1 SWAP2 SUB SWAP1 REVERT JUMPDEST PUSH1 0x7 SLOAD SWAP1 POP SWAP1 JUMP JUMPDEST PUSH1 0x0 PUSH8 0x8AC7230489E80000 SWAP1 POP SWAP1 JUMP JUMPDEST PUSH1 0x0 PUSH2 0xAE4 DUP5 DUP5 DUP5 PUSH2 0x1EC8 JUMP JUMPDEST PUSH2 0xBA5 DUP5 PUSH2 0xAF0 PUSH2 0x1B9F JUMP JUMPDEST PUSH2 0xBA0 DUP6 PUSH1 0x40 MLOAD DUP1 PUSH1 0x60 ADD PUSH1 0x40 MSTORE DUP1 PUSH1 0x28 DUP2 MSTORE PUSH1 0x20 ADD PUSH2 0x3338 PUSH1 0x28 SWAP2 CODECOPY PUSH1 0x3 PUSH1 0x0 DUP12 PUSH20 0xFFFFFFFFFFFFFFFFFFFFFFFFFFFFFFFFFFFFFFFF AND PUSH20 0xFFFFFFFFFFFFFFFFFFFFFFFFFFFFFFFFFFFFFFFF AND DUP2 MSTORE PUSH1 0x20 ADD SWAP1 DUP2 MSTORE PUSH1 0x20 ADD PUSH1 0x0 KECCAK256 PUSH1 0x0 PUSH2 0xB56 PUSH2 0x1B9F JUMP JUMPDEST PUSH20 0xFFFFFFFFFFFFFFFFFFFFFFFFFFFFFFFFFFFFFFFF AND PUSH20 0xFFFFFFFFFFFFFFFFFFFFFFFFFFFFFFFFFFFFFFFF AND DUP2 MSTORE PUSH1 0x20 ADD SWAP1 DUP2 MSTORE PUSH1 0x20 ADD PUSH1 0x0 KECCAK256 SLOAD PUSH2 0x2321 SWAP1 SWAP3 SWAP2 SWAP1 PUSH4 0xFFFFFFFF AND JUMP JUMPDEST PUSH2 0x1CD1 JUMP JUMPDEST PUSH1 0x1 SWAP1 POP SWAP4 SWAP3 POP POP POP JUMP JUMPDEST PUSH1 0x0 PUSH1 0x6 SLOAD DUP3 GT ISZERO PUSH2 0xC0D JUMPI PUSH1 0x40 MLOAD PUSH32 0x8C379A000000000000000000000000000000000000000000000000000000000 DUP2 MSTORE PUSH1 0x4 ADD DUP1 DUP1 PUSH1 0x20 ADD DUP3 DUP2 SUB DUP3 MSTORE PUSH1 0x2A DUP2 MSTORE PUSH1 0x20 ADD DUP1 PUSH2 0x32A5 PUSH1 0x2A SWAP2 CODECOPY PUSH1 0x40 ADD SWAP2 POP POP PUSH1 0x40 MLOAD DUP1 SWAP2 SUB SWAP1 REVERT JUMPDEST PUSH1 0x0 PUSH2 0xC17 PUSH2 0x23E1 JUMP JUMPDEST SWAP1 POP PUSH2 0xC2C DUP2 DUP5 PUSH2 0x240C SWAP1 SWAP2 SWAP1 PUSH4 0xFFFFFFFF AND JUMP JUMPDEST SWAP2 POP POP SWAP2 SWAP1 POP JUMP JUMPDEST PUSH1 0x0 PUSH1 0xA PUSH1 0x0 SWAP1 SLOAD SWAP1 PUSH2 0x100 EXP SWAP1 DIV PUSH1 0xFF AND SWAP1 POP SWAP1 JUMP JUMPDEST PUSH1 0x0 PUSH2 0xCF4 PUSH2 0xC58 PUSH2 0x1B9F JUMP JUMPDEST DUP5 PUSH2 0xCEF DUP6 PUSH1 0x3 PUSH1 0x0 PUSH2 0xC69 PUSH2 0x1B9F JUMP JUMPDEST PUSH20 0xFFFFFFFFFFFFFFFFFFFFFFFFFFFFFFFFFFFFFFFF AND PUSH20 0xFFFFFFFFFFFFFFFFFFFFFFFFFFFFFFFFFFFFFFFF AND DUP2 MSTORE PUSH1 0x20 ADD SWAP1 DUP2 MSTORE PUSH1 0x20 ADD PUSH1 0x0 KECCAK256 PUSH1 0x0 DUP10 PUSH20 0xFFFFFFFFFFFFFFFFFFFFFFFFFFFFFFFFFFFFFFFF AND PUSH20 0xFFFFFFFFFFFFFFFFFFFFFFFFFFFFFFFFFFFFFFFF AND DUP2 MSTORE PUSH1 0x20 ADD SWAP1 DUP2 MSTORE PUSH1 0x20 ADD PUSH1 0x0 KECCAK256 SLOAD PUSH2 0x1C49 SWAP1 SWAP2 SWAP1 PUSH4 0xFFFFFFFF AND JUMP JUMPDEST PUSH2 0x1CD1 JUMP JUMPDEST PUSH1 0x1 SWAP1 POP SWAP3 SWAP2 POP POP JUMP JUMPDEST PUSH1 0x0 PUSH8 0x8AC7230489E80000 DUP4 GT ISZERO PUSH2 0xD7E JUMPI PUSH1 0x40 MLOAD PUSH32 0x8C379A000000000000000000000000000000000000000000000000000000000 DUP2 MSTORE PUSH1 0x4 ADD DUP1 DUP1 PUSH1 0x20 ADD DUP3 DUP2 SUB DUP3 MSTORE PUSH1 0x1F DUP2 MSTORE PUSH1 0x20 ADD DUP1 PUSH32 0x416D6F756E74206D757374206265206C657373207468616E20737570706C7900 DUP2 MSTORE POP PUSH1 0x20 ADD SWAP2 POP POP PUSH1 0x40 MLOAD DUP1 SWAP2 SUB SWAP1 REVERT JUMPDEST DUP2 PUSH2 0xD9D JUMPI PUSH1 0x0 PUSH2 0xD8E DUP5 PUSH2 0x1BA7 JUMP JUMPDEST POP POP POP POP SWAP1 POP DUP1 SWAP2 POP POP PUSH2 0xDB3 JUMP JUMPDEST PUSH1 0x0 PUSH2 0xDA8 DUP5 PUSH2 0x1BA7 JUMP JUMPDEST POP POP POP SWAP2 POP POP DUP1 SWAP2 POP POP JUMPDEST SWAP3 SWAP2 POP POP JUMP JUMPDEST PUSH1 0x0 PUSH1 0x4 PUSH1 0x0 DUP4 PUSH20 0xFFFFFFFFFFFFFFFFFFFFFFFFFFFFFFFFFFFFFFFF AND PUSH20 0xFFFFFFFFFFFFFFFFFFFFFFFFFFFFFFFFFFFFFFFF AND DUP2 MSTORE PUSH1 0x20 ADD SWAP1 DUP2 MSTORE PUSH1 0x20 ADD PUSH1 0x0 KECCAK256 PUSH1 0x0 SWAP1 SLOAD SWAP1 PUSH2 0x100 EXP SWAP1 DIV PUSH1 0xFF AND ISZERO PUSH2 0xE54 JUMPI PUSH1 0x2 PUSH1 0x0 DUP4 PUSH20 0xFFFFFFFFFFFFFFFFFFFFFFFFFFFFFFFFFFFFFFFF AND PUSH20 0xFFFFFFFFFFFFFFFFFFFFFFFFFFFFFFFFFFFFFFFF AND DUP2 MSTORE PUSH1 0x20 ADD SWAP1 DUP2 MSTORE PUSH1 0x20 ADD PUSH1 0x0 KECCAK256 SLOAD SWAP1 POP PUSH2 0xE9F JUMP JUMPDEST PUSH2 0xE9C PUSH1 0x1 PUSH1 0x0 DUP5 PUSH20 0xFFFFFFFFFFFFFFFFFFFFFFFFFFFFFFFFFFFFFFFF AND PUSH20 0xFFFFFFFFFFFFFFFFFFFFFFFFFFFFFFFFFFFFFFFF AND DUP2 MSTORE PUSH1 0x20 ADD SWAP1 DUP2 MSTORE PUSH1 0x20 ADD PUSH1 0x0 KECCAK256 SLOAD PUSH2 0xBB0 JUMP JUMPDEST SWAP1 POP JUMPDEST SWAP2 SWAP1 POP JUMP JUMPDEST PUSH2 0xEAC PUSH2 0x1B9F JUMP JUMPDEST PUSH20 0xFFFFFFFFFFFFFFFFFFFFFFFFFFFFFFFFFFFFFFFF AND PUSH1 0x0 DUP1 SLOAD SWAP1 PUSH2 0x100 EXP SWAP1 DIV PUSH20 0xFFFFFFFFFFFFFFFFFFFFFFFFFFFFFFFFFFFFFFFF AND PUSH20 0xFFFFFFFFFFFFFFFFFFFFFFFFFFFFFFFFFFFFFFFF AND EQ PUSH2 0xF6C JUMPI PUSH1 0x40 MLOAD PUSH32 0x8C379A000000000000000000000000000000000000000000000000000000000 DUP2 MSTORE PUSH1 0x4 ADD DUP1 DUP1 PUSH1 0x20 ADD DUP3 DUP2 SUB DUP3 MSTORE PUSH1 0x20 DUP2 MSTORE PUSH1 0x20 ADD DUP1 PUSH32 0x4F776E61626C653A2063616C6C6572206973206E6F7420746865206F776E6572 DUP2 MSTORE POP PUSH1 0x20 ADD SWAP2 POP POP PUSH1 0x40 MLOAD DUP1 SWAP2 SUB SWAP1 REVERT JUMPDEST PUSH1 0x0 PUSH20 0xFFFFFFFFFFFFFFFFFFFFFFFFFFFFFFFFFFFFFFFF AND PUSH1 0x0 DUP1 SLOAD SWAP1 PUSH2 0x100 EXP SWAP1 DIV PUSH20 0xFFFFFFFFFFFFFFFFFFFFFFFFFFFFFFFFFFFFFFFF AND PUSH20 0xFFFFFFFFFFFFFFFFFFFFFFFFFFFFFFFFFFFFFFFF AND PUSH32 0x8BE0079C531659141344CD1FD0A4F28419497F9722A3DAAFE3B4186F6B6457E0 PUSH1 0x40 MLOAD PUSH1 0x40 MLOAD DUP1 SWAP2 SUB SWAP1 LOG3 PUSH1 0x0 DUP1 PUSH1 0x0 PUSH2 0x100 EXP DUP2 SLOAD DUP2 PUSH20 0xFFFFFFFFFFFFFFFFFFFFFFFFFFFFFFFFFFFFFFFF MUL NOT AND SWAP1 DUP4 PUSH20 0xFFFFFFFFFFFFFFFFFFFFFFFFFFFFFFFFFFFFFFFF AND MUL OR SWAP1 SSTORE POP JUMP JUMPDEST PUSH1 0x0 DUP1 PUSH1 0x0 SWAP1 SLOAD SWAP1 PUSH2 0x100 EXP SWAP1 DIV PUSH20 0xFFFFFFFFFFFFFFFFFFFFFFFFFFFFFFFFFFFFFFFF AND SWAP1 POP SWAP1 JUMP JUMPDEST PUSH1 0x60 PUSH1 0x9 DUP1 SLOAD PUSH1 0x1 DUP2 PUSH1 0x1 AND ISZERO PUSH2 0x100 MUL SUB AND PUSH1 0x2 SWAP1 DIV DUP1 PUSH1 0x1F ADD PUSH1 0x20 DUP1 SWAP2 DIV MUL PUSH1 0x20 ADD PUSH1 0x40 MLOAD SWAP1 DUP2 ADD PUSH1 0x40 MSTORE DUP1 SWAP3 SWAP2 SWAP1 DUP2 DUP2 MSTORE PUSH1 0x20 ADD DUP3 DUP1 SLOAD PUSH1 0x1 DUP2 PUSH1 0x1 AND ISZERO PUSH2 0x100 MUL SUB AND PUSH1 0x2 SWAP1 DIV DUP1 ISZERO PUSH2 0x10EB JUMPI DUP1 PUSH1 0x1F LT PUSH2 0x10C0 JUMPI PUSH2 0x100 DUP1 DUP4 SLOAD DIV MUL DUP4 MSTORE SWAP2 PUSH1 0x20 ADD SWAP2 PUSH2 0x10EB JUMP JUMPDEST DUP3 ADD SWAP2 SWAP1 PUSH1 0x0 MSTORE PUSH1 0x20 PUSH1 0x0 KECCAK256 SWAP1 JUMPDEST DUP2 SLOAD DUP2 MSTORE SWAP1 PUSH1 0x1 ADD SWAP1 PUSH1 0x20 ADD DUP1 DUP4 GT PUSH2 0x10CE JUMPI DUP3 SWAP1 SUB PUSH1 0x1F AND DUP3 ADD SWAP2 JUMPDEST POP POP POP POP POP SWAP1 POP SWAP1 JUMP JUMPDEST PUSH1 0x0 PUSH2 0x11B8 PUSH2 0x1102 PUSH2 0x1B9F JUMP JUMPDEST DUP5 PUSH2 0x11B3 DUP6 PUSH1 0x40 MLOAD DUP1 PUSH1 0x60 ADD PUSH1 0x40 MSTORE DUP1 PUSH1 0x25 DUP2 MSTORE PUSH1 0x20 ADD PUSH2 0x33FE PUSH1 0x25 SWAP2 CODECOPY PUSH1 0x3 PUSH1 0x0 PUSH2 0x112C PUSH2 0x1B9F JUMP JUMPDEST PUSH20 0xFFFFFFFFFFFFFFFFFFFFFFFFFFFFFFFFFFFFFFFF AND PUSH20 0xFFFFFFFFFFFFFFFFFFFFFFFFFFFFFFFFFFFFFFFF AND DUP2 MSTORE PUSH1 0x20 ADD SWAP1 DUP2 MSTORE PUSH1 0x20 ADD PUSH1 0x0 KECCAK256 PUSH1 0x0 DUP11 PUSH20 0xFFFFFFFFFFFFFFFFFFFFFFFFFFFFFFFFFFFFFFFF AND PUSH20 0xFFFFFFFFFFFFFFFFFFFFFFFFFFFFFFFFFFFFFFFF AND DUP2 MSTORE PUSH1 0x20 ADD SWAP1 DUP2 MSTORE PUSH1 0x20 ADD PUSH1 0x0 KECCAK256 SLOAD PUSH2 0x2321 SWAP1 SWAP3 SWAP2 SWAP1 PUSH4 0xFFFFFFFF AND JUMP JUMPDEST PUSH2 0x1CD1 JUMP JUMPDEST PUSH1 0x1 SWAP1 POP SWAP3 SWAP2 POP POP JUMP JUMPDEST PUSH1 0x0 PUSH2 0x11D6 PUSH2 0x11CF PUSH2 0x1B9F JUMP JUMPDEST DUP5 DUP5 PUSH2 0x1EC8 JUMP JUMPDEST PUSH2 0x1209 PUSH2 0x11E1 PUSH2 0x102A JUMP JUMPDEST PUSH20 0xA46FF2ED8D47A570F766D00991DCCB940B9AF275 PUSH1 0x5 PUSH1 0x64 DUP7 DUP2 PUSH2 0x1202 JUMPI INVALID JUMPDEST DIV MUL PUSH2 0x1EC8 JUMP JUMPDEST PUSH1 0x1 SWAP1 POP SWAP3 SWAP2 POP POP JUMP JUMPDEST PUSH1 0x0 PUSH1 0x4 PUSH1 0x0 DUP4 PUSH20 0xFFFFFFFFFFFFFFFFFFFFFFFFFFFFFFFFFFFFFFFF AND PUSH20 0xFFFFFFFFFFFFFFFFFFFFFFFFFFFFFFFFFFFFFFFF AND DUP2 MSTORE PUSH1 0x20 ADD SWAP1 DUP2 MSTORE PUSH1 0x20 ADD PUSH1 0x0 KECCAK256 PUSH1 0x0 SWAP1 SLOAD SWAP1 PUSH2 0x100 EXP SWAP1 DIV PUSH1 0xFF AND SWAP1 POP SWAP2 SWAP1 POP JUMP JUMPDEST PUSH1 0x0 PUSH1 0x3 PUSH1 0x0 DUP5 PUSH20 0xFFFFFFFFFFFFFFFFFFFFFFFFFFFFFFFFFFFFFFFF AND PUSH20 0xFFFFFFFFFFFFFFFFFFFFFFFFFFFFFFFFFFFFFFFF AND DUP2 MSTORE PUSH1 0x20 ADD SWAP1 DUP2 MSTORE PUSH1 0x20 ADD PUSH1 0x0 KECCAK256 PUSH1 0x0 DUP4 PUSH20 0xFFFFFFFFFFFFFFFFFFFFFFFFFFFFFFFFFFFFFFFF AND PUSH20 0xFFFFFFFFFFFFFFFFFFFFFFFFFFFFFFFFFFFFFFFF AND DUP2 MSTORE PUSH1 0x20 ADD SWAP1 DUP2 MSTORE PUSH1 0x20 ADD PUSH1 0x0 KECCAK256 SLOAD SWAP1 POP SWAP3 SWAP2 POP POP JUMP JUMPDEST PUSH2 0x12F8 PUSH2 0x1B9F JUMP JUMPDEST PUSH20 0xFFFFFFFFFFFFFFFFFFFFFFFFFFFFFFFFFFFFFFFF AND PUSH1 0x0 DUP1 SLOAD SWAP1 PUSH2 0x100 EXP SWAP1 DIV PUSH20 0xFFFFFFFFFFFFFFFFFFFFFFFFFFFFFFFFFFFFFFFF AND PUSH20 0xFFFFFFFFFFFFFFFFFFFFFFFFFFFFFFFFFFFFFFFF AND EQ PUSH2 0x13B8 JUMPI PUSH1 0x40 MLOAD PUSH32 0x8C379A000000000000000000000000000000000000000000000000000000000 DUP2 MSTORE PUSH1 0x4 ADD DUP1 DUP1 PUSH1 0x20 ADD DUP3 DUP2 SUB DUP3 MSTORE PUSH1 0x20 DUP2 MSTORE PUSH1 0x20 ADD DUP1 PUSH32 0x4F776E61626C653A2063616C6C6572206973206E6F7420746865206F776E6572 DUP2 MSTORE POP PUSH1 0x20 ADD SWAP2 POP POP PUSH1 0x40 MLOAD DUP1 SWAP2 SUB SWAP1 REVERT JUMPDEST PUSH1 0x4 PUSH1 0x0 DUP3 PUSH20 0xFFFFFFFFFFFFFFFFFFFFFFFFFFFFFFFFFFFFFFFF AND PUSH20 0xFFFFFFFFFFFFFFFFFFFFFFFFFFFFFFFFFFFFFFFF AND DUP2 MSTORE PUSH1 0x20 ADD SWAP1 DUP2 MSTORE PUSH1 0x20 ADD PUSH1 0x0 KECCAK256 PUSH1 0x0 SWAP1 SLOAD SWAP1 PUSH2 0x100 EXP SWAP1 DIV PUSH1 0xFF AND ISZERO PUSH2 0x1478 JUMPI PUSH1 0x40 MLOAD PUSH32 0x8C379A000000000000000000000000000000000000000000000000000000000 DUP2 MSTORE PUSH1 0x4 ADD DUP1 DUP1 PUSH1 0x20 ADD DUP3 DUP2 SUB DUP3 MSTORE PUSH1 0x1B DUP2 MSTORE PUSH1 0x20 ADD DUP1 PUSH32 0x4163636F756E7420697320616C7265616479206578636C756465640000000000 DUP2 MSTORE POP PUSH1 0x20 ADD SWAP2 POP POP PUSH1 0x40 MLOAD DUP1 SWAP2 SUB SWAP1 REVERT JUMPDEST PUSH1 0x0 PUSH1 0x1 PUSH1 0x0 DUP4 PUSH20 0xFFFFFFFFFFFFFFFFFFFFFFFFFFFFFFFFFFFFFFFF AND PUSH20 0xFFFFFFFFFFFFFFFFFFFFFFFFFFFFFFFFFFFFFFFF AND DUP2 MSTORE PUSH1 0x20 ADD SWAP1 DUP2 MSTORE PUSH1 0x20 ADD PUSH1 0x0 KECCAK256 SLOAD GT ISZERO PUSH2 0x154C JUMPI PUSH2 0x1508 PUSH1 0x1 PUSH1 0x0 DUP4 PUSH20 0xFFFFFFFFFFFFFFFFFFFFFFFFFFFFFFFFFFFFFFFF AND PUSH20 0xFFFFFFFFFFFFFFFFFFFFFFFFFFFFFFFFFFFFFFFF AND DUP2 MSTORE PUSH1 0x20 ADD SWAP1 DUP2 MSTORE PUSH1 0x20 ADD PUSH1 0x0 KECCAK256 SLOAD PUSH2 0xBB0 JUMP JUMPDEST PUSH1 0x2 PUSH1 0x0 DUP4 PUSH20 0xFFFFFFFFFFFFFFFFFFFFFFFFFFFFFFFFFFFFFFFF AND PUSH20 0xFFFFFFFFFFFFFFFFFFFFFFFFFFFFFFFFFFFFFFFF AND DUP2 MSTORE PUSH1 0x20 ADD SWAP1 DUP2 MSTORE PUSH1 0x20 ADD PUSH1 0x0 KECCAK256 DUP2 SWAP1 SSTORE POP JUMPDEST PUSH1 0x1 PUSH1 0x4 PUSH1 0x0 DUP4 PUSH20 0xFFFFFFFFFFFFFFFFFFFFFFFFFFFFFFFFFFFFFFFF AND PUSH20 0xFFFFFFFFFFFFFFFFFFFFFFFFFFFFFFFFFFFFFFFF AND DUP2 MSTORE PUSH1 0x20 ADD SWAP1 DUP2 MSTORE PUSH1 0x20 ADD PUSH1 0x0 KECCAK256 PUSH1 0x0 PUSH2 0x100 EXP DUP2 SLOAD DUP2 PUSH1 0xFF MUL NOT AND SWAP1 DUP4 ISZERO ISZERO MUL OR SWAP1 SSTORE POP PUSH1 0x5 DUP2 SWAP1 DUP1 PUSH1 0x1 DUP2 SLOAD ADD DUP1 DUP3 SSTORE DUP1 SWAP2 POP POP PUSH1 0x1 SWAP1 SUB SWAP1 PUSH1 0x0 MSTORE PUSH1 0x20 PUSH1 0x0 KECCAK256 ADD PUSH1 0x0 SWAP1 SWAP2 SWAP1 SWAP2 SWAP1 SWAP2 PUSH2 0x100 EXP DUP2 SLOAD DUP2 PUSH20 0xFFFFFFFFFFFFFFFFFFFFFFFFFFFFFFFFFFFFFFFF MUL NOT AND SWAP1 DUP4 PUSH20 0xFFFFFFFFFFFFFFFFFFFFFFFFFFFFFFFFFFFFFFFF AND MUL OR SWAP1 SSTORE POP POP JUMP JUMPDEST PUSH2 0x1612 PUSH2 0x1B9F JUMP JUMPDEST PUSH20 0xFFFFFFFFFFFFFFFFFFFFFFFFFFFFFFFFFFFFFFFF AND PUSH1 0x0 DUP1 SLOAD SWAP1 PUSH2 0x100 EXP SWAP1 DIV PUSH20 0xFFFFFFFFFFFFFFFFFFFFFFFFFFFFFFFFFFFFFFFF AND PUSH20 0xFFFFFFFFFFFFFFFFFFFFFFFFFFFFFFFFFFFFFFFF AND EQ PUSH2 0x16D2 JUMPI PUSH1 0x40 MLOAD PUSH32 0x8C379A000000000000000000000000000000000000000000000000000000000 DUP2 MSTORE PUSH1 0x4 ADD DUP1 DUP1 PUSH1 0x20 ADD DUP3 DUP2 SUB DUP3 MSTORE PUSH1 0x20 DUP2 MSTORE PUSH1 0x20 ADD DUP1 PUSH32 0x4F776E61626C653A2063616C6C6572206973206E6F7420746865206F776E6572 DUP2 MSTORE POP PUSH1 0x20 ADD SWAP2 POP POP PUSH1 0x40 MLOAD DUP1 SWAP2 SUB SWAP1 REVERT JUMPDEST PUSH1 0x0 PUSH20 0xFFFFFFFFFFFFFFFFFFFFFFFFFFFFFFFFFFFFFFFF AND DUP2 PUSH20 0xFFFFFFFFFFFFFFFFFFFFFFFFFFFFFFFFFFFFFFFF AND EQ ISZERO PUSH2 0x1758 JUMPI PUSH1 0x40 MLOAD PUSH32 0x8C379A000000000000000000000000000000000000000000000000000000000 DUP2 MSTORE PUSH1 0x4 ADD DUP1 DUP1 PUSH1 0x20 ADD DUP3 DUP2 SUB DUP3 MSTORE PUSH1 0x26 DUP2 MSTORE PUSH1 0x20 ADD DUP1 PUSH2 0x32CF PUSH1 0x26 SWAP2 CODECOPY PUSH1 0x40 ADD SWAP2 POP POP PUSH1 0x40 MLOAD DUP1 SWAP2 SUB SWAP1 REVERT JUMPDEST DUP1 PUSH20 0xFFFFFFFFFFFFFFFFFFFFFFFFFFFFFFFFFFFFFFFF AND PUSH1 0x0 DUP1 SLOAD SWAP1 PUSH2 0x100 EXP SWAP1 DIV PUSH20 0xFFFFFFFFFFFFFFFFFFFFFFFFFFFFFFFFFFFFFFFF AND PUSH20 0xFFFFFFFFFFFFFFFFFFFFFFFFFFFFFFFFFFFFFFFF AND PUSH32 0x8BE0079C531659141344CD1FD0A4F28419497F9722A3DAAFE3B4186F6B6457E0 PUSH1 0x40 MLOAD PUSH1 0x40 MLOAD DUP1 SWAP2 SUB SWAP1 LOG3 DUP1 PUSH1 0x0 DUP1 PUSH2 0x100 EXP DUP2 SLOAD DUP2 PUSH20 0xFFFFFFFFFFFFFFFFFFFFFFFFFFFFFFFFFFFFFFFF MUL NOT AND SWAP1 DUP4 PUSH20 0xFFFFFFFFFFFFFFFFFFFFFFFFFFFFFFFFFFFFFFFF AND MUL OR SWAP1 SSTORE POP POP JUMP JUMPDEST PUSH2 0x181D PUSH2 0x1B9F JUMP JUMPDEST PUSH20 0xFFFFFFFFFFFFFFFFFFFFFFFFFFFFFFFFFFFFFFFF AND PUSH1 0x0 DUP1 SLOAD SWAP1 PUSH2 0x100 EXP SWAP1 DIV PUSH20 0xFFFFFFFFFFFFFFFFFFFFFFFFFFFFFFFFFFFFFFFF AND PUSH20 0xFFFFFFFFFFFFFFFFFFFFFFFFFFFFFFFFFFFFFFFF AND EQ PUSH2 0x18DD JUMPI PUSH1 0x40 MLOAD PUSH32 0x8C379A000000000000000000000000000000000000000000000000000000000 DUP2 MSTORE PUSH1 0x4 ADD DUP1 DUP1 PUSH1 0x20 ADD DUP3 DUP2 SUB DUP3 MSTORE PUSH1 0x20 DUP2 MSTORE PUSH1 0x20 ADD DUP1 PUSH32 0x4F776E61626C653A2063616C6C6572206973206E6F7420746865206F776E6572 DUP2 MSTORE POP PUSH1 0x20 ADD SWAP2 POP POP PUSH1 0x40 MLOAD DUP1 SWAP2 SUB SWAP1 REVERT JUMPDEST PUSH1 0x4 PUSH1 0x0 DUP3 PUSH20 0xFFFFFFFFFFFFFFFFFFFFFFFFFFFFFFFFFFFFFFFF AND PUSH20 0xFFFFFFFFFFFFFFFFFFFFFFFFFFFFFFFFFFFFFFFF AND DUP2 MSTORE PUSH1 0x20 ADD SWAP1 DUP2 MSTORE PUSH1 0x20 ADD PUSH1 0x0 KECCAK256 PUSH1 0x0 SWAP1 SLOAD SWAP1 PUSH2 0x100 EXP SWAP1 DIV PUSH1 0xFF AND PUSH2 0x199C JUMPI PUSH1 0x40 MLOAD PUSH32 0x8C379A000000000000000000000000000000000000000000000000000000000 DUP2 MSTORE PUSH1 0x4 ADD DUP1 DUP1 PUSH1 0x20 ADD DUP3 DUP2 SUB DUP3 MSTORE PUSH1 0x1B DUP2 MSTORE PUSH1 0x20 ADD DUP1 PUSH32 0x4163636F756E7420697320616C7265616479206578636C756465640000000000 DUP2 MSTORE POP PUSH1 0x20 ADD SWAP2 POP POP PUSH1 0x40 MLOAD DUP1 SWAP2 SUB SWAP1 REVERT JUMPDEST PUSH1 0x0 JUMPDEST PUSH1 0x5 DUP1 SLOAD SWAP1 POP DUP2 LT ISZERO PUSH2 0x1B9B JUMPI DUP2 PUSH20 0xFFFFFFFFFFFFFFFFFFFFFFFFFFFFFFFFFFFFFFFF AND PUSH1 0x5 DUP3 DUP2 SLOAD DUP2 LT PUSH2 0x19D0 JUMPI INVALID JUMPDEST SWAP1 PUSH1 0x0 MSTORE PUSH1 0x20 PUSH1 0x0 KECCAK256 ADD PUSH1 0x0 SWAP1 SLOAD SWAP1 PUSH2 0x100 EXP SWAP1 DIV PUSH20 0xFFFFFFFFFFFFFFFFFFFFFFFFFFFFFFFFFFFFFFFF AND PUSH20 0xFFFFFFFFFFFFFFFFFFFFFFFFFFFFFFFFFFFFFFFF AND EQ ISZERO PUSH2 0x1B8E JUMPI PUSH1 0x5 PUSH1 0x1 PUSH1 0x5 DUP1 SLOAD SWAP1 POP SUB DUP2 SLOAD DUP2 LT PUSH2 0x1A2C JUMPI INVALID JUMPDEST SWAP1 PUSH1 0x0 MSTORE PUSH1 0x20 PUSH1 0x0 KECCAK256 ADD PUSH1 0x0 SWAP1 SLOAD SWAP1 PUSH2 0x100 EXP SWAP1 DIV PUSH20 0xFFFFFFFFFFFFFFFFFFFFFFFFFFFFFFFFFFFFFFFF AND PUSH1 0x5 DUP3 DUP2 SLOAD DUP2 LT PUSH2 0x1A64 JUMPI INVALID JUMPDEST SWAP1 PUSH1 0x0 MSTORE PUSH1 0x20 PUSH1 0x0 KECCAK256 ADD PUSH1 0x0 PUSH2 0x100 EXP DUP2 SLOAD DUP2 PUSH20 0xFFFFFFFFFFFFFFFFFFFFFFFFFFFFFFFFFFFFFFFF MUL NOT AND SWAP1 DUP4 PUSH20 0xFFFFFFFFFFFFFFFFFFFFFFFFFFFFFFFFFFFFFFFF AND MUL OR SWAP1 SSTORE POP PUSH1 0x0 PUSH1 0x2 PUSH1 0x0 DUP5 PUSH20 0xFFFFFFFFFFFFFFFFFFFFFFFFFFFFFFFFFFFFFFFF AND PUSH20 0xFFFFFFFFFFFFFFFFFFFFFFFFFFFFFFFFFFFFFFFF AND DUP2 MSTORE PUSH1 0x20 ADD SWAP1 DUP2 MSTORE PUSH1 0x20 ADD PUSH1 0x0 KECCAK256 DUP2 SWAP1 SSTORE POP PUSH1 0x0 PUSH1 0x4 PUSH1 0x0 DUP5 PUSH20 0xFFFFFFFFFFFFFFFFFFFFFFFFFFFFFFFFFFFFFFFF AND PUSH20 0xFFFFFFFFFFFFFFFFFFFFFFFFFFFFFFFFFFFFFFFF AND DUP2 MSTORE PUSH1 0x20 ADD SWAP1 DUP2 MSTORE PUSH1 0x20 ADD PUSH1 0x0 KECCAK256 PUSH1 0x0 PUSH2 0x100 EXP DUP2 SLOAD DUP2 PUSH1 0xFF MUL NOT AND SWAP1 DUP4 ISZERO ISZERO MUL OR SWAP1 SSTORE POP PUSH1 0x5 DUP1 SLOAD DUP1 PUSH2 0x1B54 JUMPI INVALID JUMPDEST PUSH1 0x1 SWAP1 SUB DUP2 DUP2 SWAP1 PUSH1 0x0 MSTORE PUSH1 0x20 PUSH1 0x0 KECCAK256 ADD PUSH1 0x0 PUSH2 0x100 EXP DUP2 SLOAD SWAP1 PUSH20 0xFFFFFFFFFFFFFFFFFFFFFFFFFFFFFFFFFFFFFFFF MUL NOT AND SWAP1 SSTORE SWAP1 SSTORE PUSH2 0x1B9B JUMP JUMPDEST DUP1 DUP1 PUSH1 0x1 ADD SWAP2 POP POP PUSH2 0x199F JUMP JUMPDEST POP POP JUMP JUMPDEST PUSH1 0x0 CALLER SWAP1 POP SWAP1 JUMP JUMPDEST PUSH1 0x0 DUP1 PUSH1 0x0 DUP1 PUSH1 0x0 DUP1 PUSH1 0x0 PUSH2 0x1BBB DUP9 PUSH2 0x2456 JUMP JUMPDEST SWAP2 POP SWAP2 POP PUSH1 0x0 PUSH2 0x1BC9 PUSH2 0x23E1 JUMP JUMPDEST SWAP1 POP PUSH1 0x0 DUP1 PUSH1 0x0 PUSH2 0x1BDB DUP13 DUP7 DUP7 PUSH2 0x24A8 JUMP JUMPDEST SWAP3 POP SWAP3 POP SWAP3 POP DUP3 DUP3 DUP3 DUP9 DUP9 SWAP11 POP SWAP11 POP SWAP11 POP SWAP11 POP SWAP11 POP POP POP POP POP POP POP SWAP2 SWAP4 SWAP6 SWAP1 SWAP3 SWAP5 POP JUMP JUMPDEST PUSH1 0x0 PUSH2 0x1C41 DUP4 DUP4 PUSH1 0x40 MLOAD DUP1 PUSH1 0x40 ADD PUSH1 0x40 MSTORE DUP1 PUSH1 0x1E DUP2 MSTORE PUSH1 0x20 ADD PUSH32 0x536166654D6174683A207375627472616374696F6E206F766572666C6F770000 DUP2 MSTORE POP PUSH2 0x2321 JUMP JUMPDEST SWAP1 POP SWAP3 SWAP2 POP POP JUMP JUMPDEST PUSH1 0x0 DUP1 DUP3 DUP5 ADD SWAP1 POP DUP4 DUP2 LT ISZERO PUSH2 0x1CC7 JUMPI PUSH1 0x40 MLOAD PUSH32 0x8C379A000000000000000000000000000000000000000000000000000000000 DUP2 MSTORE PUSH1 0x4 ADD DUP1 DUP1 PUSH1 0x20 ADD DUP3 DUP2 SUB DUP3 MSTORE PUSH1 0x1B DUP2 MSTORE PUSH1 0x20 ADD DUP1 PUSH32 0x536166654D6174683A206164646974696F6E206F766572666C6F770000000000 DUP2 MSTORE POP PUSH1 0x20 ADD SWAP2 POP POP PUSH1 0x40 MLOAD DUP1 SWAP2 SUB SWAP1 REVERT JUMPDEST DUP1 SWAP2 POP POP SWAP3 SWAP2 POP POP JUMP JUMPDEST PUSH1 0x0 PUSH20 0xFFFFFFFFFFFFFFFFFFFFFFFFFFFFFFFFFFFFFFFF AND DUP4 PUSH20 0xFFFFFFFFFFFFFFFFFFFFFFFFFFFFFFFFFFFFFFFF AND EQ ISZERO PUSH2 0x1D57 JUMPI PUSH1 0x40 MLOAD PUSH32 0x8C379A000000000000000000000000000000000000000000000000000000000 DUP2 MSTORE PUSH1 0x4 ADD DUP1 DUP1 PUSH1 0x20 ADD DUP3 DUP2 SUB DUP3 MSTORE PUSH1 0x24 DUP2 MSTORE PUSH1 0x20 ADD DUP1 PUSH2 0x33AE PUSH1 0x24 SWAP2 CODECOPY PUSH1 0x40 ADD SWAP2 POP POP PUSH1 0x40 MLOAD DUP1 SWAP2 SUB SWAP1 REVERT JUMPDEST PUSH1 0x0 PUSH20 0xFFFFFFFFFFFFFFFFFFFFFFFFFFFFFFFFFFFFFFFF AND DUP3 PUSH20 0xFFFFFFFFFFFFFFFFFFFFFFFFFFFFFFFFFFFFFFFF AND EQ ISZERO PUSH2 0x1DDD JUMPI PUSH1 0x40 MLOAD PUSH32 0x8C379A000000000000000000000000000000000000000000000000000000000 DUP2 MSTORE PUSH1 0x4 ADD DUP1 DUP1 PUSH1 0x20 ADD DUP3 DUP2 SUB DUP3 MSTORE PUSH1 0x22 DUP2 MSTORE PUSH1 0x20 ADD DUP1 PUSH2 0x32F5 PUSH1 0x22 SWAP2 CODECOPY PUSH1 0x40 ADD SWAP2 POP POP PUSH1 0x40 MLOAD DUP1 SWAP2 SUB SWAP1 REVERT JUMPDEST DUP1 PUSH1 0x3 PUSH1 0x0 DUP6 PUSH20 0xFFFFFFFFFFFFFFFFFFFFFFFFFFFFFFFFFFFFFFFF AND PUSH20 0xFFFFFFFFFFFFFFFFFFFFFFFFFFFFFFFFFFFFFFFF AND DUP2 MSTORE PUSH1 0x20 ADD SWAP1 DUP2 MSTORE PUSH1 0x20 ADD PUSH1 0x0 KECCAK256 PUSH1 0x0 DUP5 PUSH20 0xFFFFFFFFFFFFFFFFFFFFFFFFFFFFFFFFFFFFFFFF AND PUSH20 0xFFFFFFFFFFFFFFFFFFFFFFFFFFFFFFFFFFFFFFFF AND DUP2 MSTORE PUSH1 0x20 ADD SWAP1 DUP2 MSTORE PUSH1 0x20 ADD PUSH1 0x0 KECCAK256 DUP2 SWAP1 SSTORE POP DUP2 PUSH20 0xFFFFFFFFFFFFFFFFFFFFFFFFFFFFFFFFFFFFFFFF AND DUP4 PUSH20 0xFFFFFFFFFFFFFFFFFFFFFFFFFFFFFFFFFFFFFFFF AND PUSH32 0x8C5BE1E5EBEC7D5BD14F71427D1E84F3DD0314C0F7B2291E5B200AC8C7C3B925 DUP4 PUSH1 0x40 MLOAD DUP1 DUP3 DUP2 MSTORE PUSH1 0x20 ADD SWAP2 POP POP PUSH1 0x40 MLOAD DUP1 SWAP2 SUB SWAP1 LOG3 POP POP POP JUMP JUMPDEST PUSH1 0x0 PUSH20 0xFFFFFFFFFFFFFFFFFFFFFFFFFFFFFFFFFFFFFFFF AND DUP4 PUSH20 0xFFFFFFFFFFFFFFFFFFFFFFFFFFFFFFFFFFFFFFFF AND EQ ISZERO PUSH2 0x1F4E JUMPI PUSH1 0x40 MLOAD PUSH32 0x8C379A000000000000000000000000000000000000000000000000000000000 DUP2 MSTORE PUSH1 0x4 ADD DUP1 DUP1 PUSH1 0x20 ADD DUP3 DUP2 SUB DUP3 MSTORE PUSH1 0x25 DUP2 MSTORE PUSH1 0x20 ADD DUP1 PUSH2 0x3389 PUSH1 0x25 SWAP2 CODECOPY PUSH1 0x40 ADD SWAP2 POP POP PUSH1 0x40 MLOAD DUP1 SWAP2 SUB SWAP1 REVERT JUMPDEST PUSH1 0x0 PUSH20 0xFFFFFFFFFFFFFFFFFFFFFFFFFFFFFFFFFFFFFFFF AND DUP3 PUSH20 0xFFFFFFFFFFFFFFFFFFFFFFFFFFFFFFFFFFFFFFFF AND EQ ISZERO PUSH2 0x1FD4 JUMPI PUSH1 0x40 MLOAD PUSH32 0x8C379A000000000000000000000000000000000000000000000000000000000 DUP2 MSTORE PUSH1 0x4 ADD DUP1 DUP1 PUSH1 0x20 ADD DUP3 DUP2 SUB DUP3 MSTORE PUSH1 0x23 DUP2 MSTORE PUSH1 0x20 ADD DUP1 PUSH2 0x3282 PUSH1 0x23 SWAP2 CODECOPY PUSH1 0x40 ADD SWAP2 POP POP PUSH1 0x40 MLOAD DUP1 SWAP2 SUB SWAP1 REVERT JUMPDEST PUSH1 0x0 DUP2 GT PUSH2 0x202D JUMPI PUSH1 0x40 MLOAD PUSH32 0x8C379A000000000000000000000000000000000000000000000000000000000 DUP2 MSTORE PUSH1 0x4 ADD DUP1 DUP1 PUSH1 0x20 ADD DUP3 DUP2 SUB DUP3 MSTORE PUSH1 0x29 DUP2 MSTORE PUSH1 0x20 ADD DUP1 PUSH2 0x3360 PUSH1 0x29 SWAP2 CODECOPY PUSH1 0x40 ADD SWAP2 POP POP PUSH1 0x40 MLOAD DUP1 SWAP2 SUB SWAP1 REVERT JUMPDEST PUSH1 0x4 PUSH1 0x0 DUP5 PUSH20 0xFFFFFFFFFFFFFFFFFFFFFFFFFFFFFFFFFFFFFFFF AND PUSH20 0xFFFFFFFFFFFFFFFFFFFFFFFFFFFFFFFFFFFFFFFF AND DUP2 MSTORE PUSH1 0x20 ADD SWAP1 DUP2 MSTORE PUSH1 0x20 ADD PUSH1 0x0 KECCAK256 PUSH1 0x0 SWAP1 SLOAD SWAP1 PUSH2 0x100 EXP SWAP1 DIV PUSH1 0xFF AND DUP1 ISZERO PUSH2 0x20D0 JUMPI POP PUSH1 0x4 PUSH1 0x0 DUP4 PUSH20 0xFFFFFFFFFFFFFFFFFFFFFFFFFFFFFFFFFFFFFFFF AND PUSH20 0xFFFFFFFFFFFFFFFFFFFFFFFFFFFFFFFFFFFFFFFF AND DUP2 MSTORE PUSH1 0x20 ADD SWAP1 DUP2 MSTORE PUSH1 0x20 ADD PUSH1 0x0 KECCAK256 PUSH1 0x0 SWAP1 SLOAD SWAP1 PUSH2 0x100 EXP SWAP1 DIV PUSH1 0xFF AND ISZERO JUMPDEST ISZERO PUSH2 0x20E5 JUMPI PUSH2 0x20E0 DUP4 DUP4 DUP4 PUSH2 0x2506 JUMP JUMPDEST PUSH2 0x231C JUMP JUMPDEST PUSH1 0x4 PUSH1 0x0 DUP5 PUSH20 0xFFFFFFFFFFFFFFFFFFFFFFFFFFFFFFFFFFFFFFFF AND PUSH20 0xFFFFFFFFFFFFFFFFFFFFFFFFFFFFFFFFFFFFFFFF AND DUP2 MSTORE PUSH1 0x20 ADD SWAP1 DUP2 MSTORE PUSH1 0x20 ADD PUSH1 0x0 KECCAK256 PUSH1 0x0 SWAP1 SLOAD SWAP1 PUSH2 0x100 EXP SWAP1 DIV PUSH1 0xFF AND ISZERO DUP1 ISZERO PUSH2 0x2188 JUMPI POP PUSH1 0x4 PUSH1 0x0 DUP4 PUSH20 0xFFFFFFFFFFFFFFFFFFFFFFFFFFFFFFFFFFFFFFFF AND PUSH20 0xFFFFFFFFFFFFFFFFFFFFFFFFFFFFFFFFFFFFFFFF AND DUP2 MSTORE PUSH1 0x20 ADD SWAP1 DUP2 MSTORE PUSH1 0x20 ADD PUSH1 0x0 KECCAK256 PUSH1 0x0 SWAP1 SLOAD SWAP1 PUSH2 0x100 EXP SWAP1 DIV PUSH1 0xFF AND JUMPDEST ISZERO PUSH2 0x219D JUMPI PUSH2 0x2198 DUP4 DUP4 DUP4 PUSH2 0x2759 JUMP JUMPDEST PUSH2 0x231B JUMP JUMPDEST PUSH1 0x4 PUSH1 0x0 DUP5 PUSH20 0xFFFFFFFFFFFFFFFFFFFFFFFFFFFFFFFFFFFFFFFF AND PUSH20 0xFFFFFFFFFFFFFFFFFFFFFFFFFFFFFFFFFFFFFFFF AND DUP2 MSTORE PUSH1 0x20 ADD SWAP1 DUP2 MSTORE PUSH1 0x20 ADD PUSH1 0x0 KECCAK256 PUSH1 0x0 SWAP1 SLOAD SWAP1 PUSH2 0x100 EXP SWAP1 DIV PUSH1 0xFF AND ISZERO DUP1 ISZERO PUSH2 0x2241 JUMPI POP PUSH1 0x4 PUSH1 0x0 DUP4 PUSH20 0xFFFFFFFFFFFFFFFFFFFFFFFFFFFFFFFFFFFFFFFF AND PUSH20 0xFFFFFFFFFFFFFFFFFFFFFFFFFFFFFFFFFFFFFFFF AND DUP2 MSTORE PUSH1 0x20 ADD SWAP1 DUP2 MSTORE PUSH1 0x20 ADD PUSH1 0x0 KECCAK256 PUSH1 0x0 SWAP1 SLOAD SWAP1 PUSH2 0x100 EXP SWAP1 DIV PUSH1 0xFF AND ISZERO JUMPDEST ISZERO PUSH2 0x2256 JUMPI PUSH2 0x2251 DUP4 DUP4 DUP4 PUSH2 0x29AC JUMP JUMPDEST PUSH2 0x231A JUMP JUMPDEST PUSH1 0x4 PUSH1 0x0 DUP5 PUSH20 0xFFFFFFFFFFFFFFFFFFFFFFFFFFFFFFFFFFFFFFFF AND PUSH20 0xFFFFFFFFFFFFFFFFFFFFFFFFFFFFFFFFFFFFFFFF AND DUP2 MSTORE PUSH1 0x20 ADD SWAP1 DUP2 MSTORE PUSH1 0x20 ADD PUSH1 0x0 KECCAK256 PUSH1 0x0 SWAP1 SLOAD SWAP1 PUSH2 0x100 EXP SWAP1 DIV PUSH1 0xFF AND DUP1 ISZERO PUSH2 0x22F8 JUMPI POP PUSH1 0x4 PUSH1 0x0 DUP4 PUSH20 0xFFFFFFFFFFFFFFFFFFFFFFFFFFFFFFFFFFFFFFFF AND PUSH20 0xFFFFFFFFFFFFFFFFFFFFFFFFFFFFFFFFFFFFFFFF AND DUP2 MSTORE PUSH1 0x20 ADD SWAP1 DUP2 MSTORE PUSH1 0x20 ADD PUSH1 0x0 KECCAK256 PUSH1 0x0 SWAP1 SLOAD SWAP1 PUSH2 0x100 EXP SWAP1 DIV PUSH1 0xFF AND JUMPDEST ISZERO PUSH2 0x230D JUMPI PUSH2 0x2308 DUP4 DUP4 DUP4 PUSH2 0x2B6A JUMP JUMPDEST PUSH2 0x2319 JUMP JUMPDEST PUSH2 0x2318 DUP4 DUP4 DUP4 PUSH2 0x29AC JUMP JUMPDEST JUMPDEST JUMPDEST JUMPDEST JUMPDEST POP POP POP JUMP JUMPDEST PUSH1 0x0 DUP4 DUP4 GT ISZERO DUP3 SWAP1 PUSH2 0x23CE JUMPI PUSH1 0x40 MLOAD PUSH32 0x8C379A000000000000000000000000000000000000000000000000000000000 DUP2 MSTORE PUSH1 0x4 ADD DUP1 DUP1 PUSH1 0x20 ADD DUP3 DUP2 SUB DUP3 MSTORE DUP4 DUP2 DUP2 MLOAD DUP2 MSTORE PUSH1 0x20 ADD SWAP2 POP DUP1 MLOAD SWAP1 PUSH1 0x20 ADD SWAP1 DUP1 DUP4 DUP4 PUSH1 0x0 JUMPDEST DUP4 DUP2 LT ISZERO PUSH2 0x2393 JUMPI DUP1 DUP3 ADD MLOAD DUP2 DUP5 ADD MSTORE PUSH1 0x20 DUP2 ADD SWAP1 POP PUSH2 0x2378 JUMP JUMPDEST POP POP POP POP SWAP1 POP SWAP1 DUP2 ADD SWAP1 PUSH1 0x1F AND DUP1 ISZERO PUSH2 0x23C0 JUMPI DUP1 DUP3 SUB DUP1 MLOAD PUSH1 0x1 DUP4 PUSH1 0x20 SUB PUSH2 0x100 EXP SUB NOT AND DUP2 MSTORE PUSH1 0x20 ADD SWAP2 POP JUMPDEST POP SWAP3 POP POP POP PUSH1 0x40 MLOAD DUP1 SWAP2 SUB SWAP1 REVERT JUMPDEST POP PUSH1 0x0 DUP4 DUP6 SUB SWAP1 POP DUP1 SWAP2 POP POP SWAP4 SWAP3 POP POP POP JUMP JUMPDEST PUSH1 0x0 DUP1 PUSH1 0x0 PUSH2 0x23EE PUSH2 0x2E52 JUMP JUMPDEST SWAP2 POP SWAP2 POP PUSH2 0x2405 DUP2 DUP4 PUSH2 0x240C SWAP1 SWAP2 SWAP1 PUSH4 0xFFFFFFFF AND JUMP JUMPDEST SWAP3 POP POP POP SWAP1 JUMP JUMPDEST PUSH1 0x0 PUSH2 0x244E DUP4 DUP4 PUSH1 0x40 MLOAD DUP1 PUSH1 0x40 ADD PUSH1 0x40 MSTORE DUP1 PUSH1 0x1A DUP2 MSTORE PUSH1 0x20 ADD PUSH32 0x536166654D6174683A206469766973696F6E206279207A65726F000000000000 DUP2 MSTORE POP PUSH2 0x30FB JUMP JUMPDEST SWAP1 POP SWAP3 SWAP2 POP POP JUMP JUMPDEST PUSH1 0x0 DUP1 PUSH1 0x0 PUSH2 0x2482 PUSH1 0x2 PUSH2 0x2474 PUSH1 0x64 DUP8 PUSH2 0x240C SWAP1 SWAP2 SWAP1 PUSH4 0xFFFFFFFF AND JUMP JUMPDEST PUSH2 0x31C1 SWAP1 SWAP2 SWAP1 PUSH4 0xFFFFFFFF AND JUMP JUMPDEST SWAP1 POP PUSH1 0x0 PUSH2 0x2499 DUP3 DUP7 PUSH2 0x1BFF SWAP1 SWAP2 SWAP1 PUSH4 0xFFFFFFFF AND JUMP JUMPDEST SWAP1 POP DUP1 DUP3 SWAP4 POP SWAP4 POP POP POP SWAP2 POP SWAP2 JUMP JUMPDEST PUSH1 0x0 DUP1 PUSH1 0x0 DUP1 PUSH2 0x24C1 DUP6 DUP9 PUSH2 0x31C1 SWAP1 SWAP2 SWAP1 PUSH4 0xFFFFFFFF AND JUMP JUMPDEST SWAP1 POP PUSH1 0x0 PUSH2 0x24D8 DUP7 DUP9 PUSH2 0x31C1 SWAP1 SWAP2 SWAP1 PUSH4 0xFFFFFFFF AND JUMP JUMPDEST SWAP1 POP PUSH1 0x0 PUSH2 0x24EF DUP3 DUP5 PUSH2 0x1BFF SWAP1 SWAP2 SWAP1 PUSH4 0xFFFFFFFF AND JUMP JUMPDEST SWAP1 POP DUP3 DUP2 DUP4 SWAP6 POP SWAP6 POP SWAP6 POP POP POP POP SWAP4 POP SWAP4 POP SWAP4 SWAP1 POP JUMP JUMPDEST PUSH1 0x0 DUP1 PUSH1 0x0 DUP1 PUSH1 0x0 PUSH2 0x2517 DUP7 PUSH2 0x1BA7 JUMP JUMPDEST SWAP5 POP SWAP5 POP SWAP5 POP SWAP5 POP SWAP5 POP PUSH2 0x2573 DUP7 PUSH1 0x2 PUSH1 0x0 DUP12 PUSH20 0xFFFFFFFFFFFFFFFFFFFFFFFFFFFFFFFFFFFFFFFF AND PUSH20 0xFFFFFFFFFFFFFFFFFFFFFFFFFFFFFFFFFFFFFFFF AND DUP2 MSTORE PUSH1 0x20 ADD SWAP1 DUP2 MSTORE PUSH1 0x20 ADD PUSH1 0x0 KECCAK256 SLOAD PUSH2 0x1BFF SWAP1 SWAP2 SWAP1 PUSH4 0xFFFFFFFF AND JUMP JUMPDEST PUSH1 0x2 PUSH1 0x0 DUP11 PUSH20 0xFFFFFFFFFFFFFFFFFFFFFFFFFFFFFFFFFFFFFFFF AND PUSH20 0xFFFFFFFFFFFFFFFFFFFFFFFFFFFFFFFFFFFFFFFF AND DUP2 MSTORE PUSH1 0x20 ADD SWAP1 DUP2 MSTORE PUSH1 0x20 ADD PUSH1 0x0 KECCAK256 DUP2 SWAP1 SSTORE POP PUSH2 0x2608 DUP6 PUSH1 0x1 PUSH1 0x0 DUP12 PUSH20 0xFFFFFFFFFFFFFFFFFFFFFFFFFFFFFFFFFFFFFFFF AND PUSH20 0xFFFFFFFFFFFFFFFFFFFFFFFFFFFFFFFFFFFFFFFF AND DUP2 MSTORE PUSH1 0x20 ADD SWAP1 DUP2 MSTORE PUSH1 0x20 ADD PUSH1 0x0 KECCAK256 SLOAD PUSH2 0x1BFF SWAP1 SWAP2 SWAP1 PUSH4 0xFFFFFFFF AND JUMP JUMPDEST PUSH1 0x1 PUSH1 0x0 DUP11 PUSH20 0xFFFFFFFFFFFFFFFFFFFFFFFFFFFFFFFFFFFFFFFF AND PUSH20 0xFFFFFFFFFFFFFFFFFFFFFFFFFFFFFFFFFFFFFFFF AND DUP2 MSTORE PUSH1 0x20 ADD SWAP1 DUP2 MSTORE PUSH1 0x20 ADD PUSH1 0x0 KECCAK256 DUP2 SWAP1 SSTORE POP PUSH2 0x269D DUP5 PUSH1 0x1 PUSH1 0x0 DUP11 PUSH20 0xFFFFFFFFFFFFFFFFFFFFFFFFFFFFFFFFFFFFFFFF AND PUSH20 0xFFFFFFFFFFFFFFFFFFFFFFFFFFFFFFFFFFFFFFFF AND DUP2 MSTORE PUSH1 0x20 ADD SWAP1 DUP2 MSTORE PUSH1 0x20 ADD PUSH1 0x0 KECCAK256 SLOAD PUSH2 0x1C49 SWAP1 SWAP2 SWAP1 PUSH4 0xFFFFFFFF AND JUMP JUMPDEST PUSH1 0x1 PUSH1 0x0 DUP10 PUSH20 0xFFFFFFFFFFFFFFFFFFFFFFFFFFFFFFFFFFFFFFFF AND PUSH20 0xFFFFFFFFFFFFFFFFFFFFFFFFFFFFFFFFFFFFFFFF AND DUP2 MSTORE PUSH1 0x20 ADD SWAP1 DUP2 MSTORE PUSH1 0x20 ADD PUSH1 0x0 KECCAK256 DUP2 SWAP1 SSTORE POP PUSH2 0x26EA DUP4 DUP3 PUSH2 0x3247 JUMP JUMPDEST DUP7 PUSH20 0xFFFFFFFFFFFFFFFFFFFFFFFFFFFFFFFFFFFFFFFF AND DUP9 PUSH20 0xFFFFFFFFFFFFFFFFFFFFFFFFFFFFFFFFFFFFFFFF AND PUSH32 0xDDF252AD1BE2C89B69C2B068FC378DAA952BA7F163C4A11628F55A4DF523B3EF DUP5 PUSH1 0x40 MLOAD DUP1 DUP3 DUP2 MSTORE PUSH1 0x20 ADD SWAP2 POP POP PUSH1 0x40 MLOAD DUP1 SWAP2 SUB SWAP1 LOG3 POP POP POP POP POP POP POP POP JUMP JUMPDEST PUSH1 0x0 DUP1 PUSH1 0x0 DUP1 PUSH1 0x0 PUSH2 0x276A DUP7 PUSH2 0x1BA7 JUMP JUMPDEST SWAP5 POP SWAP5 POP SWAP5 POP SWAP5 POP SWAP5 POP PUSH2 0x27C6 DUP6 PUSH1 0x1 PUSH1 0x0 DUP12 PUSH20 0xFFFFFFFFFFFFFFFFFFFFFFFFFFFFFFFFFFFFFFFF AND PUSH20 0xFFFFFFFFFFFFFFFFFFFFFFFFFFFFFFFFFFFFFFFF AND DUP2 MSTORE PUSH1 0x20 ADD SWAP1 DUP2 MSTORE PUSH1 0x20 ADD PUSH1 0x0 KECCAK256 SLOAD PUSH2 0x1BFF SWAP1 SWAP2 SWAP1 PUSH4 0xFFFFFFFF AND JUMP JUMPDEST PUSH1 0x1 PUSH1 0x0 DUP11 PUSH20 0xFFFFFFFFFFFFFFFFFFFFFFFFFFFFFFFFFFFFFFFF AND PUSH20 0xFFFFFFFFFFFFFFFFFFFFFFFFFFFFFFFFFFFFFFFF AND DUP2 MSTORE PUSH1 0x20 ADD SWAP1 DUP2 MSTORE PUSH1 0x20 ADD PUSH1 0x0 KECCAK256 DUP2 SWAP1 SSTORE POP PUSH2 0x285B DUP3 PUSH1 0x2 PUSH1 0x0 DUP11 PUSH20 0xFFFFFFFFFFFFFFFFFFFFFFFFFFFFFFFFFFFFFFFF AND PUSH20 0xFFFFFFFFFFFFFFFFFFFFFFFFFFFFFFFFFFFFFFFF AND DUP2 MSTORE PUSH1 0x20 ADD SWAP1 DUP2 MSTORE PUSH1 0x20 ADD PUSH1 0x0 KECCAK256 SLOAD PUSH2 0x1C49 SWAP1 SWAP2 SWAP1 PUSH4 0xFFFFFFFF AND JUMP JUMPDEST PUSH1 0x2 PUSH1 0x0 DUP10 PUSH20 0xFFFFFFFFFFFFFFFFFFFFFFFFFFFFFFFFFFFFFFFF AND PUSH20 0xFFFFFFFFFFFFFFFFFFFFFFFFFFFFFFFFFFFFFFFF AND DUP2 MSTORE PUSH1 0x20 ADD SWAP1 DUP2 MSTORE PUSH1 0x20 ADD PUSH1 0x0 KECCAK256 DUP2 SWAP1 SSTORE POP PUSH2 0x28F0 DUP5 PUSH1 0x1 PUSH1 0x0 DUP11 PUSH20 0xFFFFFFFFFFFFFFFFFFFFFFFFFFFFFFFFFFFFFFFF AND PUSH20 0xFFFFFFFFFFFFFFFFFFFFFFFFFFFFFFFFFFFFFFFF AND DUP2 MSTORE PUSH1 0x20 ADD SWAP1 DUP2 MSTORE PUSH1 0x20 ADD PUSH1 0x0 KECCAK256 SLOAD PUSH2 0x1C49 SWAP1 SWAP2 SWAP1 PUSH4 0xFFFFFFFF AND JUMP JUMPDEST PUSH1 0x1 PUSH1 0x0 DUP10 PUSH20 0xFFFFFFFFFFFFFFFFFFFFFFFFFFFFFFFFFFFFFFFF AND PUSH20 0xFFFFFFFFFFFFFFFFFFFFFFFFFFFFFFFFFFFFFFFF AND DUP2 MSTORE PUSH1 0x20 ADD SWAP1 DUP2 MSTORE PUSH1 0x20 ADD PUSH1 0x0 KECCAK256 DUP2 SWAP1 SSTORE POP PUSH2 0x293D DUP4 DUP3 PUSH2 0x3247 JUMP JUMPDEST DUP7 PUSH20 0xFFFFFFFFFFFFFFFFFFFFFFFFFFFFFFFFFFFFFFFF AND DUP9 PUSH20 0xFFFFFFFFFFFFFFFFFFFFFFFFFFFFFFFFFFFFFFFF AND PUSH32 0xDDF252AD1BE2C89B69C2B068FC378DAA952BA7F163C4A11628F55A4DF523B3EF DUP5 PUSH1 0x40 MLOAD DUP1 DUP3 DUP2 MSTORE PUSH1 0x20 ADD SWAP2 POP POP PUSH1 0x40 MLOAD DUP1 SWAP2 SUB SWAP1 LOG3 POP POP POP POP POP POP POP POP JUMP JUMPDEST PUSH1 0x0 DUP1 PUSH1 0x0 DUP1 PUSH1 0x0 PUSH2 0x29BD DUP7 PUSH2 0x1BA7 JUMP JUMPDEST SWAP5 POP SWAP5 POP SWAP5 POP SWAP5 POP SWAP5 POP PUSH2 0x2A19 DUP6 PUSH1 0x1 PUSH1 0x0 DUP12 PUSH20 0xFFFFFFFFFFFFFFFFFFFFFFFFFFFFFFFFFFFFFFFF AND PUSH20 0xFFFFFFFFFFFFFFFFFFFFFFFFFFFFFFFFFFFFFFFF AND DUP2 MSTORE PUSH1 0x20 ADD SWAP1 DUP2 MSTORE PUSH1 0x20 ADD PUSH1 0x0 KECCAK256 SLOAD PUSH2 0x1BFF SWAP1 SWAP2 SWAP1 PUSH4 0xFFFFFFFF AND JUMP JUMPDEST PUSH1 0x1 PUSH1 0x0 DUP11 PUSH20 0xFFFFFFFFFFFFFFFFFFFFFFFFFFFFFFFFFFFFFFFF AND PUSH20 0xFFFFFFFFFFFFFFFFFFFFFFFFFFFFFFFFFFFFFFFF AND DUP2 MSTORE PUSH1 0x20 ADD SWAP1 DUP2 MSTORE PUSH1 0x20 ADD PUSH1 0x0 KECCAK256 DUP2 SWAP1 SSTORE POP PUSH2 0x2AAE DUP5 PUSH1 0x1 PUSH1 0x0 DUP11 PUSH20 0xFFFFFFFFFFFFFFFFFFFFFFFFFFFFFFFFFFFFFFFF AND PUSH20 0xFFFFFFFFFFFFFFFFFFFFFFFFFFFFFFFFFFFFFFFF AND DUP2 MSTORE PUSH1 0x20 ADD SWAP1 DUP2 MSTORE PUSH1 0x20 ADD PUSH1 0x0 KECCAK256 SLOAD PUSH2 0x1C49 SWAP1 SWAP2 SWAP1 PUSH4 0xFFFFFFFF AND JUMP JUMPDEST PUSH1 0x1 PUSH1 0x0 DUP10 PUSH20 0xFFFFFFFFFFFFFFFFFFFFFFFFFFFFFFFFFFFFFFFF AND PUSH20 0xFFFFFFFFFFFFFFFFFFFFFFFFFFFFFFFFFFFFFFFF AND DUP2 MSTORE PUSH1 0x20 ADD SWAP1 DUP2 MSTORE PUSH1 0x20 ADD PUSH1 0x0 KECCAK256 DUP2 SWAP1 SSTORE POP PUSH2 0x2AFB DUP4 DUP3 PUSH2 0x3247 JUMP JUMPDEST DUP7 PUSH20 0xFFFFFFFFFFFFFFFFFFFFFFFFFFFFFFFFFFFFFFFF AND DUP9 PUSH20 0xFFFFFFFFFFFFFFFFFFFFFFFFFFFFFFFFFFFFFFFF AND PUSH32 0xDDF252AD1BE2C89B69C2B068FC378DAA952BA7F163C4A11628F55A4DF523B3EF DUP5 PUSH1 0x40 MLOAD DUP1 DUP3 DUP2 MSTORE PUSH1 0x20 ADD SWAP2 POP POP PUSH1 0x40 MLOAD DUP1 SWAP2 SUB SWAP1 LOG3 POP POP POP POP POP POP POP POP JUMP JUMPDEST PUSH1 0x0 DUP1 PUSH1 0x0 DUP1 PUSH1 0x0 PUSH2 0x2B7B DUP7 PUSH2 0x1BA7 JUMP JUMPDEST SWAP5 POP SWAP5 POP SWAP5 POP SWAP5 POP SWAP5 POP PUSH2 0x2BD7 DUP7 PUSH1 0x2 PUSH1 0x0 DUP12 PUSH20 0xFFFFFFFFFFFFFFFFFFFFFFFFFFFFFFFFFFFFFFFF AND PUSH20 0xFFFFFFFFFFFFFFFFFFFFFFFFFFFFFFFFFFFFFFFF AND DUP2 MSTORE PUSH1 0x20 ADD SWAP1 DUP2 MSTORE PUSH1 0x20 ADD PUSH1 0x0 KECCAK256 SLOAD PUSH2 0x1BFF SWAP1 SWAP2 SWAP1 PUSH4 0xFFFFFFFF AND JUMP JUMPDEST PUSH1 0x2 PUSH1 0x0 DUP11 PUSH20 0xFFFFFFFFFFFFFFFFFFFFFFFFFFFFFFFFFFFFFFFF AND PUSH20 0xFFFFFFFFFFFFFFFFFFFFFFFFFFFFFFFFFFFFFFFF AND DUP2 MSTORE PUSH1 0x20 ADD SWAP1 DUP2 MSTORE PUSH1 0x20 ADD PUSH1 0x0 KECCAK256 DUP2 SWAP1 SSTORE POP PUSH2 0x2C6C DUP6 PUSH1 0x1 PUSH1 0x0 DUP12 PUSH20 0xFFFFFFFFFFFFFFFFFFFFFFFFFFFFFFFFFFFFFFFF AND PUSH20 0xFFFFFFFFFFFFFFFFFFFFFFFFFFFFFFFFFFFFFFFF AND DUP2 MSTORE PUSH1 0x20 ADD SWAP1 DUP2 MSTORE PUSH1 0x20 ADD PUSH1 0x0 KECCAK256 SLOAD PUSH2 0x1BFF SWAP1 SWAP2 SWAP1 PUSH4 0xFFFFFFFF AND JUMP JUMPDEST PUSH1 0x1 PUSH1 0x0 DUP11 PUSH20 0xFFFFFFFFFFFFFFFFFFFFFFFFFFFFFFFFFFFFFFFF AND PUSH20 0xFFFFFFFFFFFFFFFFFFFFFFFFFFFFFFFFFFFFFFFF AND DUP2 MSTORE PUSH1 0x20 ADD SWAP1 DUP2 MSTORE PUSH1 0x20 ADD PUSH1 0x0 KECCAK256 DUP2 SWAP1 SSTORE POP PUSH2 0x2D01 DUP3 PUSH1 0x2 PUSH1 0x0 DUP11 PUSH20 0xFFFFFFFFFFFFFFFFFFFFFFFFFFFFFFFFFFFFFFFF AND PUSH20 0xFFFFFFFFFFFFFFFFFFFFFFFFFFFFFFFFFFFFFFFF AND DUP2 MSTORE PUSH1 0x20 ADD SWAP1 DUP2 MSTORE PUSH1 0x20 ADD PUSH1 0x0 KECCAK256 SLOAD PUSH2 0x1C49 SWAP1 SWAP2 SWAP1 PUSH4 0xFFFFFFFF AND JUMP JUMPDEST PUSH1 0x2 PUSH1 0x0 DUP10 PUSH20 0xFFFFFFFFFFFFFFFFFFFFFFFFFFFFFFFFFFFFFFFF AND PUSH20 0xFFFFFFFFFFFFFFFFFFFFFFFFFFFFFFFFFFFFFFFF AND DUP2 MSTORE PUSH1 0x20 ADD SWAP1 DUP2 MSTORE PUSH1 0x20 ADD PUSH1 0x0 KECCAK256 DUP2 SWAP1 SSTORE POP PUSH2 0x2D96 DUP5 PUSH1 0x1 PUSH1 0x0 DUP11 PUSH20 0xFFFFFFFFFFFFFFFFFFFFFFFFFFFFFFFFFFFFFFFF AND PUSH20 0xFFFFFFFFFFFFFFFFFFFFFFFFFFFFFFFFFFFFFFFF AND DUP2 MSTORE PUSH1 0x20 ADD SWAP1 DUP2 MSTORE PUSH1 0x20 ADD PUSH1 0x0 KECCAK256 SLOAD PUSH2 0x1C49 SWAP1 SWAP2 SWAP1 PUSH4 0xFFFFFFFF AND JUMP JUMPDEST PUSH1 0x1 PUSH1 0x0 DUP10 PUSH20 0xFFFFFFFFFFFFFFFFFFFFFFFFFFFFFFFFFFFFFFFF AND PUSH20 0xFFFFFFFFFFFFFFFFFFFFFFFFFFFFFFFFFFFFFFFF AND DUP2 MSTORE PUSH1 0x20 ADD SWAP1 DUP2 MSTORE PUSH1 0x20 ADD PUSH1 0x0 KECCAK256 DUP2 SWAP1 SSTORE POP PUSH2 0x2DE3 DUP4 DUP3 PUSH2 0x3247 JUMP JUMPDEST DUP7 PUSH20 0xFFFFFFFFFFFFFFFFFFFFFFFFFFFFFFFFFFFFFFFF AND DUP9 PUSH20 0xFFFFFFFFFFFFFFFFFFFFFFFFFFFFFFFFFFFFFFFF AND PUSH32 0xDDF252AD1BE2C89B69C2B068FC378DAA952BA7F163C4A11628F55A4DF523B3EF DUP5 PUSH1 0x40 MLOAD DUP1 DUP3 DUP2 MSTORE PUSH1 0x20 ADD SWAP2 POP POP PUSH1 0x40 MLOAD DUP1 SWAP2 SUB SWAP1 LOG3 POP POP POP POP POP POP POP POP JUMP JUMPDEST PUSH1 0x0 DUP1 PUSH1 0x0 PUSH1 0x6 SLOAD SWAP1 POP PUSH1 0x0 PUSH8 0x8AC7230489E80000 SWAP1 POP PUSH1 0x0 JUMPDEST PUSH1 0x5 DUP1 SLOAD SWAP1 POP DUP2 LT ISZERO PUSH2 0x30B2 JUMPI DUP3 PUSH1 0x1 PUSH1 0x0 PUSH1 0x5 DUP5 DUP2 SLOAD DUP2 LT PUSH2 0x2E8B JUMPI INVALID JUMPDEST SWAP1 PUSH1 0x0 MSTORE PUSH1 0x20 PUSH1 0x0 KECCAK256 ADD PUSH1 0x0 SWAP1 SLOAD SWAP1 PUSH2 0x100 EXP SWAP1 DIV PUSH20 0xFFFFFFFFFFFFFFFFFFFFFFFFFFFFFFFFFFFFFFFF AND PUSH20 0xFFFFFFFFFFFFFFFFFFFFFFFFFFFFFFFFFFFFFFFF AND PUSH20 0xFFFFFFFFFFFFFFFFFFFFFFFFFFFFFFFFFFFFFFFF AND DUP2 MSTORE PUSH1 0x20 ADD SWAP1 DUP2 MSTORE PUSH1 0x20 ADD PUSH1 0x0 KECCAK256 SLOAD GT DUP1 PUSH2 0x2F72 JUMPI POP DUP2 PUSH1 0x2 PUSH1 0x0 PUSH1 0x5 DUP5 DUP2 SLOAD DUP2 LT PUSH2 0x2F0A JUMPI INVALID JUMPDEST SWAP1 PUSH1 0x0 MSTORE PUSH1 0x20 PUSH1 0x0 KECCAK256 ADD PUSH1 0x0 SWAP1 SLOAD SWAP1 PUSH2 0x100 EXP SWAP1 DIV PUSH20 0xFFFFFFFFFFFFFFFFFFFFFFFFFFFFFFFFFFFFFFFF AND PUSH20 0xFFFFFFFFFFFFFFFFFFFFFFFFFFFFFFFFFFFFFFFF AND PUSH20 0xFFFFFFFFFFFFFFFFFFFFFFFFFFFFFFFFFFFFFFFF AND DUP2 MSTORE PUSH1 0x20 ADD SWAP1 DUP2 MSTORE PUSH1 0x20 ADD PUSH1 0x0 KECCAK256 SLOAD GT JUMPDEST ISZERO PUSH2 0x2F8F JUMPI PUSH1 0x6 SLOAD PUSH8 0x8AC7230489E80000 SWAP5 POP SWAP5 POP POP POP POP PUSH2 0x30F7 JUMP JUMPDEST PUSH2 0x3018 PUSH1 0x1 PUSH1 0x0 PUSH1 0x5 DUP5 DUP2 SLOAD DUP2 LT PUSH2 0x2FA3 JUMPI INVALID JUMPDEST SWAP1 PUSH1 0x0 MSTORE PUSH1 0x20 PUSH1 0x0 KECCAK256 ADD PUSH1 0x0 SWAP1 SLOAD SWAP1 PUSH2 0x100 EXP SWAP1 DIV PUSH20 0xFFFFFFFFFFFFFFFFFFFFFFFFFFFFFFFFFFFFFFFF AND PUSH20 0xFFFFFFFFFFFFFFFFFFFFFFFFFFFFFFFFFFFFFFFF AND PUSH20 0xFFFFFFFFFFFFFFFFFFFFFFFFFFFFFFFFFFFFFFFF AND DUP2 MSTORE PUSH1 0x20 ADD SWAP1 DUP2 MSTORE PUSH1 0x20 ADD PUSH1 0x0 KECCAK256 SLOAD DUP5 PUSH2 0x1BFF SWAP1 SWAP2 SWAP1 PUSH4 0xFFFFFFFF AND JUMP JUMPDEST SWAP3 POP PUSH2 0x30A3 PUSH1 0x2 PUSH1 0x0 PUSH1 0x5 DUP5 DUP2 SLOAD DUP2 LT PUSH2 0x302E JUMPI INVALID JUMPDEST SWAP1 PUSH1 0x0 MSTORE PUSH1 0x20 PUSH1 0x0 KECCAK256 ADD PUSH1 0x0 SWAP1 SLOAD SWAP1 PUSH2 0x100 EXP SWAP1 DIV PUSH20 0xFFFFFFFFFFFFFFFFFFFFFFFFFFFFFFFFFFFFFFFF AND PUSH20 0xFFFFFFFFFFFFFFFFFFFFFFFFFFFFFFFFFFFFFFFF AND PUSH20 0xFFFFFFFFFFFFFFFFFFFFFFFFFFFFFFFFFFFFFFFF AND DUP2 MSTORE PUSH1 0x20 ADD SWAP1 DUP2 MSTORE PUSH1 0x20 ADD PUSH1 0x0 KECCAK256 SLOAD DUP4 PUSH2 0x1BFF SWAP1 SWAP2 SWAP1 PUSH4 0xFFFFFFFF AND JUMP JUMPDEST SWAP2 POP DUP1 DUP1 PUSH1 0x1 ADD SWAP2 POP POP PUSH2 0x2E6C JUMP JUMPDEST POP PUSH2 0x30D0 PUSH8 0x8AC7230489E80000 PUSH1 0x6 SLOAD PUSH2 0x240C SWAP1 SWAP2 SWAP1 PUSH4 0xFFFFFFFF AND JUMP JUMPDEST DUP3 LT ISZERO PUSH2 0x30EE JUMPI PUSH1 0x6 SLOAD PUSH8 0x8AC7230489E80000 SWAP4 POP SWAP4 POP POP POP PUSH2 0x30F7 JUMP JUMPDEST DUP2 DUP2 SWAP4 POP SWAP4 POP POP POP JUMPDEST SWAP1 SWAP2 JUMP JUMPDEST PUSH1 0x0 DUP1 DUP4 GT DUP3 SWAP1 PUSH2 0x31A7 JUMPI PUSH1 0x40 MLOAD PUSH32 0x8C379A000000000000000000000000000000000000000000000000000000000 DUP2 MSTORE PUSH1 0x4 ADD DUP1 DUP1 PUSH1 0x20 ADD DUP3 DUP2 SUB DUP3 MSTORE DUP4 DUP2 DUP2 MLOAD DUP2 MSTORE PUSH1 0x20 ADD SWAP2 POP DUP1 MLOAD SWAP1 PUSH1 0x20 ADD SWAP1 DUP1 DUP4 DUP4 PUSH1 0x0 JUMPDEST DUP4 DUP2 LT ISZERO PUSH2 0x316C JUMPI DUP1 DUP3 ADD MLOAD DUP2 DUP5 ADD MSTORE PUSH1 0x20 DUP2 ADD SWAP1 POP PUSH2 0x3151 JUMP JUMPDEST POP POP POP POP SWAP1 POP SWAP1 DUP2 ADD SWAP1 PUSH1 0x1F AND DUP1 ISZERO PUSH2 0x3199 JUMPI DUP1 DUP3 SUB DUP1 MLOAD PUSH1 0x1 DUP4 PUSH1 0x20 SUB PUSH2 0x100 EXP SUB NOT AND DUP2 MSTORE PUSH1 0x20 ADD SWAP2 POP JUMPDEST POP SWAP3 POP POP POP PUSH1 0x40 MLOAD DUP1 SWAP2 SUB SWAP1 REVERT JUMPDEST POP PUSH1 0x0 DUP4 DUP6 DUP2 PUSH2 0x31B3 JUMPI INVALID JUMPDEST DIV SWAP1 POP DUP1 SWAP2 POP POP SWAP4 SWAP3 POP POP POP JUMP JUMPDEST PUSH1 0x0 DUP1 DUP4 EQ ISZERO PUSH2 0x31D4 JUMPI PUSH1 0x0 SWAP1 POP PUSH2 0x3241 JUMP JUMPDEST PUSH1 0x0 DUP3 DUP5 MUL SWAP1 POP DUP3 DUP5 DUP3 DUP2 PUSH2 0x31E5 JUMPI INVALID JUMPDEST DIV EQ PUSH2 0x323C JUMPI PUSH1 0x40 MLOAD PUSH32 0x8C379A000000000000000000000000000000000000000000000000000000000 DUP2 MSTORE PUSH1 0x4 ADD DUP1 DUP1 PUSH1 0x20 ADD DUP3 DUP2 SUB DUP3 MSTORE PUSH1 0x21 DUP2 MSTORE PUSH1 0x20 ADD DUP1 PUSH2 0x3317 PUSH1 0x21 SWAP2 CODECOPY PUSH1 0x40 ADD SWAP2 POP POP PUSH1 0x40 MLOAD DUP1 SWAP2 SUB SWAP1 REVERT JUMPDEST DUP1 SWAP2 POP POP JUMPDEST SWAP3 SWAP2 POP POP JUMP JUMPDEST PUSH2 0x325C DUP3 PUSH1 0x6 SLOAD PUSH2 0x1BFF SWAP1 SWAP2 SWAP1 PUSH4 0xFFFFFFFF AND JUMP JUMPDEST PUSH1 0x6 DUP2 SWAP1 SSTORE POP PUSH2 0x3277 DUP2 PUSH1 0x7 SLOAD PUSH2 0x1C49 SWAP1 SWAP2 SWAP1 PUSH4 0xFFFFFFFF AND JUMP JUMPDEST PUSH1 0x7 DUP2 SWAP1 SSTORE POP POP POP JUMP INVALID GASLIMIT MSTORE NUMBER ORIGIN ADDRESS GASPRICE KECCAK256 PUSH21 0x72616E7366657220746F20746865207A65726F2061 PUSH5 0x6472657373 COINBASE PUSH14 0x6F756E74206D757374206265206C PUSH6 0x737320746861 PUSH15 0x20746F74616C207265666C65637469 PUSH16 0x6E734F776E61626C653A206E6577206F PUSH24 0x6E657220697320746865207A65726F206164647265737345 MSTORE NUMBER ORIGIN ADDRESS GASPRICE KECCAK256 PUSH2 0x7070 PUSH19 0x6F766520746F20746865207A65726F20616464 PUSH19 0x657373536166654D6174683A206D756C746970 PUSH13 0x69636174696F6E206F76657266 PUSH13 0x6F7745524332303A207472616E PUSH20 0x66657220616D6F756E7420657863656564732061 PUSH13 0x6C6F77616E63655472616E7366 PUSH6 0x7220616D6F75 PUSH15 0x74206D757374206265206772656174 PUSH6 0x72207468616E KECCAK256 PUSH27 0x65726F45524332303A207472616E736665722066726F6D20746865 KECCAK256 PUSH27 0x65726F206164647265737345524332303A20617070726F76652066 PUSH19 0x6F6D20746865207A65726F2061646472657373 GASLIMIT PUSH25 0x636C75646564206164647265737365732063616E6E6F742063 PUSH2 0x6C6C KECCAK256 PUSH21 0x6869732066756E6374696F6E45524332303A206465 PUSH4 0x72656173 PUSH6 0x6420616C6C6F PUSH24 0x616E63652062656C6F77207A65726FA26469706673582212 KECCAK256 DUP7 JUMPI MSTORE8 PUSH2 0x66C7 GASLIMIT DUP3 0xCD 0xDA 0xAF 0x4C SWAP5 STATICCALL CALLDATACOPY 0xB3 0xC5 0x5D 0xC2 PUSH16 0xA97DFBC68ACD14F30B057F0164736F6C PUSH4 0x4300060C STOP CALLER "
				},
				"gasEstimates": {
					"creation": {
						"codeDepositCost": "2680000",
						"executionCost": "infinite",
						"totalCost": "infinite"
					},
					"external": {
						"allowance(address,address)": "1387",
						"approve(address,uint256)": "infinite",
						"balanceOf(address)": "infinite",
						"decimals()": "1122",
						"decreaseAllowance(address,uint256)": "infinite",
						"excludeAccount(address)": "infinite",
						"includeAccount(address)": "infinite",
						"increaseAllowance(address,uint256)": "infinite",
						"isExcluded(address)": "1282",
						"name()": "infinite",
						"owner()": "1122",
						"reflect(uint256)": "infinite",
						"reflectionFromToken(uint256,bool)": "infinite",
						"renounceOwnership()": "24336",
						"symbol()": "infinite",
						"tokenFromReflection(uint256)": "infinite",
						"totalFees()": "2005",
						"totalSupply()": "325",
						"transfer(address,uint256)": "infinite",
						"transferFrom(address,address,uint256)": "infinite",
						"transferOwnership(address)": "infinite"
					},
					"internal": {
						"_approve(address,address,uint256)": "infinite",
						"_getCurrentSupply()": "infinite",
						"_getRValues(uint256,uint256,uint256)": "infinite",
						"_getRate()": "infinite",
						"_getTValues(uint256)": "infinite",
						"_getValues(uint256)": "infinite",
						"_reflectFee(uint256,uint256)": "infinite",
						"_transfer(address,address,uint256)": "infinite",
						"_transferBothExcluded(address,address,uint256)": "infinite",
						"_transferFromExcluded(address,address,uint256)": "infinite",
						"_transferStandard(address,address,uint256)": "infinite",
						"_transferToExcluded(address,address,uint256)": "infinite"
					}
				},
				"methodIdentifiers": {
					"allowance(address,address)": "dd62ed3e",
					"approve(address,uint256)": "095ea7b3",
					"balanceOf(address)": "70a08231",
					"decimals()": "313ce567",
					"decreaseAllowance(address,uint256)": "a457c2d7",
					"excludeAccount(address)": "f2cc0c18",
					"includeAccount(address)": "f84354f1",
					"increaseAllowance(address,uint256)": "39509351",
					"isExcluded(address)": "cba0e996",
					"name()": "06fdde03",
					"owner()": "8da5cb5b",
					"reflect(uint256)": "053ab182",
					"reflectionFromToken(uint256,bool)": "4549b039",
					"renounceOwnership()": "715018a6",
					"symbol()": "95d89b41",
					"tokenFromReflection(uint256)": "2d838119",
					"totalFees()": "13114a9d",
					"totalSupply()": "18160ddd",
					"transfer(address,uint256)": "a9059cbb",
					"transferFrom(address,address,uint256)": "23b872dd",
					"transferOwnership(address)": "f2fde38b"
				}
			},
			"storageLayout": {
				"storage": [
					{
						"astId": 495,
						"contract": "contracts/MonsterToken.sol:MonsterToken",
						"label": "_owner",
						"offset": 0,
						"slot": "0",
						"type": "t_address"
					},
					{
						"astId": 612,
						"contract": "contracts/MonsterToken.sol:MonsterToken",
						"label": "_rOwned",
						"offset": 0,
						"slot": "1",
						"type": "t_mapping(t_address,t_uint256)"
					},
					{
						"astId": 616,
						"contract": "contracts/MonsterToken.sol:MonsterToken",
						"label": "_tOwned",
						"offset": 0,
						"slot": "2",
						"type": "t_mapping(t_address,t_uint256)"
					},
					{
						"astId": 622,
						"contract": "contracts/MonsterToken.sol:MonsterToken",
						"label": "_allowances",
						"offset": 0,
						"slot": "3",
						"type": "t_mapping(t_address,t_mapping(t_address,t_uint256))"
					},
					{
						"astId": 626,
						"contract": "contracts/MonsterToken.sol:MonsterToken",
						"label": "_isExcluded",
						"offset": 0,
						"slot": "4",
						"type": "t_mapping(t_address,t_bool)"
					},
					{
						"astId": 629,
						"contract": "contracts/MonsterToken.sol:MonsterToken",
						"label": "_excluded",
						"offset": 0,
						"slot": "5",
						"type": "t_array(t_address)dyn_storage"
					},
					{
						"astId": 656,
						"contract": "contracts/MonsterToken.sol:MonsterToken",
						"label": "_rTotal",
						"offset": 0,
						"slot": "6",
						"type": "t_uint256"
					},
					{
						"astId": 658,
						"contract": "contracts/MonsterToken.sol:MonsterToken",
						"label": "_tFeeTotal",
						"offset": 0,
						"slot": "7",
						"type": "t_uint256"
					},
					{
						"astId": 661,
						"contract": "contracts/MonsterToken.sol:MonsterToken",
						"label": "_name",
						"offset": 0,
						"slot": "8",
						"type": "t_string_storage"
					},
					{
						"astId": 664,
						"contract": "contracts/MonsterToken.sol:MonsterToken",
						"label": "_symbol",
						"offset": 0,
						"slot": "9",
						"type": "t_string_storage"
					},
					{
						"astId": 667,
						"contract": "contracts/MonsterToken.sol:MonsterToken",
						"label": "_decimals",
						"offset": 0,
						"slot": "10",
						"type": "t_uint8"
					}
				],
				"types": {
					"t_address": {
						"encoding": "inplace",
						"label": "address",
						"numberOfBytes": "20"
					},
					"t_array(t_address)dyn_storage": {
						"base": "t_address",
						"encoding": "dynamic_array",
						"label": "address[]",
						"numberOfBytes": "32"
					},
					"t_bool": {
						"encoding": "inplace",
						"label": "bool",
						"numberOfBytes": "1"
					},
					"t_mapping(t_address,t_bool)": {
						"encoding": "mapping",
						"key": "t_address",
						"label": "mapping(address => bool)",
						"numberOfBytes": "32",
						"value": "t_bool"
					},
					"t_mapping(t_address,t_mapping(t_address,t_uint256))": {
						"encoding": "mapping",
						"key": "t_address",
						"label": "mapping(address => mapping(address => uint256))",
						"numberOfBytes": "32",
						"value": "t_mapping(t_address,t_uint256)"
					},
					"t_mapping(t_address,t_uint256)": {
						"encoding": "mapping",
						"key": "t_address",
						"label": "mapping(address => uint256)",
						"numberOfBytes": "32",
						"value": "t_uint256"
					},
					"t_string_storage": {
						"encoding": "bytes",
						"label": "string",
						"numberOfBytes": "32"
					},
					"t_uint256": {
						"encoding": "inplace",
						"label": "uint256",
						"numberOfBytes": "32"
					},
					"t_uint8": {
						"encoding": "inplace",
						"label": "uint8",
						"numberOfBytes": "1"
					}
				}
			},
			"userdoc": {
				"kind": "user",
				"methods": {},
				"version": 1
			}
		}
	}
}